:020000040800F2
:1000000000390020E516000815130008D116000875
:10001000D1160008D1160008D11600080000000013
:10002000000000000000000000000000AD17000804
:10003000D1160008000000004D170008AD2500088B
:1000400059190008591900085919000859190008C8
:1000500059190008591900085919000859190008B8
:1000600059190008591900085919000859190008A8
:100070005919000859190008591900085919000898
:100080005919000859190008591900085919000888
:100090005919000859190008591900085919000878
:1000A0005919000859190008591900085919000868
:1000B0005919000859190008591900085919000858
:1000C0005919000859190008591900085919000848
:1000D0005919000859190008591900085919000838
:1000E0005919000859190008591900085919000828
:1000F0005919000859190008591900085919000818
:100100005919000859190008591900085919000807
:1001100059190008591900085919000859190008F7
:1001200059190008591900085919000859190008E7
:1001300059190008591900085919000859190008D7
:1001400059190008591900085919000859190008C7
:1001500059190008591900085919000859190008B7
:1001600059190008591900085919000859190008A7
:100170005919000859190008591900085919000897
:08018000591900085919000883
:1001880053B94AB9002908BF00281CBF4FF0FF31F6
:100198004FF0FF3000F00CB8ADF1080C6DE904CE5B
:1001A80000F060FDDDF804E0DDE9022304B07047EB
:1001B800704700BF03685A004CBF43F0004323F068
:1001C8000043184470472DE9F0470646174641B3E7
:1001D800013988464FF0000909EB080404EBD47490
:1001E800641006EBC4052846FFF7E4FFA1424FEA76
:1001F800C40A04D1B84204D82846BDE8F087B842FA
:1002080004D9A1450DD004F1FF38E5E70AF108004B
:100218003044FFF7CFFF0138B842EDD204F10109AD
:10022800DAE70025E8E7012806D0022806D00028EA
:10023800034818BF002070470248704702487047BB
:10024800490800084D080008510800081F4B37B539
:1002580004468D1E4BB101A92846AFF3008048B96A
:1002680000230920236103B030BD1948194B1B1A1C
:10027800DB10019301992A46FFF7A5FF01460028E4
:10028800EED0FFF797FF4B68A064012B1AD0002B24
:1002980001F1040010DBFFF78DFF0023C4E913030D
:1002A8000368002B0ADAC3F30360FFF7BCFF0346B9
:1002B8000028D5D00020D5E70123EFE7FFF77AFF24
:1002C8000346F7E700230520CCE700BF0000000045
:1002D8005C050108240601080368DA0710B504461E
:1002E80005D49B0700F1480018D500F0F9FB2368F6
:1002F800590703D404F1D00000F0FAFB23681A0769
:1003080003D404F5A87000F0FBFB2368DB0608D4CF
:1003180004F5E870BDE8104000F036BC00F0D8FBEA
:10032800E5E710BD092070470346006800B118448E
:100338007047704770B505460C46216C2846FFF794
:1003480085FF064608B101F0EDFB236C6B61224680
:100358002B692946012098470828EED00728F2D1B2
:100368003046216CFFF7E5FF201D00F0A5FB2DE9C5
:10037800F0470C1DD0F80C90D0F818A00746164688
:100388000FCCADF5727D03AD0FC50FCC0FC50FCCEB
:100398000FC594E80F000DF1080885E80F00002547
:1003A800C8F80050D8F840103846FFF74FFF093614
:1003B800F6B2044668BBD8F840307B614FF4F0725F
:1003C80041467AA80CF08FFC3B697AAA3946304638
:1003D8009847889B0546C8F844303A46CDE9008AD4
:1003E8003B4631460120C847C0B9C4B94FF4F07242
:1003F8007AA940460CF077FC082D2646D2D0072D66
:100408000CD12046D8F84010FFF793FF03A800F05E
:1004180053FBD8F8383046F01006DCE709242046AC
:100428000DF5727DBDE8F087406C7047F0B5CB6B79
:100438000B640D1D06460F460FCDF9B001AC0FC475
:100448000FCD0FC40FCD0FC495E80F0084E80F003F
:100458004FF0FF33009310993046FFF7F7FE78B955
:1004680033696A463146984708280446F3D06846F7
:10047800FFF732FF062C03D139463046FFF75AFF03
:10048800092079B0F0BD10B48261DA6BC16010BC8C
:100498001A64194600226AE770B5C66843690B6496
:1004A80004460D4626B10122FFF761FF01F03AFB31
:1004B80003690A46014602209847072805D00828FC
:1004C800F4D129462046FFF735FF3046296CFFF75F
:1004D80030FF281D00F0F0FAC26802B9A6E7CA6B1F
:1004E8000A64002243E77047836801460BB1012084
:1004F80018477047012910B50446084605D005D9A4
:10050800C81E01288CBF0220012010BD43B90F2A44
:1005180006D804EB8204029A616811601846F4E771
:100528000220F2E71FB503AB009300230A461946E1
:10053800FFF7E0FF039805B05DF804FB012910B54B
:100548000446084605D005D9C81E01288CBF0220DC
:10055800012010BD43B90F2A06D8029904EB820482
:10056800096861601846F4E70220F2E71FB503AB9B
:100578000093002303920A461946FFF7DFFF05B0F0
:100588005DF804FBF0B5D36B1364141D06460F46E3
:100598000FCCADF50F7D17AD0FC50FCC0FC50FCC28
:1005A8000FC594E80F0085E80F004FF0FF3316934E
:1005B80026996846FFF74AFE90B90C2116A86A46A4
:1005C800FFF7D4FF394616A8B04748B9049B16AAC6
:1005D8006946082098470528044602D00928E7D12B
:1005E800092416A8FFF778FE20460DF50F7DF0BD0B
:1005F8002DE9F04FCD6C87B0174655F8042B0495BC
:100608000C4600F003099A463BBB12028DF81530E0
:10061800039203238DF81430236DB9F1020F08BF3C
:10062800A56B13F0010322D100F0080800932B6892
:1006380043BB03A9384600F08AFC002840F0FB8041
:10064800009BDBB10F213846FFF76CFF0E210246F5
:100658003846FFF78BFF794A55E0130C8DF81530B3
:100668001204DBB205EB830503920223D2E703A948
:10067800384600F06CFC002840F0DD80082007B008
:10068800BDE8F08FBAF1020F0CBFD5F804B0B5F889
:1006980002B0A26C18BF2B8801930CBF05F10806A5
:1006A8002E1D0F212BF0010538461544FFF73AFFA0
:1006B8008542019B29D823F001022A44824294BF33
:1006C800002201224FEA4B0000F0020003F0010370
:1006D80040EA0305012D1AD0022D5ED0002D40F00E
:1006E800AA80351DB9F1000FA1D0002A9FD030464D
:1006F800FFF760FDA56306462046AFF3008000289B
:1007080000F0998032460F213FE00022DAE7B9F184
:10071800000F26D1002A3DD073683268991C4FEA31
:10072800D27200F0888004F158010133029109D097
:10073800301DFFF7F9FD02AB01462046AFF30080FC
:10074800054638B30D213846FFF7ECFE022D029B13
:10075800206202D1E36204F12C03C4E909360620C1
:100768008DE70D213846FFF7DDFE256A854211D158
:10077800A36A9E420ED13046FFF71CFD0F210246A8
:100788003846FFF7F3FE224600213846FFF7EEFE13
:10079800072074E706F1080549E7356825F00045A4
:1007A800B9F1000F2AD1A2B1B8F1000F19D085B95B
:1007B800CB4617E00BF1010B019B029306EB8B0074
:1007C800FFF7B2FD0022014602AB2046AFF30080DE
:1007D80058B13368002B00DA0436013506EB85057D
:1007E80025E7C34604F158030193AB45E2D10D2137
:1007F8003846FFF797FE029B2062AEE70D21384688
:10080800FFF790FED4F820B08345E2D1A36A9E4258
:10081800DFD14FF0000B0423C4E90BB3F318A56232
:10082800636333685B4503DA681C06EB8000A3E763
:1008380001230093D1E7092021E700BF0000000051
:100848000023D5E60123D3E60223D1E62DE9F041C2
:100858000546C2B014461E46042925D8DFE811F023
:1008680005001C002400D6000401EEB9836B92B287
:100878000121043001FA06F717421CBF53F8047B24
:1008880040F826700136102EF4D1A60400D4AB63CC
:10089800002042B0BDE8F081012E4FEA124794B221
:1008A80004D13B19102B41D90220F2E7052EFBD1C8
:1008B80007EB0408B8F1200FF6D80F2F4DD9002CFC
:1008C800E6D003685807A04608D5284623F0040355
:1008D80040F8D03B00F010F90F2F48D9684600F0D7
:1008E8000BF9AB6B102F3A4642A938BF102201EB27
:1008F800C2024FEA4808A2F5C47208F1FF38101F77
:100908004FEA880102EB88021C4654F804CB40F8F1
:1009180004CF8242F9D10A1D012E134417D00F2F9C
:10092800AB636FD9684600F0E3F8B1E7102FBBD08E
:100938000368DA0705D523F0030340F8483B00F0C5
:10094800CBF820A800F0C8F8AB6B002C3FD10433DB
:10095800AB6320A800F0BCF89AE7B8F1100F036861
:100968002DD9DC07A8F1100842D45807ADD420A827
:1009780000F0BAF8C7F11004684600F0BDF864004A
:1009880020AAAB6B02EBC702013C101FA10002EBCF
:1009980084021C4654F804CB40F804CF9042F9D1A5
:1009A8000A1D1344B8F1000F9CD1012ECFD00F2F90
:1009B800AB633FF66DAF20A800F092F868E7D9075F
:1009C8000DD420A800F090F8AB6B002CF3D0640095
:1009D80020AA02EBC702013C4FF00008D5E723F03C
:1009E800010343F0020340F8483B00F07DF8E8E7D4
:1009F80023F0010343F0020340F8483B00F074F889
:100A08002B68B2E720A800F06BF88BE7032E7FF481
:100A18004BAF97B207EB1244102C4FEA12463FF641
:100A280043AF0368190706D523F00803036000F5F0
:100A3800A87000F087F820A800F084F8AA6B20AB13
:100A480003EBC603F900D41A03EBC707BB4203EB59
:100A5800040005D10A44AA6320A800F051F817E75A
:100A6800006843F8040BF1E7002E7FF41DAF102A4D
:100A78003FF61AAF0368DA0606D523F010030360C1
:100A880000F5E87000F08AF820AE304600F086F8ED
:100A9800AB6B0022012101FA02F020421CBF53F87F
:100AA800040B46F822000132042AF4D1AB63304625
:100AB80000F06AF8ECE600BF00F1340191E8380074
:100AC8009C46A6464CF8045D90E8FF0FE54600BD3D
:100AD80090EC210B704700BF80EC210B704700BFE2
:100AE80090EC200B704700BF80EC200B704700BFD4
:100AF800D0EC200B704700BFC0EC200B704700BF44
:100B0800F0EC0201F0EC0211F0EC0221F0EC023101
:100B1800F0EC0241F0EC0251F0EC0261F0EC0271F1
:100B2800F0EC0281F0EC0291F0EC02A1F0EC02B1E1
:100B3800F0EC02C1F0EC02D1F0EC02E1F0EC02F1D1
:100B4800704700BFE0EC0201E0EC0211E0EC02218A
:100B5800E0EC0231E0EC0241E0EC0251E0EC026131
:100B6800E0EC0271E0EC0281E0EC0291E0EC02A121
:100B7800E0EC02B1E0EC02C1E0EC02D1E0EC02E111
:100B8800E0EC02F1704700BFB0FC0181B0FC0191BC
:100B9800B0FC01A1B0FC01B1704700BFA0FC01810D
:100BA800A0FC0191A0FC01A1A0FC01B1704700BF0D
:100BB800EC4600B52DE900502DE9FF1F4FF000036A
:100BC8002DE90C0001A9FFF731FCDDF840E012B077
:100BD800704700BFEC4600B52DE900502DE9FF1F16
:100BE8004FF000032DE90C0001A9FFF755FCDDF8D3
:100BF80040E012B0704700BFEC4600B52DE9005048
:100C08002DE9FF1F4FF000032DE90C0001A9FFF7A4
:100C180063FCDDF840E012B0704700BFEC4600B559
:100C28002DE900502DE9FF1F4FF000032DE90C00BE
:100C380001ABFFF728FCDDF840E012B0704700BFB9
:100C4800EC4600B52DE900502DE9FF1F4FF00003D9
:100C58002DE90C0001AAFFF795FCDDF840E012B081
:100C6800704700BF2DE9F04786468C460846089E27
:100C7800154674461946002B40F0C2808542B2FAE8
:100C880082F245D94AB1C2F1200300FA02FC2EFAD9
:100C980003F3954043EA0C0C94404FEA154EA8B272
:100CA800BCFBFEF8230C0EFB18CC08FB00F943EA4A
:100CB8000C43994528D9EB1808F1FF3704D2994518
:100CC80002D9A8F102072B44A3EB0903A4B2B3FB92
:100CD800FEFC0EFB1C330CFB00F044EA0344A0426C
:100CE80014D92C190CF1FF3304D2A04202D9ACF16B
:100CF80002032C44241A43EA07401EB1D4400023BF
:100D080034607360BDE8F0874746DDE76346F1E786
:100D180092BB431B01214FEA154EAFB2B3FBFEFC59
:100D2800200C0EFB1C330CFB07F840EA03439845E4
:100D380062D9EB180CF1FF3004D2984502D9ACF116
:100D480002002B44A3EB0803A4B2B3FBFEFC0EFB8A
:100D58001C330CFB07F744EA0344A7424ED92C196D
:100D68000CF1FF3304D2A74202D9ACF102032C44A0
:100D7800E41B43EA0040C0E7C2F1200320FA03F174
:100D8800954090402EFA03F303434FEA154EAFB255
:100D9800B1FBFEFC0EFB1C10190C0CFB07F841EA1A
:100DA8000041884504FA02F422D969180CF1FF3091
:100DB80004D2884502D9ACF102002944A1EB08010C
:100DC8009BB2B1FBFEFC0EFB1C110CFB07F743EAC0
:100DD80001439F420ED9EB180CF1FF3104D29F4218
:100DE80002D9ACF102012B44DB1B41EA004192E736
:100DF8006046E3E76146F7E76046A3E76346B7E77F
:100E0800834206D916B9002108467BE7C6E900E007
:100E1800F9E7B3FA83F78FB9834201D3724508D84B
:100E2800BEEB020460EB030301209C461EB90021BF
:100E380068E73846FAE7C6E9004CF8E7C7F1200C3E
:100E4800BB4022FA0CF41C432EFA0CF120FA0CF3E6
:100E5800B84001434FEA14490EFA07F5B3FBF9F815
:100E68001FFA84FE09FB18300B0C08FB0EFA43EA44
:100E780000439A4502FA07F240D9E31808F1FF3017
:100E880004D29A4502D9A8F102002344A3EB0A032D
:100E980089B2B3FBF9F809FB183308FB0EFE41EAE7
:100EA80003418E452CD9611808F1FF3304D28E45D1
:100EB80002D9A8F10203214443EA0040A0FB0298AA
:100EC800A1EB0E014145CE46434602D306D14D451E
:100ED80004D2B9EB020E68EB04030138002EA6D049
:100EE800B5EB0E0261EB030101FA0CFC22FA07F3E1
:100EF8004CEA0303F940C6E9003198E74046C5E7E4
:100F08004346D9E7027A03467AB9427A82B1013A6E
:100F180042724268111D12680260416003221A720F
:100F28001A68100E12021A607047013AD2B2F6E738
:100F3800B02070471FB503AB009300230C2219465D
:100F4800FFF7D8FA039805B05DF804FBF2E72DE93E
:100F5800F043054685B00E464FF000083046FFF7CF
:100F6800D1FFB028044615D1B8F1000F0ED103AC5B
:100F780043460E22414600942846FFF7BBFA0094E8
:100F880043460F2241462846FFF7D8FA002005B00D
:100F9800BDE8F08302061DD4002303AF4FEA8009A1
:100FA800194600970D222846FFF7A4FA5FFA89F937
:100FB800039B09F1040914F0400F14BFA3EB0903C4
:100FC8004B440393009700230D2219462846FFF748
:100FD800B5FAC3E700F0F003802B18D104023046BD
:100FE800FFF790FF0443B4F5004F01D10920CEE785
:100FF80024010023A2B219462846FFF727FC00283F
:10100800F4D114F4004F18BF4FF00108A6E7902B55
:101018000DD100F00D030D2BE8D003AF002300F035
:101028000F02009719462846FFF764FACAE7A02B73
:1010380013D1C34303F007034FF47F621A41030738
:1010480002F47F6201D542F4804200231946284603
:10105800FFF7FCFB002881D0C8E7B02B46D1B128A8
:1010680008D13046FFF74EFF431EDBB20E2B024677
:10107800EBD9BBE7B22820D1002303AC0D221946D7
:1010880000942846FFF736FA3046FFF73BFF022761
:1010980000F07F0110F08003039A01FA07F105D1EF
:1010A80002F501720A44039200948DE70A4430461F
:1010B80003920737FFF726FFEAE7B3280BD130463C
:1010C800FFF720FF020300F00F0002F47022013046
:1010D80001230243BAE700F0FC03B42B86D000F0EA
:1010E80007020132012342F40022AFE7C02B44D1AA
:1010F800C6280AD13046FFF705FF020300F00F00AB
:1011080002F4702201300323E3E7C7280BD13046ED
:10111800FFF7F8FE431EDBB20E2B02463FF666AF22
:101128000023042193E700F0F803C02B06D100F058
:101138000F020132032342F4202287E7C8280DD189
:101148003046FFF7DFFE00F0F00200F00F0010322B
:101158000130052340EA0232012178E7C9287FF4EB
:1011680045AF3046FFF7CEFE020300F00F0002F451
:101178007022013005230243EEE700F0F803D02B7C
:101188007FF434AF00F007020132052342F4002255
:10119800E2E71FB503460846DA6C536808321902BD
:1011A800019102921B0E032201A98DF80C208DF8E3
:1011B8000D30FFF7CCFE05B05DF804FB08B5FFF76E
:1011C800C5FE806C08BD08B5FFF7C0FEC06CC379CA
:1011D800023300EB830008BD38B5836805699C6954
:1011E8007CB112F4000F06D02D6801238B401D42FC
:1011F80001D082F0C062044B134002F01662A0478F
:1012080038BD6FF05700FBE74000000600B50FF04F
:101218008FF9024B18585DF804FB00BF0800000066
:1012280008B5024B1B68984708BD00BF00000020A6
:10123800014B1860704700BF0000002000B585B062
:101248000A460023009301930293039302238DF827
:101258000230044B01930146684605F0B1F905B028
:101268005DF804FB2912000870B506460D460024F7
:1012780004E0044B1B68305D98470134AC42F8D356
:1012880070BD00BF0000002080B505460E46174619
:10129800984602F011FB03460FF04AF90446DFF8BE
:1012A800189049F80030424639463046A84754F865
:1012B800090000F02DFA00BF08000000034A536837
:1012C80043F0020353600020704700BF002004E091
:1012D800084B1A6842F480721A601A6842F4007265
:1012E8001A601A6842F480621A60034B034A1A6053
:1012F800704700BF003C02404C0000200024F4006E
:10130800014B036000207047B80B010808B5034B78
:101318001B68984700F02EF808BD00BF04000020A5
:1013280030BFFFF7FDBF00BF38B50446054D2A465C
:1013380005490BF0D8FC054A002160190BF057FC51
:1013480038BD00BF00000000B40A01080800000012
:1013580070B50646054D064B1D444C1B2046FFF74D
:10136800E3FF083C346705F1080070BD0000000089
:1013780008000000054B5A699B689A4204D0044A49
:10138800536843F080535360704700BF7C040020CB
:1013980000ED00E038B51546204B9B6A13F4805FDA
:1013A80019D116241D4B9B6A13F4006F00D0182422
:1013B8001A4B9B6A13F4007F10D0184B9A6B9B6AE8
:1013C80013F4004F09D0D9B1144A936A23F40043A7
:1013D8009362192402E01724E4E719240F4B9B6A4F
:1013E80013F4806F00D01A240C4B9B6A13F4807F8F
:1013F80008D10A4B9B6A13F4005F04D01C2402E056
:101408001924EBE71B24054A936A43F47F4393624C
:10141800012105F018FE2870204638BD00ED00E0D7
:10142800174B9B6A13F0007F25D11D20144B9B6A34
:1014380013F0807F00D01F20114B9B6A13F4002FFC
:1014480000D021200E4B9B6A13F4802F00D022205D
:101458000B4B9B6A13F4003F00D02320084B9B6A78
:1014680013F4803F09D1064A936A6FEA03436FEA8F
:101478001343936270471E20D8E72420F3E700BF88
:1014880000ED00E081690D4B5A6942F480725A619F
:10149800BFF34F8FBFF36F8F31F8021C5A6922F4E4
:1014A80080725A61BFF34F8FBFF36F8F4DF602738F
:1014B800994201D0002070470120704700ED00E0FC
:1014C80070B504461646324B9B6A13F0100F1AD1BA
:1014D80010252F4B9B6A13F0080F00D012252C4BB8
:1014E8009B6A13F0020F10D0294B586B9B6A13F0BC
:1014F800800F3DD000293FD0254A936A23F080030E
:101508009362132503E01125E3E76FF01500204BE4
:101518009B6A13F0010F00D014251D4B9B6A13F032
:10152800200F00D015251A4B9B6A13F0100F04D119
:10153800174B9B6A13F0020F04D0154B5B6813F42A
:10154800006F1BD1124B9B6A13F0200F04D0104A76
:10155800536A23F4005353620D4A936A43F0FF031E
:1015680093620121204605F06EFD3070284670BD5B
:101578006FF015001325CAE71325C8E7214600F0C8
:1015880089F90028DED080F309880225DAE700BF50
:1015980000ED00E038B5054600230B701A4BD86AF9
:1015A80010F002002DD10C46DB6A002B2ADB164B0B
:1015B800D86A10F0804025D02846FFF763FF08B1AD
:1015C80028681FE0104B9B6A13F0FF0F0DD10E4BDC
:1015D800986A10F47F400ED10B4B9B6AB3F5803F9D
:1015E80010D32846FFF71CFF0CE0224601212846AD
:1015F800FFF766FF06E0224601212846FFF7CAFEEC
:1016080000E0002038BD00BF00ED00E030B58BB031
:101618000C46264B5968C1F30801002383F311884F
:10162800BFF36F8F02F07F43B3F17F4F15D102F004
:101638000C03082B14D012F0080F0BD000250DF165
:101648002702204605F004FD86469DF8273053B151
:101658000BB030BD04460125F1E700252C46EEE726
:1016680000252C46EBE70DF1040C20686168A268A0
:10167800E368ACE80F0020696169A269E369ACE836
:101688000F0045B1C3F308025AB96FEA53236FEA52
:101698004323089305E0089B23F4FF7323F0010319
:1016A800089301A9704605F0BFFCD1E700ED00E002
:1016B800044B5A6942F010025A615A6922F0080232
:1016C8005A61704700ED00E0EFF30880EFF30981FD
:1016D80001B57246FFF79AFF01BD00BF0A4880F3C3
:1016E8000888102080F3118808484FF404614018D6
:1016F80080F30988EFF314800221084380F31488EB
:10170800BFF36F8F00F082F800390020400F0020EF
:1017180008B50A4B9B68834202D002F0D3F808BD93
:10172800EFF30583002BF8D0054B5A6842F080523E
:101738005A605A6A22F400425A62EEE77C0400209A
:1017480000ED00E014498A684FF030001044EFF3D0
:10175800098C80E8F01F102080F31288BFF36F8F88
:101768000E4F4FF000664A698A603E60106F0C4C5D
:101778002060506F0023536780F3118804B510462A
:1017880000F004F9BDE8044002F1300090E8F01FD1
:101798008CF30988704700007C04002004ED00E009
:1017A800200300201EF0040F0CBFEFF30880EFF3B6
:1017B8000980816911F8021C0229FFD001B572461F
:1017C80005F03BFC01BD00BF002807DB00F01F024D
:1017D800400901239340024A42F82030704700BF75
:1017E80000E100E0002808DB0901C9B200F160400F
:1017F80000F5614080F80013704700F00F00090100
:10180800C9B2014B1954704714ED00E008B50F4BED
:101818000F4A22F07F029A60BFF34F8FBFF36F8F9A
:10182800D3F8882022F47002C3F88820EFF31483D9
:1018380023F0040383F31488BFF36F8F01F03EF99C
:1018480002F09AF900F06AF801F0A0F900ED00E062
:101858000000000810B4A2F120040D4942F8081C49
:1018680021F0010142F8081C42F8203C019B42F893
:101878001C3C029B42F8183C039B42F8143C4FF076
:10188800807342F8043C04650023436710BC70472A
:10189800911200080E4B9B68A3B110F1160F0AD0E5
:1018A8001A6EA2F1400C84450ED882420ED98A42A3
:1018B80006D8002070471A6E8A4201D80020704767
:1018C800186E70470020704700207047002070474E
:1018D8007C04002008B50E461546094A9060026F40
:1018E800084B1A6000F052F82C4686F3098800204D
:1018F800054B98472046002100220023034C20472F
:101908007C04002020030020C17000089112000808
:10191800014B10221A61704700ED00E0002206E03A
:1019280003F00F030949194410230B760132512A99
:101938000ADC53B2002BF3DB03F1604303F5614388
:10194800102183F80013F1E7704700BFFCEC00E0BA
:1019580008B5EFF30583103B044A02EBC30149685D
:1019680052F833008847FFF705FD08BDC007010896
:1019780008B5034B034A0121034805F0E1FC08BD03
:101988000000022000000020B80B010808B5036E13
:10199800403B0548036040234360044B83600121BA
:1019A80005F0D2FC08BD00BF2403002000000B1581
:1019B800084AC2F898000B6823F01F03034343F05A
:1019C8001003C2F89C308B6843F00103C2F8A030C2
:1019D800704700BF00ED00E0084BD3F89030C3F328
:1019E8000723013B984205D810B50446FFF7E0FFEE
:1019F800204610BD6FF01500704700BF00ED00E0F5
:101A080010B5034C0123227805F09AFB207010BD15
:101A1800180F002008B500230B4A127805F090FB38
:101A280010F1160F0FD0024606E0084BC3F89820B5
:101A38000021C3F8A0100132044BD3F89030C3F34F
:101A480007239342F1DC08BD180F002000ED00E0E9
:101A5800044B0522C3F89420BFF34F8FBFF36F8F59
:101A6800704700BF00ED00E0BFF35F8F024B00221C
:101A7800C3F89420704700BF00ED00E038B51C4B58
:101A88001D681C4BD3F89030C3F307239D422BD815
:101A9800FFF7EAFF002409E0154B5B6804EB4401FB
:101AA80003EB81012046FFF783FF0134A542F3D8F9
:101AB8001148057005F06CFB10F1160F13D00E4B92
:101AC8001A780C4BD3F89030C3F307239A4207DAFD
:101AD800084BC3F898200021C3F8A0100132F0E7A2
:101AE800FFF7B6FF002038BD4FF0FF30FBE700BF1F
:101AF800C40B010800ED00E0180F002008B5024BE8
:101B08001B689847002008BD30030020034B18606D
:101B1800034A937843F00203937070473003002020
:101B28000800002008B5054805F06FFA002383F384
:101B38001188BFF36F8F0423184602DFF40B0108E6
:101B480008B54FF0FF324FF0FF33024805F005FCAF
:101B580008BD00BF1800002008B5064921F007019C
:101B6800C1F1005202F50032034805F00AFA0020DC
:101B780008BD00BF873D00203403002038B5044667
:101B8800FFF7DEFF22460821084805F083F90546DD
:101B980020B1074801F0B8F8284638BD002CF8D025
:101BA8000EF0C6FC034B0C221A50F2E73403002057
:101BB800180000200C00000010B50446FFF7C0FF15
:101BC8002146034805F022F9024801F09DF810BDAE
:101BD800340300201800002070B50546002401E0F9
:101BE8000134E4B26B78A34215D32B782344DAB2DC
:101BF80001209040084A526930EA0202F0D1064AB0
:101C08005061064A52F83360002EE9D002EBC30354
:101C18005968B047E4E770BD003C0140400300202C
:101C280000B583B0002300930193BDF8003044222F
:101C380062F30B03ADF800304FF48043019304487E
:101C480083681B686946984703B05DF804FB00BFCA
:101C5800BC060108002399420ADD10B400EB030C0E
:101C6800044C04F80C2001339942F7DC10BC70478F
:101C7800704700BF2C0000205FFA81FC0CF10202C3
:101C88000A4B53F822200B0C22EA114193FAA3F3D2
:101C98004BB1B3FA83F3984001430CF1020C034AA9
:101CA80042F82C1070472023F5E700BF00380140A8
:101CB800C3B20233074A52F82320030C02EA104049
:101CC80093FAA3F31BB1B3FA83F3D84070472023E8
:101CD800FBE700BF0038014008B5034668B1B0FA19
:101CE80080F2C2F11F02D2B205498856054A11682E
:101CF8000B43136005F0CFF908BDFF22F4E700BFDE
:101D08002C000020003C0140024A136823EA00032B
:101D180013607047003C0140032926D8DFE801F032
:101D2800020C151E114B9A6822EA00029A60DA68C2
:101D380022EA0002DA6070470C4B9A6802439A6004
:101D4800DA6822EA0002DA607047084BDA68024370
:101D5800DA609A6822EA00029A607047034B9A6830
:101D680002439A60DA681043D8607047003C01402B
:101D780010B498B1B0FA80F3C3F11F03DBB29C46EC
:101D88000D4850F8330088420AD088B90A4B43F806
:101D98003C1003EBCC035A6010BC7047FF23EEE7FE
:101DA800054C04EBC3035B689342EED10020F3E7D4
:101DB8006FF00F00F0E700BF4003002060B1B0FAF9
:101DC80080F3C3F11F03DBB2044A002142F8331049
:101DD80002EBC30251607047FF23F5E74003002080
:101DE8000C4B1B6813F0020F09D10A4A136843F021
:101DF80001031360074B1B6813F0020FFAD0054A62
:101E0800936823F003039360024B9B6813F00C0F55
:101E1800FAD17047003802400C4B1A6822F480222D
:101E28001A601A6842F480321A60084B1B6813F46F
:101E3800003FFAD0054A536F43F001035367034B41
:101E48005B6F13F0020FFAD0704700BF00380240F2
:101E5800F8B50C461546454B1E680421304605F07A
:101E6800EFFA07460221304605F0EAFA2388C3F361
:101E78000B021346442A29D812B2002A6ED0013B1D
:101E8800432B6ED8DFE803F03D5D6064673F496D22
:101E98006D536D6D6D6D6D6D6D6D6D6D6D6D6D6D84
:101EA8006D6D6D6D6D6D6D6D6D6D6D6D6D6D6D6D5A
:101EB8006D6D6D6D6D6D6D296D6D6D296D6D6D3708
:101EC8006D6D6D6D6D6D6D396D6D6D3BA82A01D1B0
:101ED8002E6003E06FF0850045E02E602368B3F5BF
:101EE800805F41D32A68C3F313330133B2FBF3F2A3
:101EF8002A60002037E02E60F0E72F60EEE72860C8
:101F0800ECE72E60EAE700F0E5F802234FF4A87248
:101F1800082105F08EFA2860E0E700F0DBF80723D7
:101F28004FF4A872082105F084FA2860D6E700F07B
:101F3800D1F8022340F20F12082105F07AFA28603E
:101F4800CCE700232B60C9E74FF4FA432B60C5E7C1
:101F580000232B60C2E7064B2B60BFE76FF08500BC
:101F680001E06FF08500F8BD0020FCE74C00002080
:101F780000127A0010B51D4B9B6803F00C03082B68
:101F88002CD01A4A136823F080731360174B1B6810
:101F980013F0007FFAD1154C636823F44033636073
:101FA800636823F0706343F0E063636000F096F8C1
:101FB800236843F0807323600C4B1B6813F0007F89
:101FC800FAD005F0D6FA094A136843F08063136023
:101FD800064B1B6813F0006FFAD010BDFFF700FF27
:101FE800024A936823F0F0039360CAE7003802407E
:101FF80038B500F095F8214C204605F0B6FA00F007
:10200800B5FB1F4B9B68C3F303131E4AD35C20FA2E
:1020180003F513781C41A54228D3FFF7FDFEFFF70F
:10202800A9FF174A936823F0F0039360936823F09D
:10203800030343F002039360114B9B6803F00C0306
:10204800082BF9D1A54215D20F4B0C4A1A600C4A3D
:10205800936823F4E05343F4A0539360936823F404
:10206800604343F400439360002038BD204600F0ED
:10207800EBFBD2E7204600F0E7FBE5E7007A030A2E
:1020880000380240480E01084C00002030B500F02E
:10209800800E0D4D5EF8054024F4800C20F0800081
:1020A8004CEA00004EF80500084C606820F03F003C
:1020B80008436060D4F884000549014043EA82136C
:1020C8001943C4F8841030BD043802400038024077
:1020D8003F80FF8F0048704700127A0008B505F06E
:1020E80045FA0B4B59680B4A0A4040F4A84141F0A5
:1020F80008010A435A605A6822F440325A60596803
:10210800054A0A40054901430A435A6008BD00BF11
:10211800003802400080BFFF0080BFF0085400076D
:1021280082B0064B1A6C42F080521A641B6C03F0A2
:1021380080530193019B02B0704700BF00380240F2
:1021480010B504460A2806D0E1B2064883685B68E1
:102158009847204610BD034883685B680D2198475F
:10216800F2E700BFAC07010810B5044C2046FFF7A2
:10217800CDFC2046FFF75CF810BD00BF49210008E0
:1021880008B5054805F085FE18B1FFF7EDFF0020FA
:1021980008BD6FF01200FBE7AC07010808B54368FB
:1021A80031B107488268126803F10C01904708BDF5
:1021B80003488268526803F10C019047F7E700BFB3
:1021C800BC0601082DE9F8430F4614461D46D0F811
:1021D8000480D0F81090D8F8080005F00CF90646ED
:1021E800B4F1026F14D0B4F1046F15D0B4F5001F28
:1021F80016D0B4F5800F35D0B5F1806F2ED0B5F17B
:10220800C06F2DD0B5F1007F11D06FF0150422E01A
:10221800FFF77AFD00241EE0FFF75EFD00241AE0B8
:102228003946D8F8080005F0AAFB002413E0022577
:102238004A460F493046FFF79BFD0446A8B9D8F82F
:102248000810384605F0DAF829463046FFF764FDED
:102258003046FFF741FD2046BDE8F8830125E7E752
:102268000325E5E76FF08504F5E76FF00F04F2E763
:102278005576000810B5044603695860074805F00C
:1022880008FE38B101212046FFF788FF002800DB4F
:10229800002010BD6FF01200FBE700BFBC0601086C
:1022A800B0F5887F17D2F8B504460D4616460309DF
:1022B8000A4A52F823705FB1384605F0EAFD38B192
:1022C80033462A4604F00F01384605F070FBF8BD86
:1022D8006FF01200FBE76FF015007047900D0108D2
:1022E80010B50446B2F5004F2FD04FF0000C481837
:1022F8004CEB0C0C40184CF1000C4FEACC0C4CEA9F
:10230800507CC00040184FEA83024FEA93734CF1A7
:102318000001FDF735FF2449A1FB00235B091A01E1
:1023280092B24FF0640C0CFB13031B013233A1FB78
:102338000313C3F34F1303F0F0010A4492B203F0FE
:102348000F0313449BB2A36010BD4FF0000C481854
:102358004CEB0C02401842F10002D20042EA5072E3
:10236800C000401842F10001DA184CEB0C03FDF7ED
:1023780007FF0D49A1FB00235B091A0192B24FF038
:10238800640C0CFB1303DB003233A1FB0313C3F310
:102398004F13590001F4F8710A4492B203F007038D
:1023A80013449BB2A360CFE71F85EB512DE9F041A1
:1023B8000C4643681D6803695E680B79012B58D089
:1023C800022B59D14FF480676279012A59D0022A29
:1023D80059D0002A52D04FF4005194F806E0BEF1CB
:1023E800040F53D0002B54D14FF00008A3F1030C75
:1023F8005FFA8CFCBCF1010F5BD913B1BEF1040F7D
:102408005AD0B1F5805F49D0B1F5405F48D0002976
:1024180042D003239A4252D1B8F1000F42D1002F83
:1024280045D103239E454DD1E37983B1012B4CD18E
:10243800294B9D420BD0A3F54C439D4207D003F591
:1024480080639D4203D003F54C439D4240D1EB6825
:1024580023F40053EB60214605F069FBEB6843F475
:102468000053EB6094E8030086E803000020BDE811
:10247800F0814FF4C067A7E70027A5E74FF4805124
:10248800ABE70021A9E74FF44051A6E74FF4805885
:10249800ACE74FF48058A9E70123BBE70023B9E76D
:1024A8000223B7E70FB90423BCE70323BAE70223E3
:1024B800B8E76FF08500DAE76FF08500D7E76FF0CF
:1024C8008500D4E76FF08500D1E76FF08500CEE78F
:1024D8006FF08500CBE700BF0010014008B5024A45
:1024E80005F0F9FB08BD00BF4D7D000808B5024A9C
:1024F80005F00BFC08BD00BF537D000838B54568E2
:1025080004690748206005F0C4FC28B12068836886
:102518001B68E968984738BD6FF01200FBE700BFF9
:10252800BC0601084FF0E023996918699A6909B94E
:102538000C4B19680AB90B4B1A6810F4803F01D18B
:10254800914208D208490B680648006803440B60AA
:102558004FF0E0231B69034B1B689B1A024A106863
:102568001844704778040020740400200A4B102295
:1025780083F82320094B44F2A0121A600020084B6C
:1025880018604FF0E02344F29F125A6198611A696B
:1025980042F007021A61704700ED00E0780400205D
:1025A80074040020684620F007018D4619B5FFF72E
:1025B800B9FF12480368124A516814681B1941F19F
:1025C800000113605160002202600E490A68981ADF
:1025D8000D4BA3FB0030800B44F2A01300FB03F368
:1025E800D2184B6843F100030A604B6001F092FB7C
:1025F800FEF7C0FEBDE81940854670477404002008
:1026080088000020800000202D34A9F9F8B50029A1
:102618004BD0B0F1FF3F3DD03E4B1C6801284CDD4C
:1026280040F2E6339842A8BF1846461EEFF31185DC
:10263800102383F31288BFF36F8FFFF773FF4FF0F8
:10264800E0239F69344A13685168C31841F10001B7
:10265800136051600021314A1160314A11685A1AD9
:102668002DD444F2A01000FB062202F583421F324B
:102678002C4EA6FB0262920BC91A00FB021140F213
:102688001A438B4238BF0B46274A914235D9214B12
:102698001A6018E04FF0E022136923F00103136178
:1026A8001C4B4FF07F421A6026E01A4B1C68B0F1B1
:1026B800FF3FB3D140F2E530B2E70026B6E7154B4D
:1026C80040F21A421A604FF0E0239969114A1268E1
:1026D800013A5A6100229A618F4211D2641A3C442D
:1026E8000D4A136851681B1941F1000113605160CC
:1026F80085F31188BFF36F8FF8BD064A1360E2E7D0
:102708007F1A054A13685168DB1941F1000113600B
:102718005160EDE778040020880000207404002050
:10272800800000202D34A9F92094FF0038B5EFF37C
:102738001185102383F31288BFF36F8F084B1C6831
:10274800084B1B68E41AFFF7EDFE204485F3118857
:10275800BFF36F8F044BA3FB0030800B38BD00BF65
:1027680088000020800000202D34A9F908B5334BDB
:102778009B6803F00C03042B5BD0082B5BD12F4B19
:102788005A6802F03F025B6813F4800F2CD02B4B81
:102798005868C0F388104FEA401CBCEB000C6EEB85
:1027A8000E0E4FEA8E1343EA9C634FEA8C11B1EB8D
:1027B8000C0163EB0E03DB0043EA5173C90011EB14
:1027C800000C43F10003590200234FEA4C2041EA70
:1027D800DC51FDF7D5FC194B5B68C3F301430133AA
:1027E8005B00B0FBF3F027E0144B5868C0F3881087
:1027F8004FEA401CBCEB000C6EEB0E0E4FEA8E133A
:1028080043EA9C634FEA8C11B1EB0C0163EB0E03B6
:10281800DB0043EA5173C90011EB000C43F10003DC
:10282800990200234FEA8C2041EA9C51FDF7A8FC4D
:10283800D1E7034800E0034808BD00BF0038024064
:1028480000127A000024F4000246002850D02A4BD7
:102858001B6813F480431DD0284B984204D8284B9A
:10286800984212D9002300E0052383B125498A4202
:1028780001D903B9032324498A4200D94BB123491A
:102888008A4207D933B9012304E00023EEE7042381
:10289800ECE702231849096811F4804F14D118494C
:1028A8008A4201D903B9042316498A4201D903B9D6
:1028B800032315498A4200D92BB114498A4203D906
:1028C80013B9012300E0022311490A6822F0070224
:1028D8001A430A6002210E4A126802F007020139FF
:1028E800934201D00029F6D1934203D001207047CA
:1028F80001207047002070470070004080D1F00828
:10290800000E2707804A5D050087930380C3C9012D
:10291800003C0240034B00E01433034A9342FBD3CC
:10292800704700BFBC060108C007010838B5EFF3BF
:102938001185102383F31288BFF36F8F054B9C68B2
:1029480005F0BFFA85F31188BFF36F8F2046FEF7B5
:10295800DFFE38BD7C04002038B505460A4B53F825
:10296800204002E02368984708346B1C064A52F856
:102978002330A34206D96368002BF3D0204605F024
:10298800A3FAF1E738BD00BF600E010810B586B0A4
:10299800104C04EBC01400EB400C00EB80000E4B15
:1029A80003EB800300220592012104910F2103917A
:1029B800029201920093094B4FF4A072084901EB6F
:1029C800CC11204600F040FB637B23F004036373C3
:1029D80006B010BD900000207C040020137F000882
:1029E8008017002008B553EA020102D100F040FF29
:1029F80008BD0249183001F007F9F9E7E38100083A
:102A080010B586B0184C14E0636A0593236A0493E2
:102A1800E3690393A36902936369019323690093AC
:102A2800E368A2686168206800F00EFB23685C65B3
:102A380030340E4B9C42E7D300F072FE0A4C00E0A3
:102A480030340A4B9C420BD2A26AE36AB3F1FF3FCF
:102A580008BFB2F1FF3FF3D02068FFF7C3FFEFE7ED
:102A680000F076FE06B010BD500A0108500A0108B1
:102A780008B50B4B01221A700320FFF76DFF01F018
:102A880085FA05F041FA0420FFF766FFFFF7B8FF63
:102A980003F0F3FF034A137B23F00103137308BD0C
:102AA800190F00201001002008B50146014A02480C
:102AB800FEF710FF792A00081001002008B5064823
:102AC800064A121A002105F017FA0548054A121A93
:102AD800002105F011FA08BD80000020200F002019
:102AE800000000100000001010B50446FFF74EFF6C
:102AF8000B4901EBC4110B4A04EB840302EB83037B
:102B0800D9601C7404EB4411074B03EB811303F5E4
:102B1800046304EB840402EB8402536010BD00BF1D
:102B2800900000207C040020400F002070B586B083
:102B380000F046FE104D114B5D61114B05930123CA
:102B48000493002403940294019400940D4B4FF4D1
:102B580000520D49284600F077FA06466B7B23F0B1
:102B680004036B73284605F0D0FA2046FFF7BCFF34
:102B7800304606B070BD00BF100100207C04002064
:102B8800580E0108792A00080019002008B500200D
:102B9800FFF7E2FE194B83F30888194C636943F485
:102BA80000736361F02384F822300023E3772376EF
:102BB8006376A37684F82030636A43F4E023636283
:102BC800FEF776FDFEF7A4FE4FF0FF33A362E36243
:102BD800FEF754FFFEF7CCFE0A4800F065FAFFF74F
:102BE80099FEFEF775FB0120FFF7B6FE0220FFF7FE
:102BF800B3FEFFF79BFFFFF757FF00BF80170020CA
:102C080000ED00E0900100202DE9F04182B004467B
:102C1800EFF31187102181F31288BFF36F8FC1681A
:102C280099B9002950D1364B9B6893F90E3023612E
:102C38000131E160324B9B68A36087F31188BFF3D1
:102C48006F8F002002B0BDE8F08116461D468268ED
:102C58002B4B9B689A42E4D055EA060136D092F98C
:102C68000E80414693F90E0005F05CF9804534DC8E
:102C78004FF000080096019522463946214800F099
:102C880075FC0028DED0EFF31185102383F312883A
:102C9800BFF36F8FA36843B323689C4223D013B359
:102CA800216993F90E0005F03DF90146204605F02B
:102CB80044F9E8B9B8F1000F1AD185F31188BFF3C8
:102CC8006F8F6FF00A00BDE72369B0E787F31188BB
:102CD800BFF36F8F6FF00F00B4E70146204605F091
:102CE8002CF98046C6E72169E0E7B8F1000FE4D087
:102CF8002946044800F0CAFC6FF00A00A2E700BFAA
:102D08007C0400209C040020F8B58368002B46D082
:102D18000446264A9268934244D1C368012B04D9D9
:102D2800013BC36000252846F8BDEFF31186102348
:102D380083F31288BFF36F8F016905F0FEF82768E7
:102D4800BC420CD03D1E18BF012557B9A760CDB9AC
:102D58000023E36086F31188BFF36F8FE3E7002752
:102D6800F0E77A683B6813605A6000233B607B6039
:102D78007A7B22F002027A73BB6007F1180005F033
:102D8800ABFAE3E797F90E3023610025BD673846B3
:102D980005F0BBF93146064800F078FCC3E76FF050
:102DA8001505C0E74FF0FF35BDE700BF7C040020E4
:102DB8009C040020F8B50446EFF31187102383F331
:102DC8001288BFF36F8F0568A84212D02E1E18BF55
:102DD800012685B906BBA368E268934223D0012285
:102DE8001344A360002303BB87F31188BFF36F8FDD
:102DF800F8BD0025EAE76A682B6813605A6000236B
:102E08002B606B606A7B22F002026A73AB6005F18B
:102E1800180005F061FADDE70023AB67284605F0E6
:102E280074F90123DFE70022DAE73946014800F0A8
:102E38002DFCDDE79C04002010B5C36823F00203D5
:102E4800C360134B1C687CB1236803B10CB100212B
:102E58000FE02346FBE722460D4805F080F804F111
:102E68000800FFF7A7FF10BD2346F0E71A461C46E7
:102E78001346002CF7D062688242ECD02146002B22
:102E8800F4D01A68002AF2D0002BF0D11A46EEE7E7
:102E98009C04002070B584B00546EFF3118610231A
:102EA80083F31288BFF36F8FD5F88040002C3FD092
:102EB8002368C5F88030D5F8842094424DD0D5F8E1
:102EC800983043F00203C5F89830E36843F00102F4
:102ED800E26023F0040343F00103E360636886F3D0
:102EE8001188BFF36F8F20469847EFF311861023A0
:102EF80083F31288BFF36F8FE36823F00103E36065
:102F080013F0100F44D1E36813F0020F44D1D5F841
:102F1800983023F00203C5F89830C3F3002386F3F2
:102F28001188BFF36F8F002BB7D100F051FCB4E7C5
:102F3800D5F8983023F00402C5F8982013F0040F50
:102F48000ED112F0100F14D00023C5F8983086F374
:102F58001188BFF36F8F04B070BDC5F88430AEE739
:102F680005F1900400220121204605F04BF90028C4
:102F7800F8D1002302934FF0FF324FF0FF33CDE931
:102F8800002305F188023146054800F04BFD84E72F
:102F9800204604F0F7FFB6E72046FFF74DFFB6E7F7
:102FA800A4040020F0B589B004460E9D0020C4F8A2
:102FB8008000C4F8840004F18800C4F88800C4F8CC
:102FC8008C0004F19000C4F89000C4F894002DB36C
:102FD800287928BB0120C4F898004FF0FF364FF03D
:102FE800FF37CDE906670020049003930290019013
:102FF80000940D4B204604F0FFFF55B1296811B12C
:10300800204604F0EBFF6B791BB1237B43F00103EF
:103018002373204600F02CFC09B0F0BD0120DAE74C
:1030280040F20110D7E700BF9D2E000808B553EA0B
:10303800020102D100F01CFC08BD0249183000F062
:10304800E3FDF9E7E3810008F0B585B004460E46D4
:1030580015461F4600F158038365C3650E9B04227D
:103068000D9904F0BEFF2A463146204604F093FF2E
:1030780005460C9B02930B9B01930A9B00933B46CE
:10308800024631462046FEF7E5FB00236365054B03
:103098009B6823B1DB6EE366284605B0F0BDE366A6
:1030A800FAE700BF7C040020012343730373002365
:1030B80003664366C366014B986070477C04002032
:1030C800094A936858676FF00A01996707494B687E
:1030D80043F080534B60002383F31188BFF36F8F55
:1030E8009368986F704700BF7C04002000ED00E0F3
:1030F800437B90F90D20002A51DB13F01F0F4ED1AE
:1031080010B563F07F034373254A52F8183F934282
:103118000ED100230CE05A684260036010605860CA
:103128001EE01A461E49C9698A420FD01B687BB146
:1031380073B190F90E1093F90E209142F1D0521A02
:10314800002AE8DC1A46002BECD1F0E70023EEE772
:10315800134BDA6903F11801016042601060D8610D
:103168000F4B53F8184F9C420ED06CB10C4B9B6818
:103178005A7B12F01F0F0AD1DA897F2A07D9A26970
:103188002AB9074A536109E0054BDC68EEE7A34218
:1031980002D0204600F090FC014B5C6110BD7047E6
:1031A8007C04002010B5437B90F90D20002A14DB25
:1031B800154B9A6853F8184F9C4219D0C4B18242F3
:1031C80019D0537B13F01F0F15D1D3897F2B12D938
:1031D800A36983B90C4B5A6114E003F07F0343736E
:1031E8004268036813605A60002303604360DFE7A6
:1031F800054BDC68E3E7A24202D0204600F05CFC05
:10320800014B5C6110BD00BF7C0400202DE9F0413A
:1032180005460C463D4B9E68737B13F0600F23D028
:1032280013F0200F25D008271F421DD13B4373738D
:1032380013F0800F1FD1082F28D04FF00008334B10
:1032480053F8186F9E4246D0002E44D02F4B9B68EF
:10325800B34202D0304600F02FFC2C4B5E61102F99
:1032680002D0B8F1000F39D184F31188BFF36F8F02
:1032780045E01027D8E703F07F037373726833685B
:1032880013605A60002333607360D4E7B3685BB19E
:103298007268336813605A60002333607360727B0E
:1032A80022F002027273B360304604F0FBFE06F1AE
:1032B800580004F0FCFE154B9B689E4202D04FF06C
:1032C8000008BCE7EFF3058313B94FF00008B6E731
:1032D8004FF00108B3E70D4BDE68B7E70C48FFF77E
:1032E800E3FEC1E7EFF31184102383F31288BFF3E1
:1032F8006F8F04F015FE84F31188BFF36F8F6B7B1B
:1033080013F0600FEED1BDE8F08100BF7C0400200F
:1033180090010020B3F1FF3F08BFB2F1FF3F00D199
:10332800704708B50249183000F06EFC08BD00BFB0
:10333800E381000810B5437B90F90D20002A0ADBD1
:10334800437B63F07F0343732B4A52F8183F934241
:1033580019D1002317E003F07F0343734268036821
:1033680013605A60002303604360E9E75A684260CB
:103378000360106058601EE01A461F49C9698A42F6
:103388000FD01B687BB173B190F90E1093F90E2022
:103398009142F1D0521A002AE8DC1A46002BECD1EF
:1033A800F0E70023EEE7144BDA6903F11801016036
:1033B80042601060D861104B9A6853F8184F9C42CD
:1033C8000ED06CB182420ED0537B13F01F0F0AD17E
:1033D800D3897F2B07D9A3692BB9074B5A6109E019
:1033E800054BDC68EEE7A24202D0204600F064FB01
:1033F800014B5C6110BD00BF7C0400202DE9F8433F
:103408000446594B9B68834221D0EFF31186102361
:1034180083F31288BFF36F8F657B05EA030715F006
:10342800100F45D1B04604F15809204604F006FEB5
:1034380000284BD045F040056573EFF30583002B5A
:103448003BD031462046FFF7E1FEBDE8F883EFF3B5
:103458000583002BD9D1EFF31185102383F312884C
:10346800BFF36F8F437B43F01002427303F07F0377
:1034780043F0100343734268036813605A600023E3
:1034880003604360384B53F8184F9C420DD064B129
:10349800354B9B689C4202D0204600F00DFB324B16
:1034A8005C612846FFF70CFECFE72F4BDC68EFE79F
:1034B80086F31188BFF36F8FC7E749462A4B986890
:1034C80004F0BEFD3046FFF7FBFDBEE7A7B945F0A7
:1034D8001003637313F0800F17D1234B53F8185F51
:1034E8009D421FD0F5B1204B9B68AB4202D02846C5
:1034F80000F0E2FA1C4B5D611B4B9B689C4214D0A8
:1035080086F31188BFF36F8F9FE705F07F0545F0BD
:10351800100565736268236813605A60002323608E
:103528006360DAE7104BDD68DDE7EFF30583002B16
:10353800E6D1237B13F0010F12D086F31188BFF375
:103548006F8F002383F31188BFF36F8F042318460E
:1035580002DFEFF31188102383F31288BFF36F8F14
:103568004046FFF7ADFD70E77C04002010B50C461F
:1035780011460A4882680A4B1A60EFF31183102338
:1035880083F31288BFF36F8FDDE90223806804F0AC
:10359800B0FD2046FFF794FD10BD00BF7C0400205D
:1035A800A40400202DE9F04104460E460023EFF361
:1035B8001185102282F31288BFF36F8F1F463FE0F8
:1035C8005A686260236014605C601CE01A462E48EA
:1035D800C06982420DD01B686BB163B193F90E20AC
:1035E8009142F3D0521A002AEADC1A46002BEED197
:1035F800F2E70023F0E7244BDA6903F118012160B0
:1036080062601460DC61204B53F8188F98450DD028
:10361800B8F1000F0AD01C4B9B68984502D0404671
:1036280000F04AFA184BC3F8148004E0164BD3F89C
:103638000C80F0E7A67385F31188BFF36F8F012321
:10364800F3B9637B03F01F02002A0CBF0127002790
:10365800F0D103F07F0363736268236813605A60D4
:1036680000232360636071B2A173637B63F07F03FF
:103678006373054A52F8183F9342AED10023ACE772
:103688003846BDE8F08100BF7C04002008B50B4631
:1036980059B9EFF3058242B9064A506992689042D7
:1036A80003D00846FFF70CFD03E083F31188BFF34E
:1036B8006F8F08BD7C04002010B5EFF31184102330
:1036C80083F31288BFF36F8F437B13F0100F09D079
:1036D80023F010034373FFF70BFD21460448FFF75F
:1036E800D5FF10BD84F31188BFF36F8FF9E700BFD2
:1036F800A404002008B5034650B9EFF305823AB98F
:10370800064A51699268914202D0FFF7D9FC03E05A
:1037180083F31188BFF36F8F08BD00BF7C040020BE
:103728000023EFF31181102282F31288BFF36F8F09
:1037380009E0064B9A68D37B013BD37381F3118868
:10374800BFF36F8F0123002BF3D070477C04002058
:1037580038B50023EFF31185102282F31288BFF3E6
:103768006F8F0EE0154BDC6817E0A24202D02046AE
:1037780000F0A2F9114B5C6185F31188BFF36F8FDC
:103788000123BBB90D4B9A68D17B0131D17353F832
:10379800184F9C42E6D0002CE4D0537B13F01F0F47
:1037A800E3D1D3897F2BE0D9A369002BDDD1034B6B
:1037B8005A61E1E704F017FD38BD00BF7C04002022
:1037C80008B5024804F01AFD08BD00BF90040020A7
:1037D80038B5EFF31184102383F31288BFF36F8F8A
:1037E800224B9A68DB699A4205D0136851681268BF
:1037F8000A60516006E00023F8E71C4AD269934248
:1038080012D01B6893B1194A906890F90E1093F979
:103818000E209142F1D0521A002AEEDD5A68426019
:103828000360106058600AE00023EBE70F4B9A68CA
:10383800D96903F11800106051600A60DA610B4B16
:1038480053F8185F9D420DD065B1084B9B689D42A7
:1038580002D0284600F030F9044B5D612046FFF79E
:103868002FFC38BD014BDD68EFE700BF7C0400206A
:1038780038B5EFF31185102383F31288BFF36F8FE8
:10388800437B13F0040F04D185F31188BFF36F8FC6
:1038980038BD0446183004F01FFD637B23F0040391
:1038A80063732046FFF724FC29460248FFF7EEFE23
:1038B800EEE700BFA4040020014B9868704700BFE2
:1038C8007C0400202DE9F843037B03F00107EFF3A4
:1038D8001186102383F31288BFF36F8F457B15F091
:1038E800080F1AD10446B14600F1580804F0A6FBA7
:1038F80010B345F020056573EFF305839BB131469E
:103908002046FFF783FC67B1002383F31188BFF3D8
:103918006F8F0423184602DF03E086F31188BFF394
:103928006F8FBDE8F88341463C4B986804F088FBEC
:103938003046FFF7C5FBE6E745F00803637313F06D
:10394800800F30D1A3685BB16268236813605A6046
:10395800002323606360627B22F002026273A3602B
:1039680004F1180004F0B8FC404604F0A0FB2B4B0F
:103978009A68944224D00026284B53F8185F9D4239
:1039880025D025B3AA4202D0284600F095F8234B4B
:103998005D61FEB9214B9B689C421FD089F3118859
:1039A800BFF36F8FAFE705F07F0545F00805657336
:1039B8006268236813605A60002323606360C1E76C
:1039C800EFF305830BB90026D6E70126D4E7134B9E
:1039D800DD68D7E71248FFF767FBDBE7EFF30583FE
:1039E800002BDBD1237B13F0010F12D089F3118850
:1039F800BFF36F8F002383F31188BFF36F8F042306
:103A0800184602DFEFF31189102383F31288BFF3FE
:103A18006F8F4846FFF754FB75E700BF7C04002012
:103A2800900100202DE9104883B0089CDDE906BC10
:103A3800CDE900BCFFF79AFD1CB1034B9B681B69DD
:103A4800236003B0BDE810887C040020044BC01A32
:103A5800C010044B03FB00F0034B01221A547047BB
:103A680010020020ABAAAAAAA8040020C3897F2BB1
:103A780011D80E4B1B687BB190F90E200C4B1B68BC
:103A88009A420CDB437B13F01F0F0AD1094B984273
:103A980009D0012300E0002303F001007047002350
:103AA800FAE70023F8E70023F6E700BFB004002098
:103AB800AC0400209000002070B505460D4B1E7C1C
:103AC80006EB46030C4C04EBC304204604F004FC4C
:103AD8000A4B00229A552846FFF7C8FF00B970BD67
:103AE800074B1A68013AD3170649204600F08CF8AC
:103AF800F5E700BF7C04002010020020A804002085
:103B0800B0040020553A000838B5EFF311851023AA
:103B180083F31288BFF36F8F144B9C68144B1B6898
:103B2800A34217D0124B00221A60104B1B7C114A7B
:103B3800D35C53B12046FFF799FF30B1637B13F094
:103B48001F0F0FD02046FFF7B7FF85F31188BFF38B
:103B58006F8F38BD2046FFF7AFFF85F31188BFF39D
:103B68006F8FF6E72046FFF7E5FBEBE77C040020C4
:103B7800A4040020A804002008B50948094A121A1C
:103B8800094904F0BDF90948094A121A094904F01B
:103B9800B7F90948094A121A094904F0B1F908BDE8
:103BA800000000207A0000200C35010800000020E9
:103BB800000000200C350108000000100000001073
:103BC80086350108034B1868984200D070470020DA
:103BD800FCE700BF5000002030B1044A5268904210
:103BE80001D0006870470020704700BF50000020D7
:103BF80008B5044B1B680BB1002008BDFEF796FD05
:103C0800FBE700BFB4040020B3F1FF3F08BFB2F1E7
:103C1800FF3F77D02DE9F047044692461D46816064
:103C28000023EFF31187102282F31288BFF36F8FFE
:103C380026E01AF1010845F10009FFF7D9FF18EB52
:103C4800000349EBE070236160613BE0521A66EBC8
:103C58000303026143614368636020601C60446041
:103C680005E0294B5A682360626014605C60FFF7C6
:103C7800A9FF84423AD087F31188BFF36F8F0123DD
:103C8800002B3DD153466FF00101B1EB0A014FF013
:103C9800FF3060EB0502002ACBDB1C4A1168526832
:103CA8005B1842EB05026FF00101C91A60EB0203D1
:103CB80008461A46012973F1000301DA012000229F
:103CC80020616261FFF77EFF0028CAD00269466959
:103CD80021696369914273EB060EB7DB891A63EBBE
:103CE800060321616361FFF777FFEDE7084B1B6867
:103CF800002BC0D104F0D3FA0021FEF787FCBAE705
:103D0800BDE8F087704700BF50000020280200205F
:103D1800B404002070B5EFF31186102383F31288E2
:103D2800BFF36F8F2A4B1860FFF74CFF044623E060
:103D3800284A136851685B1941EBE57113605160BB
:103D480000220023C4E90423204604F091FA86F3F4
:103D58001188BFF36F8FA36820469847EFF3118649
:103D6800102383F31288BFF36F8F194A13685B1B04
:103D78001360FFF727FF04463CB125696169144BBE
:103D88001A68D317AA428B41D2DA44B1236962690F
:103D98000F4909685B1A62EBE172236162610D4A9F
:103DA8000B4D2868136851681B1841EBE0711360CC
:103DB800516000242C6004F072FA2146FEF726FCBC
:103DC80086F31188BFF36F8FFFF79EFE70BD00BFAB
:103DD800B40400202802002010B50022EFF311845B
:103DE800102383F31288BFF36F8F134611460CE03C
:103DF800FFF7FEFE074A13685168C31841EBE071EC
:103E080084F31188BFF36F8F0122002AF0D018467F
:103E180010BD00BF28020020F8B5EFF3118310226F
:103E280082F31288BFF36F8F026822B183F311887F
:103E3800BFF36F8FF8BD04461D46826AC36A52EA13
:103E4800030105D0B3F1FF3F08BFB2F1FF3F26D110
:103E5800236B01332363236A6BB185F31188BFF3A6
:103E68006F8F236A20469847EFF31185102383F359
:103E78001288BFF36F8F04F11803A469A3423ED0E0
:103E8800002C3CD0204604F05BF90023A36785F39F
:103E98001188BFF36F8F204604F037F9CAE716463A
:103EA8001F46012A73F1000301DA01260027013EAB
:103EB80047F1FF3704F038FA013041F10001801969
:103EC80047EB0101012871F1000108DA6FF00102E6
:103ED8004FF0FF330C492046FFF796FEB8E704F091
:103EE80023FA013041F10001801947EB01036FF01B
:103EF8000102121A4FF0FF3161EB0303EAE785F381
:103F08001188BFF36F8F95E7213E0008F8B51D466D
:103F1800EFF31187102383F31288BFF36F8FB5F186
:103F2800FF3F08BFB2F1FF3F1FD00646144629469F
:103F38006FF00102121B4FF0FF3262EB0502002AFC
:103F480018DB304604F0C8F9DDE90623C6E90A2380
:103F58000023336322462B460B493046FFF754FEB5
:103F680087F31188BFF36F8FF8BD87F31188BFF30C
:103F78006F8FF9E7012C71F1000101DA01240025A6
:103F8800013C45F1FF35DCE7213E000808B5024851
:103F980003F03BF808BD00BF780E010810B5064CC9
:103FA80005E0A2686168204604F0CEF91434034B9A
:103FB8009C42F6D3002010BD7A0000207A00002031
:103FC80000B585B0094A02AB92E8030083E8030014
:103FD80000934FF0FF334FF4806205490548FEF720
:103FE800E1FF002005B05DF804FB00BFB80A010836
:103FF800403900203002002080B56F4694B001900F
:1040080007F8411C119041F2F000C0F6010012902F
:1040180041F2F800C0F60100139017F8410C029025
:104028000299DFE801F0040822284200FEDE019828
:10403800006804903FE041F2F800C0F601000590E6
:104048000120069040F6A070C0F6010001684068A3
:1040580009910A90042007900020089041F200116D
:10406800C0F6010105A807F041FB01980068BFF3FD
:104078005F8F04901FE041F2F000C0F601000B9042
:1040880001200C9040F6A070C0F60100016840685D
:104098000F91109004200D9000200E9041F2101105
:1040A800C0F601010BA807F021FB01980068BFF3D7
:1040B8005F8F0490FFE7049814B080BD80B56F4609
:1040C80094B00091019007F8412C1090119141F2A1
:1040D8002010C0F60100129041F22810C0F601002D
:1040E800139017F8410C02900299DFE801F00408D8
:1040F8000E284200FEDE00980199086041E0009811
:104108000199BFF35F8F08603BE041F22810C0F6C9
:10411800010004900120059040F6A070C0F601004F
:1041280001684068089109900420069000200790D3
:1041380041F23011C0F6010104A807F0D7FA41F2A4
:104148002010C0F601000A9001200B9040F6A070E4
:10415800C0F60100016840680E910F9004200C9091
:1041680000200D9041F24011C0F601010AA807F0A5
:10417800BDFA00980199BFF35F8F0860BFF35F8FA6
:10418800FFE714B080BD000080B56F46A2B09C4622
:10419800069207910890BB6807F85ECC07F85D3C6B
:1041A8001B901C911D9241F25010C0F601001E9008
:1041B80041F25810C0F601001F9017F85E0C0990E4
:1041C8000999DFE801F0041325374900FEDE17F8E6
:1041D8005D0C01460591002856D0FFE70598022896
:1041E80066D0FFE70598042878D047E017F85D0CFB
:1041F80001460491002800F09680FFE70498022801
:1042080000F0A780FFE70498042800F0BA8035E0A2
:1042180017F85D0C01460391002800F0CA80FFE7FB
:104228000398022800F0DB80FFE70398042800F0D9
:10423800EC8023E017F85D0C01460291002800F09D
:10424800FC80FFE70298022800F00F81FFE7029840
:10425800042800F0228111E017F85D0C0146019155
:10426800002800F03281FFE70198022800F045811C
:10427800FFE70198042800F05881FFE717F85D0C64
:10428800012800F0788190E10798089BDDF818C0B4
:1042980053E8001F014503D143E800C2002AF7D1C3
:1042A800081AB0FA80F040090D918DF838002DE019
:1042B8000798089BDDF818C053E8001F014503D193
:1042C80043E800C2002AF7D1081AB0FA80F0400982
:1042D800BFF35F8F0D918DF8380017E00798089BA2
:1042E800DDF818C0BFF35F8F53E8001F014503D105
:1042F80043E800C2002AF7D1081AB0FA80F0400952
:10430800BFF35F8F0D918DF83800FFE70D9800908F
:1043180020909DF8380000F0010007F8010C0028F3
:1043280040F0208119E10798089BDDF818C0BFF319
:104338005F8F53E8001F014503D143E800C2002AFC
:10434800F7D1081AB0FA80F040090D918DF83800BD
:10435800DCE70798089BDDF818C0BFF35F8F53E8C8
:10436800001F014503D143E800C2002AF7D1081A0B
:10437800B0FA80F04009BFF35F8F0D918DF83800D7
:10438800C4E70798089BDDF818C0BFF35F8F53E8B0
:10439800001F014503D143E800C2002AF7D1081ADB
:1043A800B0FA80F04009BFF35F8F0D918DF83800A7
:1043B800ACE70798089BDDF818C053E8001F0145D3
:1043C80003D143E800C2002AF7D1081AB0FA80F0F6
:1043D8004009BFF35F8F0D918DF8380096E7079875
:1043E800089BDDF818C053E8001F014503D143E8D6
:1043F80000C2002AF7D1081AB0FA80F04009BFF3CA
:104408005F8F0D918DF8380080E70798089BDDF8DD
:1044180018C0BFF35F8F53E8001F014503D143E87D
:1044280000C2002AF7D1081AB0FA80F04009BFF399
:104438005F8F0D918DF8380068E70798089BDDF8C5
:1044480018C0BFF35F8F53E8001F014503D143E84D
:1044580000C2002AF7D1081AB0FA80F04009BFF369
:104468005F8F0D918DF8380050E70798089BDDF8AD
:1044780018C0BFF35F8F53E8001F014503D143E81D
:1044880000C2002AF7D1081AB0FA80F04009BFF339
:104498005F8F0D918DF8380038E70798089BDDF895
:1044A80018C0BFF35F8F53E8001F014503D143E8ED
:1044B80000C2002AF7D1081AB0FA80F04009BFF309
:1044C8005F8F0D918DF8380020E70798089BDDF87D
:1044D80018C0BFF35F8F53E8001F014503D143E8BD
:1044E80000C2002AF7D1081AB0FA80F04009BFF3D9
:1044F8005F8F0D918DF8380008E70798089BDDF865
:1045080018C0BFF35F8F53E8001F014503D143E88C
:1045180000C2002AF7D1081AB0FA80F04009BFF3A8
:104528005F8F0D918DF83800F0E60798089BDDF84D
:1045380018C0BFF35F8F53E8001F014503D143E85C
:1045480000C2002AF7D1081AB0FA80F04009BFF378
:104558005F8F0D918DF83800D8E600980C900120F7
:104568000B9004E000980C9000200B90FFE70B984C
:104578000C9922B080BD41F25010C0F60100159090
:104588000120169040F6A070C0F60100016840684E
:1045980019911A90042017900020189041F2601188
:1045A800C0F6010115A807F0A1F841F25810C0F6AD
:1045B80001000F900120109040F6A070C0F6010095
:1045C8000168406813911490042011900020129003
:1045D80041F27011C0F601010FA807F087F800003A
:1045E80094B00A908DF836200E908DF83F10012275
:1045F8008DF840208DF8412000228DF842208DF85A
:1046080043201190129008460B908DF84F109DF89A
:1046180036000C900C99DFE801F00423446588000B
:10462800FEDE0A9800780990FFE709990A9BDDF8F1
:104638002CC0C9B2D3E84F0F084503D1C3E842CF15
:10464800002AF7D10890C9B2411AB1FA81F1490993
:1046580001290990E9D1FFE708988DF8370087E02C
:104668000A98BFF35F8F00780790FFE707990A9BC6
:10467800DDF82CC0C9B2D3E84F0F084503D1C3E811
:1046880042CF002AF7D10690C9B2411AB1FA81F196
:10469800490901290790E9D1FFE706988DF8370005
:1046A80066E00A9800780590FFE705990A9BDDF80F
:1046B8002CC0C9B2D3E84F0F084503D1C3E842CF95
:1046C800002AF7D10490C9B2411AB1FA81F1490917
:1046D80001290590E9D1FFE70498BFF35F8F8DF8B2
:1046E800370045E00A98BFF35F8F00780390FFE733
:1046F80003990A9BDDF82CC0C9B2D3E84F0F0845CF
:1047080003D1C3E842CF002AF7D10290C9B2411AB7
:10471800B1FA81F1490901290390E9D1FFE702982B
:10472800BFF35F8F8DF8370022E00A98BFF35F8FE1
:1047380000780190FFE701990A9BDDF82CC0C9B207
:10474800D3E84F0F084503D1C3E842CF002AF7D179
:104758000090C9B2411AB1FA81F1490901290190C1
:10476800E9D1FFE70098BFF35F8F8DF83700FFE7C7
:104778009DF83700002818BF012014B070470000CA
:1047880080B56F4694B0019007F8411C119041F232
:10479800E010C0F60100129041F2E810C0F60100E6
:1047A800139017F8410C02900299DFE801F0040811
:1047B80022284200FEDE0198006804903FE041F2A2
:1047C800E810C0F6010005900120069040F6A070A0
:1047D800C0F601000168406809910A90042007901A
:1047E8000020089041F2F011C0F6010105A806F07A
:1047F8007DFF01980068BFF35F8F04901FE041F2CE
:10480800E010C0F601000B9001200C9040F6A0705B
:10481800C0F60100016840680F91109004200D90C7
:1048280000200E9041F20021C0F601010BA806F00D
:104838005DFF01980068BFF35F8F0490FFE704985D
:1048480014B080BD80B56F4694B0019007F8411C44
:10485800119041F2E010C0F60100129041F2E81008
:10486800C0F60100139017F8410C02900299DFE896
:1048780001F0040822284200FEDE01980068049036
:104888003FE041F2E810C0F60100059001200690D3
:1048980040F6A070C0F601000168406809910A90CE
:1048A800042007900020089041F2F011C0F60101A1
:1048B80005A806F01BFF01980068BFF35F8F0490FE
:1048C8001FE041F2E010C0F601000B9001200C90AF
:1048D80040F6A070C0F60100016840680F91109082
:1048E80004200D9000200E9041F20021C0F6010135
:1048F8000BA806F0FBFE01980068BFF35F8F0490D9
:10490800FFE7049814B080BD80B56F4694B000915D
:10491800019007F8412C1090119141F21020C0F637
:104928000100129041F21820C0F60100139017F808
:10493800410C02900299DFE801F004080E284200B9
:10494800FEDE00980199086041E000980199BFF3E4
:104958005F8F08603BE041F21820C0F60100049028
:104968000120059040F6A070C0F60100016840687B
:1049780008910990042006900020079041F2202118
:10498800C0F6010104A806F0B1FE41F21020C0F6FD
:1049980001000A9001200B9040F6A070C0F60100BB
:1049A800016840680E910F9004200C9000200D9033
:1049B80041F23021C0F601010AA806F097FE0098DE
:1049C8000199BFF35F8F0860BFF35F8FFFE714B0F3
:1049D80080BD000080B56F4694B000900B460193EF
:1049E80007F8412C109007F8091C41F21020C0F676
:1049F8000100129041F21820C0F60100139017F838
:104A0800410C02900299DFE801F004080E284200E8
:104A1800FEDE01980099087041E001980099BFF303
:104A28005F8F08703BE041F21820C0F60100049047
:104A38000120059040F6A070C0F6010001684068AA
:104A480008910990042006900020079041F2202147
:104A5800C0F6010104A806F049FE41F21020C0F694
:104A680001000A9001200B9040F6A070C0F60100EA
:104A7800016840680E910F9004200C9000200D9062
:104A880041F23021C0F601010AA806F02FFE019874
:104A98000099BFF35F8F0870BFF35F8FFFE714B013
:104AA80080BD000080B56F468AB007F81D0C41F242
:104AB8004020C0F60100099017F81D0C01900199DB
:104AC800DFE801F0041E1F202100FEDE41F2402035
:104AD800C0F6010003900120049040F6A070C0F6D3
:104AE80001000168406807910890042005900020A3
:104AF800069041F24821C0F6010103A806F0F6FD30
:104B080002E001E000E0FFE70AB080BD98B00F9135
:104B180010908DF84B2014901591169017909DF8D1
:104B28004B0011901199DFE801F0042242628400E1
:104B3800FEDE10980F990D9100680E90FFE70E9910
:104B4800109BDDF834C053E8000F084503D143E853
:104B580000C2002AF7D10C90411AB1FA81F1490933
:104B680001290E90EBD1FFE70C98139083E0109881
:104B78000F990A91BFF35F8F00680B90FFE70B99BD
:104B8800109BDDF828C053E8000F084503D143E81F
:104B980000C2002AF7D10990411AB1FA81F14909F6
:104BA80001290B90EBD1FFE70998139063E0109867
:104BB8000F99079100680890FFE70899109BDDF8A6
:104BC8001CC053E8000F084503D143E800C2002A7F
:104BD800F7D10690411AB1FA81F1490901290890E3
:104BE800EBD1FFE70698BFF35F8F139043E010986F
:104BF8000F990491BFF35F8F00680590FFE705994F
:104C0800109BDDF810C053E8000F084503D143E8B6
:104C180000C2002AF7D10390411AB1FA81F149097B
:104C280001290590EBD1FFE70398BFF35F8F13903D
:104C380021E010980F990191BFF35F8F00680290EF
:104C4800FFE70299109BDDF804C053E8000F084500
:104C580003D143E800C2002AF7D10090411AB1FA03
:104C680081F1490901290290EBD1FFE70098BFF3D0
:104C78005F8F1390FFE7139818B0704780B56F46A1
:104C8800A2B09C46069207910890BB6807F85ECCD4
:104C980007F85D3C1B901C911D9241F25820C0F60C
:104CA80001001E9041F26020C0F601001F9017F825
:104CB8005E0C09900999DFE801F0041325374900D3
:104CC800FEDE17F85D0C01460591002856D0FFE777
:104CD8000598022866D0FFE70598042878D047E0B1
:104CE80017F85D0C01460491002800F09680FFE754
:104CF8000498022800F0A780FFE70498042800F031
:104D0800BA8035E017F85D0C01460391002800F0E1
:104D1800CA80FFE70398022800F0DB80FFE70398CA
:104D2800042800F0EC8023E017F85D0C014602919E
:104D3800002800F0FC80FFE70298022800F00F81AD
:104D4800FFE70298042800F0228111E017F85D0CB3
:104D580001460191002800F03281FFE701980228FE
:104D680000F04581FFE70198042800F05881FFE72B
:104D780017F85D0C012800F0788190E10798089BEE
:104D8800DDF818C053E8001F014503D143E800C20D
:104D9800002AF7D1081AB0FA80F040090D918DF871
:104DA80038002DE00798089BDDF818C053E8001F6D
:104DB800014503D143E800C2002AF7D1081AB0FA26
:104DC80080F04009BFF35F8F0D918DF8380017E030
:104DD8000798089BDDF818C0BFF35F8F53E8001FE2
:104DE800014503D143E800C2002AF7D1081AB0FAF6
:104DF80080F04009BFF35F8F0D918DF83800FFE711
:104E08000D98009020909DF8380000F0010007F8F8
:104E1800010C002840F0208119E10798089BDDF873
:104E280018C0BFF35F8F53E8001F014503D143E863
:104E380000C2002AF7D1081AB0FA80F040090D9193
:104E48008DF83800DCE70798089BDDF818C0BFF339
:104E58005F8F53E8001F014503D143E800C2002AD1
:104E6800F7D1081AB0FA80F04009BFF35F8F0D91AF
:104E78008DF83800C4E70798089BDDF818C0BFF321
:104E88005F8F53E8001F014503D143E800C2002AA1
:104E9800F7D1081AB0FA80F04009BFF35F8F0D917F
:104EA8008DF83800ACE70798089BDDF818C053E880
:104EB800001F014503D143E800C2002AF7D1081AB0
:104EC800B0FA80F04009BFF35F8F0D918DF838007C
:104ED80096E70798089BDDF818C053E8001F0145BE
:104EE80003D143E800C2002AF7D1081AB0FA80F0CB
:104EF8004009BFF35F8F0D918DF8380080E7079860
:104F0800089BDDF818C0BFF35F8F53E8001F014509
:104F180003D143E800C2002AF7D1081AB0FA80F09A
:104F28004009BFF35F8F0D918DF8380068E7079847
:104F3800089BDDF818C0BFF35F8F53E8001F0145D9
:104F480003D143E800C2002AF7D1081AB0FA80F06A
:104F58004009BFF35F8F0D918DF8380050E707982F
:104F6800089BDDF818C0BFF35F8F53E8001F0145A9
:104F780003D143E800C2002AF7D1081AB0FA80F03A
:104F88004009BFF35F8F0D918DF8380038E7079817
:104F9800089BDDF818C0BFF35F8F53E8001F014579
:104FA80003D143E800C2002AF7D1081AB0FA80F00A
:104FB8004009BFF35F8F0D918DF8380020E70798FF
:104FC800089BDDF818C0BFF35F8F53E8001F014549
:104FD80003D143E800C2002AF7D1081AB0FA80F0DA
:104FE8004009BFF35F8F0D918DF8380008E70798E7
:104FF800089BDDF818C0BFF35F8F53E8001F014519
:1050080003D143E800C2002AF7D1081AB0FA80F0A9
:105018004009BFF35F8F0D918DF83800F0E60798CF
:10502800089BDDF818C0BFF35F8F53E8001F0145E8
:1050380003D143E800C2002AF7D1081AB0FA80F079
:105048004009BFF35F8F0D918DF83800D8E60098BE
:105058000C9001200B9004E000980C9000200B901D
:10506800FFE70B980C9922B080BD41F25820C0F69A
:10507800010015900120169040F6A070C0F60100BE
:105088000168406819911A90042017900020189020
:1050980041F26821C0F6010115A806F027FB41F28C
:1050A8006020C0F601000F900120109040F6A0701B
:1050B800C0F6010001684068139114900420119013
:1050C8000020129041F27821C0F601010FA806F0E5
:1050D8000DFB000080B56F468CB0CDE900010020C3
:1050E800069002200849029169460390059008A895
:1050F80004900648CDE9090111460B9001A80890D3
:1051080002A806F0F3FA00BF4813010851CA0008C4
:1051180080B56F469CB0CDE90001012412480423F4
:105128000B9001A9CDE90901684608900220079073
:105138000CA906910D4902910321199420248DF898
:105148006C108DF84C10002103901A931894169047
:1051580014901293CDE910410E900C90059008A878
:10516800049002A806F0CDFAF5C800085813010803
:1051780093B00A910B908DF837200F9010911190F1
:1051880012909DF837000C900C99DFE801F004218B
:10519800405F8000FEDE0B9800680990FFE70999E0
:1051A8000B9B0A9801EB000C53E8000F084503D14C
:1051B80043E800C2002AF7D10890411AB1FA81F1F8
:1051C800490901290990EAD1FFE708980E907FE084
:1051D8000B98BFF35F8F00680790FFE707990B9B59
:1051E8000A9801EB000C53E8000F084503D143E887
:1051F80000C2002AF7D10690411AB1FA81F1490993
:1052080001290790EAD1FFE706980E9060E00B9815
:1052180000680590FFE705990B9B0A9801EB000CC5
:1052280053E8000F084503D143E800C2002AF7D12C
:105238000490411AB1FA81F1490901290590EAD18E
:10524800FFE70498BFF35F8F0E9041E00B98BFF320
:105258005F8F00680390FFE703990B9B0A9801EBA7
:10526800000C53E8000F084503D143E800C2002AA8
:10527800F7D10290411AB1FA81F149090129039045
:10528800EAD1FFE70298BFF35F8F0E9020E00B98FA
:10529800BFF35F8F00680190FFE701990B9B0A98A5
:1052A80001EB000C53E8000F084503D143E800C2A6
:1052B800002AF7D10090411AB1FA81F14909012970
:1052C8000190EAD1FFE70098BFF35F8F0E90FFE7E8
:1052D8000E9813B07047000093B00A910B908DF8A8
:1052E80037200F901091119012909DF837000C9074
:1052F8000C99DFE801F00421405F8000FEDE0B9886
:1053080000680990FFE709990B9B0A98A1EB000C2C
:1053180053E8000F084503D143E800C2002AF7D13B
:105328000890411AB1FA81F1490901290990EAD195
:10533800FFE708980E907FE00B98BFF35F8F006837
:105348000790FFE707990B9B0A98A1EB000C53E81D
:10535800000F084503D143E800C2002AF7D10690A0
:10536800411AB1FA81F1490901290790EAD1FFE709
:1053780006980E9060E00B9800680590FFE7059985
:105388000B9B0A98A1EB000C53E8000F084503D1CA
:1053980043E800C2002AF7D10490411AB1FA81F11A
:1053A800490901290590EAD1FFE70498BFF35F8F07
:1053B8000E9041E00B98BFF35F8F00680390FFE702
:1053C80003990B9B0A98A1EB000C53E8000F0845C2
:1053D80003D143E800C2002AF7D10290411AB1FA7A
:1053E80081F1490901290390EAD1FFE70298BFF347
:1053F8005F8F0E9020E00B98BFF35F8F00680190DD
:10540800FFE701990B9B0A98A1EB000C53E8000FEA
:10541800084503D143E800C2002AF7D10090411A99
:10542800B1FA81F1490901290190EAD1FFE7009811
:10543800BFF35F8F0E90FFE70E9813B07047000020
:1054480080B56F468AB007F81D0C41F24440C0F69B
:105458000100099017F81D0C01900199DFE801F08F
:10546800041E1F202100FEDE41F24440C0F6010068
:1054780003900120049040F6A070C0F60100016876
:10548800406807910890042005900020069041F29A
:105498004C41C0F6010103A806F028F902E001E03A
:1054A80000E0FFE70AB080BD80B56F468AB007F814
:1054B8001D0C41F25C40C0F60100099017F81D0C64
:1054C80001900199DFE801F0041E21242700FEDE87
:1054D80041F25C40C0F6010003900120049040F6C0
:1054E800A070C0F601000168406807910890042088
:1054F80005900020069041F26441C0F6010103A81E
:1055080006F0F4F8BFF35F8F08E0BFF35F8F05E0A4
:10551800BFF35F8F02E0BFF35F8FFFE70AB080BD84
:1055280092B00A900B460B938DF836200E908DF8AA
:105538003F10109011909DF836000C900C99DFE800
:1055480001F0042344658800FEDE0A98007809907B
:10555800FFE709990A9BDDF82CC0C9B2D3E84F0FC1
:10556800084503D1C3E842CF002AF7D10890C9B251
:10557800411AB1FA81F1490901290990E9D1FFE7F6
:1055880008988DF8370087E00A98BFF35F8F007896
:105598000790FFE707990A9BDDF82CC0C9B2D3E84A
:1055A8004F0F084503D1C3E842CF002AF7D1069030
:1055B800C9B2411AB1FA81F1490901290790E9D123
:1055C800FFE706988DF8370066E00A98007805909E
:1055D800FFE705990A9BDDF82CC0C9B2D3E84F0F45
:1055E800084503D1C3E842CF002AF7D10490C9B2D5
:1055F800411AB1FA81F1490901290590E9D1FFE77A
:105608000498BFF35F8F8DF8370045E00A98BFF321
:105618005F8F00780390FFE703990A9BDDF82CC0A1
:10562800C9B2D3E84F0F084503D1C3E842CF002AD7
:10563800F7D10290C9B2411AB1FA81F14909012999
:105648000390E9D1FFE70298BFF35F8F8DF8370029
:1056580022E00A98BFF35F8F00780190FFE7019975
:105668000A9BDDF82CC0C9B2D3E84F0F084503D117
:10567800C3E842CF002AF7D10090C9B2411AB1FA63
:1056880081F1490901290190E9D1FFE70098BFF3A9
:105698005F8F8DF83700FFE79DF8370012B070472D
:1056A80080B56F4684B0029207F8020C07F8011C17
:1056B80000E0FEDE17F8010C01900199DFE801F027
:1056C8000305030D030004B080BD029A42F6F600FC
:1056D800C0F60100342106F028F8029A42F62A1092
:1056E800C0F601003D2106F020F80000D0B502AF59
:1056F8009EB09C460790BB689646CDF820E00C46C5
:10570800099407F852CC07F8513C199007F8161C71
:1057180007F8152C41F2A440C0F601001B9041F295
:10572800AC40C0F601001C9017F8520C0A900A9978
:10573800DFE801F0041325374900FEDE17F8510CA5
:1057480001460691002856D0FFE70698022869D03E
:10575800FFE7069804287ED047E017F8510C014669
:105768000591002800F0A280FFE70598022800F0C4
:10577800B680FFE70598042800F0CC8035E017F8DC
:10578800510C01460491002800F0DF80FFE70498DF
:10579800022800F0F380FFE70498042800F007814E
:1057A80023E017F8510C01460391002800F01A81F4
:1057B800FFE70398022800F03081FFE703980428E8
:1057C80000F0468111E017F8510C014602910028BB
:1057D80000F05981FFE70298022800F06F81FFE787
:1057E8000298042800F08581FFE717F8510C01287A
:1057F80000F0AE81C6E10998079BDDF820C0C0B271
:10580800D3E84F1F014503D1C3E842CF002AF7D19F
:10581800C0B2081AB0FA80F0400907F84E1C07F821
:105828004D0C33E00998079BDDF820C0C0B2D3E8DF
:105838004F1F014503D1C3E842CF002AF7D1C0B2B8
:10584800081AB0FA80F04009BFF35F8F07F84E1CC2
:1058580007F84D0C1AE00998079BDDF820C0BFF344
:105868005F8FC0B2D3E84F1F014503D1C3E842CFD1
:10587800002AF7D1C0B2081AB0FA80F04009BFF385
:105888005F8F07F84E1C07F84D0CFFE717F84E0C12
:105898000146019107F80A0C17F84D0C00F00100B9
:1058A80007F8090C002840F046813DE10998079B5C
:1058B800DDF820C0BFF35F8FC0B2D3E84F1F0145AA
:1058C80003D1C3E842CF002AF7D1C0B2081AB0FA10
:1058D80080F0400907F84E1C07F84D0CD6E70998E8
:1058E800079BDDF820C0BFF35F8FC0B2D3E84F1F1E
:1058F800014503D1C3E842CF002AF7D1C0B2081A44
:10590800B0FA80F04009BFF35F8F07F84E1C07F824
:105918004D0CBBE70998079BDDF820C0BFF35F8FEC
:10592800C0B2D3E84F1F014503D1C3E842CF002AD4
:10593800F7D1C0B2081AB0FA80F04009BFF35F8F00
:1059480007F84E1C07F84D0CA0E70998079BDDF8EF
:1059580020C0C0B2D3E84F1F014503D1C3E842CFEE
:10596800002AF7D1C0B2081AB0FA80F04009BFF394
:105978005F8F07F84E1C07F84D0C87E70998079BBF
:10598800DDF820C0C0B2D3E84F1F014503D1C3E8FA
:1059980042CF002AF7D1C0B2081AB0FA80F0400905
:1059A800BFF35F8F07F84E1C07F84D0C6EE7099898
:1059B800079BDDF820C0BFF35F8FC0B2D3E84F1F4D
:1059C800014503D1C3E842CF002AF7D1C0B2081A73
:1059D800B0FA80F04009BFF35F8F07F84E1C07F854
:1059E8004D0C53E70998079BDDF820C0BFF35F8F84
:1059F800C0B2D3E84F1F014503D1C3E842CF002A04
:105A0800F7D1C0B2081AB0FA80F04009BFF35F8F2F
:105A180007F84E1C07F84D0C38E70998079BDDF886
:105A280020C0BFF35F8FC0B2D3E84F1F014503D139
:105A3800C3E842CF002AF7D1C0B2081AB0FA80F002
:105A48004009BFF35F8F07F84E1C07F84D0C1DE7A0
:105A58000998079BDDF820C0BFF35F8FC0B2D3E879
:105A68004F1F014503D1C3E842CF002AF7D1C0B286
:105A7800081AB0FA80F04009BFF35F8F07F84E1C90
:105A880007F84D0C02E70998079BDDF820C0BFF323
:105A98005F8FC0B2D3E84F1F014503D1C3E842CF9F
:105AA800002AF7D1C0B2081AB0FA80F04009BFF353
:105AB8005F8F07F84E1C07F84D0CE7E60998079B1F
:105AC800DDF820C0BFF35F8FC0B2D3E84F1F014598
