:020000040800F2
:10000000404400200D1700083D130008F9160008B1
:10001000F9160008F9160008F9160008000000009B
:10002000000000000000000000000000D5170008DC
:10003000F91600080000000075170008E52C0008FC
:100040008119000881190008811900088119000828
:100050008119000881190008811900088119000818
:100060008119000881190008811900088119000808
:1000700081190008811900088119000881190008F8
:1000800081190008811900088119000881190008E8
:1000900081190008811900088119000881190008D8
:1000A00081190008811900088119000881190008C8
:1000B00081190008811900088119000881190008B8
:1000C00081190008811900088119000881190008A8
:1000D0008119000881190008811900088119000898
:1000E0008119000881190008811900088119000888
:1000F0008119000881190008811900088119000878
:100100008119000881190008811900088119000867
:100110008119000881190008811900088119000857
:100120008119000881190008811900088119000847
:100130008119000881190008811900088119000837
:100140008119000881190008811900088119000827
:100150008119000881190008811900088119000817
:100160008119000881190008811900088119000807
:1001700081190008811900088119000881190008F7
:08018000811900088119000833
:1001880053B94AB9002908BF00281CBF4FF0FF31F6
:100198004FF0FF3000F00CB8ADF1080C6DE904CE5B
:1001A80000F073FDDDF804E0DDE9022304B07047D8
:1001B800704700BF03685A004CBF43F0004323F068
:1001C8000043184470472DE9F0470646174641B3E7
:1001D800013988464FF0000909EB080404EBD47490
:1001E800641006EBC4052846FFF7E4FFA1424FEA76
:1001F800C40A04D1B84204D82846BDE8F087B842FA
:1002080004D9A1450DD004F1FF38E5E70AF108004B
:100218003044FFF7CFFF0138B842EDD204F10109AD
:10022800DAE70025E8E7012806D0022806D00028EA
:10023800034818BF002070470248704702487047BB
:10024800490800084D080008510800081F4B37B539
:1002580004468D1E4BB101A92846AFF3008048B96A
:1002680000230920236103B030BD1948194B1B1A1C
:10027800DB10019301992A46FFF7A5FF01460028E4
:10028800EED0FFF797FF4B68A064012B1AD0002B24
:1002980001F1040010DBFFF78DFF0023C4E913030D
:1002A8000368002B0ADAC3F30360FFF7BCFF0346B9
:1002B8000028D5D00020D5E70123EFE7FFF77AFF24
:1002C8000346F7E700230520CCE700BF0000000045
:1002D80088DB000850DC00080368DA0710B504461C
:1002E80005D49B0700F1480018D500F0F9FB2368F6
:1002F800590703D404F1D00000F0FAFB23681A0769
:1003080003D404F5A87000F0FBFB2368DB0608D4CF
:1003180004F5E870BDE8104000F036BC00F0D8FBEA
:10032800E5E710BD092070470346006800B118448E
:100338007047704770B505460C46216C2846FFF794
:1003480085FF064608B101F001FC236C6B6122466B
:100358002B692946012098470828EED00728F2D1B2
:100368003046216CFFF7E5FF201D00F0A5FB2DE9C5
:10037800F0470C1DD0F80C90D0F818A00746164688
:100388000FCCADF5727D03AD0FC50FCC0FC50FCCEB
:100398000FC594E80F000DF1080885E80F00002547
:1003A800C8F80050D8F840103846FFF74FFF093614
:1003B800F6B2044668BBD8F840307B614FF4F0725F
:1003C80041467AA80CF052FA3B697AAA3946304677
:1003D8009847889B0546C8F844303A46CDE9008AD4
:1003E8003B4631460120C847C0B9C4B94FF4F07242
:1003F8007AA940460CF03AFA082D2646D2D0072DA5
:100408000CD12046D8F84010FFF793FF03A800F05E
:1004180053FBD8F8383046F01006DCE709242046AC
:100428000DF5727DBDE8F087406C7047F0B5CB6B79
:100438000B640D1D06460F460FCDF9B001AC0FC475
:100448000FCD0FC40FCD0FC495E80F0084E80F003F
:100458004FF0FF33009310993046FFF7F7FE78B955
:1004680033696A463146984708280446F3D06846F7
:10047800FFF732FF062C03D139463046FFF75AFF03
:10048800092079B0F0BD10B48261DA6BC16010BC8C
:100498001A64194600226AE770B5C66843690B6496
:1004A80004460D4626B10122FFF761FF01F04EFB1D
:1004B80003690A46014602209847072805D00828FC
:1004C800F4D129462046FFF735FF3046296CFFF75F
:1004D80030FF281D00F0F0FAC26802B9A6E7CA6B1F
:1004E8000A64002243E77047836801460BB1012084
:1004F80018477047012910B50446084605D005D9A4
:10050800C81E01288CBF0220012010BD43B90F2A44
:1005180006D804EB8204029A616811601846F4E771
:100528000220F2E71FB503AB009300230A461946E1
:10053800FFF7E0FF039805B05DF804FB012910B54B
:100548000446084605D005D9C81E01288CBF0220DC
:10055800012010BD43B90F2A06D8029904EB820482
:10056800096861601846F4E70220F2E71FB503AB9B
:100578000093002303920A461946FFF7DFFF05B0F0
:100588005DF804FBF0B5D36B1364141D06460F46E3
:100598000FCCADF50F7D17AD0FC50FCC0FC50FCC28
:1005A8000FC594E80F0085E80F004FF0FF3316934E
:1005B80026996846FFF74AFE90B90C2116A86A46A4
:1005C800FFF7D4FF394616A8B04748B9049B16AAC6
:1005D8006946082098470528044602D00928E7D12B
:1005E800092416A8FFF778FE20460DF50F7DF0BD0B
:1005F8002DE9F04FCD6C87B0174655F8042B0495BC
:100608000C4600F003099A463BBB12028DF81530E0
:10061800039203238DF81430236DB9F1020F08BF3C
:10062800A56B13F0010322D100F0080800932B6892
:1006380043BB03A9384600F0A7FC002840F0FB8024
:10064800009BDBB10F213846FFF76CFF0E210246F5
:100658003846FFF78BFF794A55E0130C8DF81530B3
:100668001204DBB205EB830503920223D2E703A948
:10067800384600F089FC002840F0DD80082007B0EB
:10068800BDE8F08FBAF1020F0CBFD5F804B0B5F889
:1006980002B0A26C18BF2B8801930CBF05F10806A5
:1006A8002E1D0F212BF0010538461544FFF73AFFA0
:1006B8008542019B29D823F001022A44824294BF33
:1006C800002201224FEA4B0000F0020003F0010370
:1006D80040EA0305012D1AD0022D5ED0002D40F00E
:1006E800AA80351DB9F1000FA1D0002A9FD030464D
:1006F800FFF760FDA56306462046AFF3008000289B
:1007080000F0998032460F213FE00022DAE7B9F184
:10071800000F26D1002A3DD073683268991C4FEA31
:10072800D27200F0888004F158010133029109D097
:10073800301DFFF7F9FD02AB01462046AFF30080FC
:10074800054638B30D213846FFF7ECFE022D029B13
:10075800206202D1E36204F12C03C4E909360620C1
:100768008DE70D213846FFF7DDFE256A854211D158
:10077800A36A9E420ED13046FFF71CFD0F210246A8
:100788003846FFF7F3FE224600213846FFF7EEFE13
:10079800072074E706F1080549E7356825F00045A4
:1007A800B9F1000F2AD1A2B1B8F1000F19D085B95B
:1007B800CB4617E00BF1010B019B029306EB8B0074
:1007C800FFF7B2FD0022014602AB2046AFF30080DE
:1007D80058B13368002B00DA0436013506EB85057D
:1007E80025E7C34604F158030193AB45E2D10D2137
:1007F8003846FFF797FE029B2062AEE70D21384688
:10080800FFF790FED4F820B08345E2D1A36A9E4258
:10081800DFD14FF0000B0423C4E90BB3F318A56232
:10082800636333685B4503DA681C06EB8000A3E763
:1008380001230093D1E7092021E700BF0000000051
:100848000023D5E60123D3E60223D1E62DE9F041C2
:100858000546C2B014461E46042925D8DFE811F023
:1008680005001C002400D6000401EEB9836B92B287
:100878000121043001FA06F717421CBF53F8047B24
:1008880040F826700136102EF4D1A60400D4AB63CC
:10089800002042B0BDE8F081012E4FEA124794B221
:1008A80004D13B19102B41D90220F2E7052EFBD1C8
:1008B80007EB0408B8F1200FF6D80F2F4DD9002CFC
:1008C800E6D003685807A04608D5284623F0040355
:1008D80040F8D03B00F010F90F2F48D9684600F0D7
:1008E8000BF9AB6B102F3A4642A938BF102201EB27
:1008F800C2024FEA4808A2F5C47208F1FF38101F77
:100908004FEA880102EB88021C4654F804CB40F8F1
:1009180004CF8242F9D10A1D012E134417D00F2F9C
:10092800AB636FD9684600F0E3F8B1E7102FBBD08E
:100938000368DA0705D523F0030340F8483B00F0C5
:10094800CBF820A800F0C8F8AB6B002C3FD10433DB
:10095800AB6320A800F0BCF89AE7B8F1100F036861
:100968002DD9DC07A8F1100842D45807ADD420A827
:1009780000F0BAF8C7F11004684600F0BDF864004A
:1009880020AAAB6B02EBC702013C101FA10002EBCF
:1009980084021C4654F804CB40F804CF9042F9D1A5
:1009A8000A1D1344B8F1000F9CD1012ECFD00F2F90
:1009B800AB633FF66DAF20A800F092F868E7D9075F
:1009C8000DD420A800F090F8AB6B002CF3D0640095
:1009D80020AA02EBC702013C4FF00008D5E723F03C
:1009E800010343F0020340F8483B00F07DF8E8E7D4
:1009F80023F0010343F0020340F8483B00F074F889
:100A08002B68B2E720A800F06BF88BE7032E7FF481
:100A18004BAF97B207EB1244102C4FEA12463FF641
:100A280043AF0368190706D523F00803036000F5F0
:100A3800A87000F087F820A800F084F8AA6B20AB13
:100A480003EBC603F900D41A03EBC707BB4203EB59
:100A5800040005D10A44AA6320A800F051F817E75A
:100A6800006843F8040BF1E7002E7FF41DAF102A4D
:100A78003FF61AAF0368DA0606D523F010030360C1
:100A880000F5E87000F08AF820AE304600F086F8ED
:100A9800AB6B0022012101FA02F020421CBF53F87F
:100AA800040B46F822000132042AF4D1AB63304625
:100AB80000F06AF8ECE600BF00F1340191E8380074
:100AC8009C46A6464CF8045D90E8FF0FE54600BD3D
:100AD80090EC210B704700BF80EC210B704700BFE2
:100AE80090EC200B704700BF80EC200B704700BFD4
:100AF800D0EC200B704700BFC0EC200B704700BF44
:100B0800F0EC0201F0EC0211F0EC0221F0EC023101
:100B1800F0EC0241F0EC0251F0EC0261F0EC0271F1
:100B2800F0EC0281F0EC0291F0EC02A1F0EC02B1E1
:100B3800F0EC02C1F0EC02D1F0EC02E1F0EC02F1D1
:100B4800704700BFE0EC0201E0EC0211E0EC02218A
:100B5800E0EC0231E0EC0241E0EC0251E0EC026131
:100B6800E0EC0271E0EC0281E0EC0291E0EC02A121
:100B7800E0EC02B1E0EC02C1E0EC02D1E0EC02E111
:100B8800E0EC02F1704700BFB0FC0181B0FC0191BC
:100B9800B0FC01A1B0FC01B1704700BFA0FC01810D
:100BA800A0FC0191A0FC01A1A0FC01B1704700BF0D
:100BB800EC4600B52DE900502DE9FF1F4FF000036A
:100BC8002DE90C0001A9FFF731FCDDF840E012B077
:100BD800704700BFEC4600B52DE900502DE9FF1F16
:100BE8004FF000032DE90C0001A9FFF755FCDDF8D3
:100BF80040E012B0704700BFEC4600B52DE9005048
:100C08002DE9FF1F4FF000032DE90C0001A9FFF7A4
:100C180063FCDDF840E012B0704700BFEC4600B559
:100C28002DE900502DE9FF1F4FF000032DE90C00BE
:100C380001ABFFF728FCDDF840E012B0704700BFB9
:100C4800EC4600B52DE900502DE9FF1F4FF00003D9
:100C58002DE90C0001AAFFF795FCDDF840E012B081
:100C6800704700BF430803F05533C01A00F0333310
:100C7800800800F03330184400EB10104FF00133B7
:100C880000F00F305843000E70472DE9F0478646B4
:100C98008C460846089E154674461946002B40F0B7
:100CA800C2808542B2FA82F245D94AB1C2F1200324
:100CB80000FA02FC2EFA03F3954043EA0C0C944028
:100CC8004FEA154EA8B2BCFBFEF8230C0EFB18CC5D
:100CD80008FB00F943EA0C43994528D9EB1808F1B9
:100CE800FF3704D2994502D9A8F102072B44A3EB98
:100CF8000903A4B2B3FBFEFC0EFB1C330CFB00F093
:100D080044EA0344A04214D92C190CF1FF3304D24D
:100D1800A04202D9ACF102032C44241A43EA07404A
:100D28001EB1D440002334607360BDE8F0874746A5
:100D3800DDE76346F1E792BB431B01214FEA154EFD
:100D4800AFB2B3FBFEFC200C0EFB1C330CFB07F808
:100D580040EA0343984562D9EB180CF1FF3004D2FE
:100D6800984502D9ACF102002B44A3EB0803A4B2C6
:100D7800B3FBFEFC0EFB1C330CFB07F744EA0344F1
:100D8800A7424ED92C190CF1FF3304D2A74202D93D
:100D9800ACF102032C44E41B43EA0040C0E7C2F173
:100DA800200320FA03F1954090402EFA03F3034301
:100DB8004FEA154EAFB2B1FBFEFC0EFB1C10190C2E
:100DC8000CFB07F841EA0041884504FA02F422D9ED
:100DD80069180CF1FF3004D2884502D9ACF1020041
:100DE8002944A1EB08019BB2B1FBFEFC0EFB1C11D0
:100DF8000CFB07F743EA01439F420ED9EB180CF1AD
:100E0800FF3104D29F4202D9ACF102012B44DB1B13
:100E180041EA004192E76046E3E76146F7E760464A
:100E2800A3E76346B7E7834206D916B90021084607
:100E38007BE7C6E900E0F9E7B3FA83F78FB98342A5
:100E480001D3724508D8BEEB020460EB030301200E
:100E58009C461EB9002168E73846FAE7C6E9004C07
:100E6800F8E7C7F1200CBB4022FA0CF41C432EFA19
:100E78000CF120FA0CF3B84001434FEA14490EFA7A
:100E880007F5B3FBF9F81FFA84FE09FB18300B0CC1
:100E980008FB0EFA43EA00439A4502FA07F240D9E2
:100EA800E31808F1FF3004D29A4502D9A8F10200EC
:100EB8002344A3EB0A0389B2B3FBF9F809FB1833FF
:100EC80008FB0EFE41EA03418E452CD9611808F152
:100ED800FF3304D28E4502D9A8F10203214443EA24
:100EE8000040A0FB0298A1EB0E014145CE464346C7
:100EF80002D306D14D4504D2B9EB020E68EB0403C8
:100F08000138002EA6D0B5EB0E0261EB030101FA01
:100F18000CFC22FA07F34CEA0303F940C6E9003156
:100F280098E74046C5E74346D9E710F8012B11F882
:100F3800013B012A28BF9A42F7D0D01A7047027A9B
:100F480003467AB9427A82B1013A42724268111D67
:100F580012680260416003221A721A68100E1202A7
:100F68001A607047013AD2B2F6E7B02070471FB551
:100F780003AB009300230C221946FFF7BBFA039832
:100F880005B05DF804FBF2E72DE9F043054685B0AE
:100F98000E464FF000083046FFF7D1FFB028044650
:100FA80015D1B8F1000F0ED103AC43460E224146CD
:100FB80000942846FFF79EFA009443460F224146C4
:100FC8002846FFF7BBFA002005B0BDE8F08302060B
:100FD8001DD4002303AF4FEA8009194600970D225C
:100FE8002846FFF787FA5FFA89F9039B09F1040994
:100FF80014F0400F14BFA3EB09034B44039300976D
:1010080000230D2219462846FFF798FAC3E700F097
:10101800F003802B18D104023046FFF790FF0443F9
:10102800B4F5004F01D10920CEE724010023A2B274
:1010380019462846FFF70AFC0028F4D114F4004F9B
:1010480018BF4FF00108A6E7902B0DD100F00D0353
:101058000D2BE8D003AF002300F00F0200971946CC
:101068002846FFF747FACAE7A02B13D1C34303F07A
:1010780007034FF47F621A41030702F47F6201D528
:1010880042F48042002319462846FFF7DFFB002878
:1010980081D0C8E7B02B46D1B12808D13046FFF738
:1010A8004EFF431EDBB20E2B0246EBD9BBE7B2283C
:1010B80020D1002303AC0D22194600942846FFF7DF
:1010C80019FA3046FFF73BFF022700F07F0110F0C6
:1010D8008003039A01FA07F105D102F501720A4467
:1010E800039200948DE70A44304603920737FFF7CE
:1010F80026FFEAE7B3280BD13046FFF720FF0203AB
:1011080000F00F0002F47022013001230243BAE715
:1011180000F0FC03B42B86D000F007020132012353
:1011280042F40022AFE7C02B44D1C6280AD130468A
:10113800FFF705FF020300F00F0002F470220130F0
:101148000323E3E7C7280BD13046FFF7F8FE431E19
:10115800DBB20E2B02463FF666AF0023042193E76D
:1011680000F0F803C02B06D100F00F020132032370
:1011780042F4202287E7C8280DD13046FFF7DFFE6A
:1011880000F0F00200F00F0010320130052340EAB1
:101198000232012178E7C9287FF445AF3046FFF7CE
:1011A800CEFE020300F00F0002F470220130052386
:1011B8000243EEE700F0F803D02B7FF434AF00F0E1
:1011C80007020132052342F40022E2E71FB5034675
:1011D8000846DA6C536808321902019102921B0E14
:1011E800032201A98DF80C208DF80D30FFF7CCFEF5
:1011F80005B05DF804FB08B5FFF7C5FE806C08BDB7
:1012080008B5FFF7C0FEC06CC379023300EB83005A
:1012180008BD000038B5836805699C697CB112F483
:10122800000F06D02D6801238B401D4201D082F0AB
:10123800C062044B134002F01662A04738BD6FF03D
:101248005700FBE74000000608B5024B1B689847AB
:1012580008BD00BFC0000020014B1860704700BFE8
:10126800C000002000B585B00A4600230093019312
:101278000293039302238DF80230044B0193014635
:10128800684603F0E1FD05B05DF804FB5112000863
:1012980070B506460D46002404E0044B1B68305D1B
:1012A80098470134AC42F8D370BD00BFC00000209D
:1012B80080B505460E461746984602F027FF0346B6
:1012C8000CF04CFC0446DFF8189049F80030424610
:1012D80039463046A84754F8090000F02DFA00BFF7
:1012E80008000000034A536843F0020353600020DB
:1012F800704700BF002004E0084B1A6842F480726F
:101308001A601A6842F400721A601A6842F480621D
:101318001A60034B034A1A60704700BF003C024042
:101328005C0100200024F400014B0360002070479A
:101338000CE2000808B5034B1B68984700F02EF82C
:1013480008BD00BFC400002030BFFFF7FDBF00BFCD
:1013580038B50446054D2A4605490BF087FA054A73
:10136800002160190BF0A3F938BD00BF0000000090
:1013780004E200080800000070B50646054D064B5B
:101388001D444C1B2046FFF7E3FF083C746705F13A
:10139800080070BD0000000008000000054B5A69F5
:1013A8009B689A4204D0044A536843F080535360C0
:1013B800704700BF6006002000ED00E038B5154614
:1013C800204B9B6A13F4805F19D116241D4B9B6A2E
:1013D80013F4006F00D018241A4B9B6A13F4007F93
:1013E80010D0184B9A6B9B6A13F4004F09D0D9B1EF
:1013F800144A936A23F400439362192402E01724E1
:10140800E4E719240F4B9B6A13F4806F00D01A2469
:101418000C4B9B6A13F4807F08D10A4B9B6A13F428
:10142800005F04D01C2402E01924EBE71B24054AC2
:10143800936A43F47F439362012104F08EFA287083
:10144800204638BD00ED00E0174B9B6A13F0007F83
:1014580025D11D20144B9B6A13F0807F00D01F20DC
:10146800114B9B6A13F4002F00D021200E4B9B6A6E
:1014780013F4802F00D022200B4B9B6A13F4003FFB
:1014880000D02320084B9B6A13F4803F09D1064AF9
:10149800936A6FEA03436FEA1343936270471E200F
:1014A800D8E72420F3E700BF00ED00E081690D4B89
:1014B8005A6942F480725A61BFF34F8FBFF36F8F3E
:1014C80031F8021C5A6922F480725A61BFF34F8FB7
:1014D800BFF36F8F4DF60273994201D00020704719
:1014E8000120704700ED00E070B504461646324B07
:1014F8009B6A13F0100F1AD110252F4B9B6A13F01B
:10150800080F00D012252C4B9B6A13F0020F10D045
:10151800294B586B9B6A13F0800F3DD000293FD0B0
:10152800254A936A23F080039362132503E011256B
:10153800E3E76FF01500204B9B6A13F0010F00D012
:1015480014251D4B9B6A13F0200F00D015251A4B4C
:101558009B6A13F0100F04D1174B9B6A13F0020F0C
:1015680004D0154B5B6813F4006F1BD1124B9B6AB8
:1015780013F0200F04D0104A536A23F40053536227
:101588000D4A936A43F0FF0393620121204604F059
:10159800E4F93070284670BD6FF015001325CAE7CE
:1015A8001325C8E7214600F089F90028DED080F32A
:1015B80009880225DAE700BF00ED00E038B50546E6
:1015C80000230B701A4BD86A10F002002DD10C467C
:1015D800DB6A002B2ADB164BD86A10F0804025D036
:1015E8002846FFF763FF08B128681FE0104B9B6A85
:1015F80013F0FF0F0DD10E4B986A10F47F400ED1F7
:101608000B4B9B6AB3F5803F10D32846FFF71CFFAE
:101618000CE0224601212846FFF766FF06E0224635
:1016280001212846FFF7CAFE00E0002038BD00BFB0
:1016380000ED00E030B58BB00C46264B5968C1F37D
:101648000801002383F31188BFF36F8F02F07F43F3
:10165800B3F17F4F15D102F00C03082B14D012F010
:10166800080F0BD000250DF12702204604F07AF967
:1016780086469DF8273053B10BB030BD044601258E
:10168800F1E700252C46EEE700252C46EBE70DF1A7
:10169800040C20686168A268E368ACE80F00206960
:1016A8006169A269E369ACE80F0045B1C3F30802B8
:1016B8005AB96FEA53236FEA4323089305E0089B5E
:1016C80023F4FF7323F00103089301A9704604F083
:1016D80035F9D1E700ED00E0044B5A6942F01002F9
:1016E8005A615A6922F008025A61704700ED00E019
:1016F800EFF30880EFF3098101B57246FFF79AFF0F
:1017080001BD00BF0A4880F30888102080F31188C3
:1017180008484FF40461401880F30988EFF31480F7
:101728000221084380F31488BFF36F8F00F082F81A
:1017380040440020801A002008B50A4B9B68834269
:1017480002D002F0E9FC08BDEFF30583002BF8D0C6
:10175800054B5A6842F080525A605A6A22F4004295
:101768005A62EEE76006002000ED00E014498A683E
:101778004FF030001044EFF3098C80E8F01F102080
:1017880080F31288BFF36F8F0E4F4FF000664A69DF
:101798008A603E60506F0C4C2060906F0023936706
:1017A80080F3118804B5104600F004F9BDE8044040
:1017B80002F1300090E8F01F8CF3098870470000B0
:1017C8006006002004ED00E0380400201EF0040F3D
:1017D8000CBFEFF30880EFF30980816911F8021C50
:1017E8000229FFD001B5724604F0B1F801BD00BF6F
:1017F800002807DB00F01F02400901239340024A3A
:1018080042F82030704700BF00E100E0002808DB04
:101818000901C9B200F1604000F5614080F8001389
:10182800704700F00F000901C9B2014B1954704705
:1018380014ED00E008B50F4B0F4A22F07F029A60C2
:10184800BFF34F8FBFF36F8FD3F8882022F4700255
:10185800C3F88820EFF3148323F0040383F3148878
:10186800BFF36F8F01F0EAFC02F0B0FD00F06AF8F8
:1018780001F04CFD00ED00E00000000810B4A2F1FA
:1018880020040D4942F8081C21F0010142F8081C07
:1018980042F8203C019B42F81C3C029B42F8183C51
:1018A800039B42F8143C4FF0807342F8043C0465F3
:1018B8000023836710BC7047B91200080E4B9B6861
:1018C800A3B110F1160F0AD05A6EA2F1400C84454C
:1018D8000ED882420ED98A4206D8002070475A6E26
:1018E8008A4201D800207047586E70470020704720
:1018F80000207047002070476006002008B50E469B
:101908001546094A9060426F084B1A6000F052F879
:101918002C4686F309880020054B9847204600216D
:1019280000220023034C20476006002038040020D2
:10193800D5590008B9120008014B10221A617047E6
:1019480000ED00E0002206E003F00F030949194406
:1019580010230B760132512A0ADC53B2002BF3DB39
:1019680003F1604303F56143102183F80013F1E7A5
:10197800704700BFFCEC00E008B5EFF30583103BAF
:10198800044A02EBC301496852F833008847FFF75D
:1019980005FD08BD78DE000808B5034B034A0121A0
:1019A800034804F057F908BD000002200000002099
:1019B8000CE2000808B5436E403B0548036040232D
:1019C8004360044B8360012104F048F908BD00BF5F
:1019D8003C04002000000B15084AC2F898000B6868
:1019E80023F01F03034343F01003C2F89C308B68B5
:1019F80043F00103C2F8A030704700BF00ED00E0DB
:101A0800084BD3F89030C3F30723013B984205D81D
:101A180010B50446FFF7E0FF204610BD6FF0150033
:101A2800704700BF00ED00E010B5034C0123227899
:101A380004F010F8207010BD401A002008B50023EB
:101A48000B4A127804F006F810F1160F0FD0024670
:101A580006E0084BC3F898200021C3F8A010013213
:101A6800044BD3F89030C3F307239342F1DC08BD4D
:101A7800401A002000ED00E0044B0522C3F8942032
:101A8800BFF34F8FBFF36F8F704700BF00ED00E0CB
:101A9800BFF35F8F024B0022C3F89420704700BF4A
:101AA80000ED00E038B51C4B1D681C4BD3F8903096
:101AB800C3F307239D422BD8FFF7EAFF002409E070
:101AC800154B5B6804EB440103EB81012046FFF7EB
:101AD80083FF0134A542F3D81148057003F0E2FFF3
:101AE80010F1160F13D00E4B1A780C4BD3F8903018
:101AF800C3F307239A4207DA084BC3F8982000215A
:101B0800C3F8A0100132F0E7FFF7B6FF002038BD98
:101B18004FF0FF30FBE700BF18E2000800ED00E0DF
:101B2800401A002008B5024B1B689847002008BDE2
:101B380048040020034B1860034A937843F00203DB
:101B48009370704748040020C800002008B5054875
:101B580003F0E5FE002383F31188BFF36F8F04239E
:101B6800184602DF48E2000808B54FF0FF324FF090
:101B7800FF33024804F07BF808BD00BFD8000020FE
:101B880008B5064921F00701C1F1005202F50032FB
:101B9800034803F080FE002008BD00BFC7480020AE
:101BA8004C04002038B50446FFF7DEFF2246082122
:101BB800084803F0F9FD054620B1074801F064FC28
:101BC800284638BD002CF8D00BF0C8FF034B0C2278
:101BD8001A50F2E74C040020D80000200C00000046
:101BE80010B50446FFF7C0FF2146034803F098FDEF
:101BF800024801F049FC10BD4C040020D800002028
:101C080070B50546002401E00134E4B26B78A342C4
:101C180015D32B782344DAB201209040084A526940
:101C280030EA0202F0D1064A5061064A52F833609F
:101C3800002EE9D002EBC3035968B047E4E770BD52
:101C4800003C01405804002000B583B000230093F5
:101C58000193BDF80030442262F30B03ADF8003065
:101C68004FF480430193044883681B68694698478A
:101C780003B05DF804FB00BF10DD000800239942A3
:101C88000ADD10B400EB030C044C04F80C200133FB
:101C98009942F7DC10BC7047704700BFEC00002089
:101CA8005FFA81FC0CF102020A4B53F822200B0C5C
:101CB80022EA114193FAA3F34BB1B3FA83F39840A4
:101CC80001430CF1020C034A42F82C107047202300
:101CD800F5E700BF00380140C3B20233074A52F8A3
:101CE8002320030C02EA104093FAA3F31BB1B3FAC2
:101CF80083F3D84070472023FBE700BF003801403A
:101D080008B5034668B1B0FA80F2C2F11F02D2B238
:101D180005498856054A11680B43136003F045FED0
:101D280008BDFF22F4E700BFEC000020003C0140A2
:101D3800024A136823EA000313607047003C01401D
:101D4800032926D8DFE801F0020C151E114B9A680A
:101D580022EA00029A60DA6822EA0002DA60704732
:101D68000C4B9A6802439A60DA6822EA0002DA6049
:101D78007047084BDA680243DA609A6822EA000280
:101D88009A607047034B9A6802439A60DA68104376
:101D9800D8607047003C014010B498B1B0FA80F3A5
:101DA800C3F11F03DBB29C460D4850F8330088424C
:101DB8000AD088B90A4B43F83C1003EBCC035A60AD
:101DC80010BC7047FF23EEE7054C04EBC3035B68C8
:101DD8009342EED10020F3E76FF00F00F0E700BF69
:101DE8005804002060B1B0FA80F3C3F11F03DBB2DE
:101DF800044A002142F8331002EBC30251607047D5
:101E0800FF23F5E75804002010B5446808488368A4
:101E18001B68A168984738B9236906494A6822F4BB
:101E2800403213434B6010BD6FF00400FBE700BF66
:101E380010DD0008002301402DE9F04147680369DF
:101E4800D7F80080D3F8B85000260EE004EB44021F
:101E58001E3A44EA025297F92930012B1AD001237D
:101E6800A34025EA03050136F6B225B395FAA5F491
:101E7800B4FA84F40DB94FF0FF340134E4B2013CF4
:101E8800E4B2092CE2D804EB440244EA025242F0DC
:101E98000072E0E70C4B53F82610404604F02CF88B
:101EA8000A4B53F82630D8F82C2022F4700213433A
:101EB800C8F82C30D3E7D8F8043043F48073C8F856
:101EC80004300020BDE8F0813CE30008FCE2000893
:101ED80000B583B003460830D3F8903063332CBF85
:101EE8004FF0010C4FF0000CC3F31302190D41EA37
:101EF8000C311144104AA2FB01E2D20802EB820223
:101F080002EB82028A1A9B1A6CF1000C0B490C4AEC
:101F180003FB02F201FB0C22A3FB01310A449B08DC
:101F280043EA82739208009301920022002302F090
:101F380017FC03B05DF804FB1F85EB51295C8FC2C9
:101F4800F5285C8F08B5024804F0B7F908BD00BF52
:101F580014DE000870B5044605694668114805F0A6
:101F680089FED8B1C5F8A840FF2385F8BE3085F8AA
:101F7800BF302046FFF748FF0021706904F0C6F91A
:101F8800002807DB736803B19847284604F003F973
:101F9800002070BD10F1020FFBD1F3E76FF01200C3
:101FA800F7E700BF10DD000838B5154644680A4653
:101FB800217D206904F0FDF9A06918B12A46217F26
:101FC80004F0F7F9B4F87800054A002300F5C330A7
:101FD8009F300021FEF7D4F802F032F838BD00BF78
:101FE800A086010070B54468012294F82410206A84
:101FF80004F0DFF9B4F8740000250E4E801945F19D
:1020080000010D4A0023FEF7BBF802F019F82A4632
:1020180094F82410206A04F0CCF9B4F876008019FA
:1020280045F10001044A0023FEF7AAF802F008F877
:1020380070BD00BF9F860100A08601002DE9F84F02
:10204800824690464668012B03D083B904270224B0
:1020580001E000270124B2697AB1022B0AD04FF0BF
:10206800010B00225046FFF79FFF07251EE00427BB
:102078000124F0E74FF0000BF3E74FF0000BF0E717
:1020880028FA05F2631D06EBC30102F00102097983
:1020980056F8330004F08DF9013D6DB2013C64B28D
:1020A800BC42EDDA5046FFF79DFF4C4604F1FF397C
:1020B8004FFA89F90CB10724F2E7BBF1000F23D1DD
:1020C800B8F1010F22D025236333C3F3130202EBC7
:1020D8001351104AA2FB0102D20802EB820202EB62
:1020E80082028A1A9B1A60EB00000B490B4A03FB19
:1020F80002F201FB0022A3FB01310A44980840EADE
:102108008270910801F09CFFBDE8F88F4FF4BE6320
:10211800DAE700BF1F85EB51295C8FC2F5285C8F79
:1021280070B5456806692B7901220021FFF786FF03
:10213800002434807480B5F87A0063300E4BA3FB1A
:102148000013DB0803EB830303EB8303C31AC01AF2
:1021580062EB0202094B0A4900FB01F103FB021181
:10216800A0FB03031944800840EA8170890801F044
:1021780067FF204670BD00BF1F85EB51295C8FC2E9
:10218800F5285C8F0C4B1B6813F0020F09D10A4A23
:10219800136843F001031360074B1B6813F0020F29
:1021A800FAD0054A936823F003039360024B9B68B7
:1021B80013F00C0FFAD17047003802400C4B1A6824
:1021C80022F480221A601A6842F480321A60084B9E
:1021D8001B6813F4003FFAD0054A536F43F001031C
:1021E8005367034B5B6F13F0020FFAD0704700BFC1
:1021F80000380240F8B50C461546454B1E680421C8
:10220800304604F00EFB07460221304604F009FB75
:102218002388C3F30B021346442A29D812B2002A92
:102228006ED0013B432B6ED8DFE803F03D5D606460
:10223800673F496D6D536D6D6D6D6D6D6D6D6D6D38
:102248006D6D6D6D6D6D6D6D6D6D6D6D6D6D6D6DB6
:102258006D6D6D6D6D6D6D6D6D6D6D296D6D6D292E
:102268006D6D6D376D6D6D6D6D6D6D396D6D6D3B32
:10227800A82A01D12E6003E06FF0850045E02E60AA
:102288002368B3F5805F41D32A68C3F3133301335E
:10229800B2FBF3F22A60002037E02E60F0E72F60EF
:1022A800EEE72860ECE72E60EAE700F0E5F80223A5
:1022B8004FF4A872082104F0ADFA2860E0E700F0B6
:1022C800DBF807234FF4A872082104F0A3FA28606A
:1022D800D6E700F0D1F8022340F20F12082104F0EB
:1022E80099FA2860CCE700232B60C9E74FF4FA433A
:1022F8002B60C5E700232B60C2E7064B2B60BFE7C6
:102308006FF0850001E06FF08500F8BD0020FCE764
:102318005C01002000127A0010B51D4B9B6803F089
:102328000C03082B2CD01A4A136823F0807313600F
:10233800174B1B6813F0007FFAD1154C636823F420
:1023480040336360636823F0706343F0E063636065
:1023580000F096F8236843F0807323600C4B1B68E9
:1023680013F0007FFAD004F0F5FA094A136843F035
:1023780080631360064B1B6813F0006FFAD010BD22
:10238800FFF700FF024A936823F0F0039360CAE75F
:102398000038024038B500F095F8214C204604F08A
:1023A800D5FA00F07FFD1F4B9B68C3F303131E4A49
:1023B800D35C20FA03F513781C41A54228D3FFF714
:1023C800FDFEFFF7A9FF174A936823F0F003936017
:1023D800936823F0030343F002039360114B9B6857
:1023E80003F00C03082BF9D1A54215D20F4B0C4A68
:1023F8001A600C4A936823F4E05343F4A0539360A3
:10240800936823F4604343F400439360002038BD8D
:10241800204600F0B5FDD2E7204600F0B1FDE5E723
:10242800007A030A00380240F8E600085C01002040
:1024380030B500F0800E0D4D5EF8054024F4800C98
:1024480020F080004CEA00004EF80500084C606857
:1024580020F03F0008436060D4F88400054901403B
:1024680043EA82131943C4F8841030BD043802408B
:10247800003802403F80FF8F0048704700127A0002
:1024880008B504F064FA0B4B59680B4A0A4040F44B
:10249800A84141F008010A435A605A6822F44032C0
:1024A8005A605968054A0A40054901430A435A6077
:1024B80008BD00BF003802400080BFFF0080BFF0A9
:1024C8000854000782B0064B1A6C42F080521A6416
:1024D8001B6C03F080530193019B02B0704700BF4F
:1024E8000038024010B504460A2806D0E1B2064872
:1024F80083685B689847204610BD034883685B681B
:102508000D219847F2E700BF00DE000810B5044C23
:102518002046FFF70FFB2046FEF79EFE10BD00BFCA
:10252800ED24000808B5054805F0A4FB18B1FFF72D
:10253800EDFF002008BD6FF01200FBE700DE000889
:1025480038B5836805699C697CB112F4000F06D020
:102558002D6801238B401D4201D082F0C062044BDC
:10256800134002F01662A04738BD6FF05700FBE732
:102578004000000638B544680569606805F07AFBD4
:10258800F8B1E06800B305F075FBF8B14FF480319D
:1025980004F10C0004F034FAD8B9E068217C4FF05B
:1025A800B862FFF7CDFFB8B9227C012393400D4AEA
:1025B8002A646B6405F13C01E06804F02CFA70B9F8
:1025C80038BD6FF01200FBE70020F9E76FF012004A
:1025D800F6E76FF00400F3E76FF00400F0E76FF040
:1025E8000400EDE75B6D000808B5436831B10748A2
:1025F8008268126803F10C01904708BD034882689D
:10260800526803F10C019047F7E700BF10DD00089E
:102618002DE9F8430F4614461D46D0F80480D0F83B
:102628001090D8F8080003F070FB0646B4F1026F6A
:1026380014D0B4F1046F15D0B4F5001F16D0B4F55A
:10264800800F35D0B5F1806F2ED0B5F1C06F2DD089
:10265800B5F1007F11D06FF0150422E0FFF768FB99
:1026680000241EE0FFF74CFB00241AE03946D8F896
:10267800080004F06FFD002413E002254A460F49C4
:102688003046FFF789FB0446A8B9D8F80810384641
:1026980003F03EFB29463046FFF752FB3046FFF772
:1026A8002FFB2046BDE8F8830125E7E70325E5E78A
:1026B8006FF08504F5E76FF00F04F2E72B6E000862
:1026C80010B5044603695860074805F0D3FA38B1D5
:1026D80001212046FFF788FF002800DB002010BDFD
:1026E8006FF01200FBE700BF10DD000830B52A4C80
:1026F800A4FB014E4FEA9E4C446824F03F0444EA90
:102708009E444460046A24F03F04244DAA421BD826
:102718000CF1010C44EA0C040462204CA24231D9A9
:10272800F3B902EB4202B1FBF2F2C2F30B0119B3A7
:1027380042F400410B43C26922F44F4C2CF0FF0CC9
:102748004CEA0303C36130BD4FF4967505FB0CFCDE
:10275800134DA5FB0C5C4FEA9C1C0CF1010CD9E74E
:1027680002EB820202EB8202B1FBF2F2C2F30B012E
:1027780029B142F40041DDE748F20101DAE748F205
:102788000101D7E75200B1FBF2F340F6FC721342A5
:10279800D1D10423CFE700BF83DE1B43A08601000D
:1027A800D34D6210F0B583B004461546066900277C
:1027B800009704F0BAFE204604F027FD41F2883263
:1027C8000023304600F0FCFE30B9064A2946204670
:1027D80004F05EFD03B0F0BD204604F025FD6FF067
:1027E8000400F7E78CE50008F0B583B00446154609
:1027F80046680769F6684FF0010CCDF800C004F090
:1028080094FE204604F001FD736843F4C0637360CE
:1028180041F288320023384600F0D2FE30B9064A29
:102828002946204604F034FD03B0F0BD204604F0EC
:10283800FBFC6FF00400F7E778E5000808B542688C
:102848000369D0681B6BC3F34203012B04D0022B2E
:1028580008D06FF0150008BD0023054AFFF746FFB2
:102868000020F8E70023034AFFF740FF0020F2E7C3
:10287800A0860100801A0600104B984213D00AD98E
:102888000F4B984215D003F5C31303F52063984204
:1028980011D10A2070470B4B984206D00A4B984238
:1028A80005D1042070470620704702207047002099
:1028B8007047082070470020704700BF40420F0053
:1028C80040E13300A0860100801A060010B5446874
:1028D8000021606904F05BFF002805DB0448836879
:1028E8001B686168984700B910BD6FF00400FBE7EA
:1028F80010DD0008F0B583B00E4643680569DF684F
:10290800002201925968194B9B68DB6853B304464F
:1029180001AA16489847002824DB2E6305F11806FB
:102928004FF0FF324FF0FF33304600F049FE3B686E
:1029380023F001033B6095F85E10204604F037FF52
:1029480001992046FFF77AFF044695F85D301BB1E0
:102958003B6843F001033B60304600F0EBFD204646
:1029680003B0F0BD6FF00404F9E700BF10DD000804
:1029780070B50446466805694FF0FF3200212846C5
:1029880005F0DEF9336820469847002385F85C3067
:1029980085F85E3005F118000122114605F0D0F9DE
:1029A8000C4805F067F988B12046FFF78FFF3069BA
:1029B800FFF762FF40F010012046FFF79BFF002859
:1029C80003DB012385F85C30002070BD6FF0120036
:1029D800FBE700BF10DD0008B0F5887F17D2F8B517
:1029E80004460D46164603090A4A52F823705FB199
:1029F800384605F03FF938B133462A4604F00F014E
:102A0800384604F0BFFBF8BD6FF01200FBE76FF02B
:102A18001500704740E6000810B50446B2F5004FAF
:102A28002FD04FF0000C48184CEB0C0C40184CF110
:102A3800000C4FEACC0C4CEA507CC00040184FEA1E
:102A480083024FEA93734CF10001FDF799FB244987
:102A5800A1FB00235B091A0192B24FF0640C0CFB36
:102A680013031B013233A1FB0313C3F34F1303F00A
:102A7800F0010A4492B203F00F0313449BB2A3601F
:102A880010BD4FF0000C48184CEB0C02401842F1F6
:102A98000002D20042EA5072C000401842F1000120
:102AA800DA184CEB0C03FDF76BFB0D49A1FB002377
:102AB8005B091A0192B24FF0640C0CFB1303DB00A4
:102AC8003233A1FB0313C3F34F13590001F4F87118
:102AD8000A4492B203F0070313449BB2A360CFE702
:102AE8001F85EB512DE9F0410C4643681D680369C9
:102AF8005E680B79012B58D0022B59D14FF48067AF
:102B08006279012A59D0022A59D0002A52D04FF4AA
:102B1800005194F806E0BEF1040F53D0002B54D1B5
:102B28004FF00008A3F1030C5FFA8CFCBCF1010F15
:102B38005BD913B1BEF1040F5AD0B1F5805F49D00B
:102B4800B1F5405F48D0002942D003239A4252D1C0
:102B5800B8F1000F42D1002F45D103239E454DD136
:102B6800E37983B1012B4CD1294B9D420BD0A3F5BE
:102B78004C439D4207D003F580639D4203D003F583
:102B88004C439D4240D1EB6823F40053EB6021464F
:102B980004F0BEFEEB6843F40053EB6094E80300D6
:102BA80086E803000020BDE8F0814FF4C067A7E77E
:102BB8000027A5E74FF48051ABE70021A9E74FF4C0
:102BC8004051A6E74FF48058ACE74FF48058A9E786
:102BD8000123BBE70023B9E70223B7E70FB90423B2
:102BE800BCE70323BAE70223B8E76FF08500DAE70A
:102BF8006FF08500D7E76FF08500D4E76FF08500A8
:102C0800D1E76FF08500CEE76FF08500CBE700BF16
:102C18000010014008B5024A04F04EFF08BD00BF8D
:102C28002F7B000808B5024A04F060FF08BD00BF0A
:102C3800357B000838B5456804690748206005F009
:102C480019F828B1206883681B68E968984738BD77
:102C58006FF01200FBE700BF10DD00084FF0E02323
:102C6800996918699A6909B90C4B19680AB90B4B23
:102C78001A6810F4803F01D1914208D208490B68C4
:102C88000648006803440B604FF0E0231B69034BC0
:102C98001B689B1A024A1068184470475C0600209B
:102CA800580600200A4B102283F82320094B44F2CF
:102CB800A0121A600020084B18604FF0E02344F27D
:102CC8009F125A6198611A6942F007021A617047A7
:102CD80000ED00E05C06002058060020684620F061
:102CE80007018D4619B5FFF7B9FF12480368124A64
:102CF800516814681B1941F10001136051600022EA
:102D080002600E490A68981A0D4BA3FB0030800B2D
:102D180044F2A01300FB03F3D2184B6843F10003FD
:102D28000A604B6001F020FCFEF738FBBDE8194053
:102D38008546704758060020A00100209801002011
:102D48002D34A9F9F8B500294BD0B0F1FF3F3DD09B
:102D58003E4B1C6801284CDD40F2E6339842A8BF80
:102D68001846461EEFF31185102383F31288BFF32C
:102D78006F8FFFF773FF4FF0E0239F69344A1368A2
:102D88005168C31841F10001136051600021314AB4
:102D98001160314A11685A1A2DD444F2A01000FB70
:102DA800062202F583421F322C4EA6FB0262920BCA
:102DB800C91A00FB021140F21A438B4238BF0B4676
:102DC800274A914235D9214B1A6018E04FF0E0228A
:102DD800136923F0010313611C4B4FF07F421A6003
:102DE80026E01A4B1C68B0F1FF3FB3D140F2E53042
:102DF800B2E70026B6E7154B40F21A421A604FF0C8
:102E0800E0239969114A1268013A5A6100229A61CD
:102E18008F4211D2641A3C440D4A136851681B1939
:102E280041F100011360516085F31188BFF36F8F82
:102E3800F8BD064A1360E2E77F1A054A136851682D
:102E4800DB1941F1000113605160EDE75C060020D9
:102E5800A001002058060020980100202D34A9F96F
:102E68002094FF0038B5EFF31185102383F31288FF
:102E7800BFF36F8F084B1C68084B1B68E41AFFF7F9
:102E8800EDFE204485F31188BFF36F8F044BA3FB3D
:102E98000030800B38BD00BFA00100209801002041
:102EA8002D34A9F908B5334B9B6803F00C03042BA8
:102EB8005BD0082B5BD12F4B5A6802F03F025B684E
:102EC80013F4800F2CD02B4B5868C0F388104FEAAE
:102ED800401CBCEB000C6EEB0E0E4FEA8E1343EA5F
:102EE8009C634FEA8C11B1EB0C0163EB0E03DB0022
:102EF80043EA5173C90011EB000C43F10003590276
:102F080000234FEA4C2041EADC51FDF739F9194B0F
:102F18005B68C3F3014301335B00B0FBF3F027E0C8
:102F2800144B5868C0F388104FEA401CBCEB000CE7
:102F38006EEB0E0E4FEA8E1343EA9C634FEA8C1138
:102F4800B1EB0C0163EB0E03DB0043EA5173C900DC
:102F580011EB000C43F10003990200234FEA8C2087
:102F680041EA9C51FDF70CF9D1E7034800E003481A
:102F780008BD00BF0038024000127A000024F400A7
:102F88000246002850D02A4B1B6813F480431DD0FA
:102F9800284B984204D8284B984212D9002300E0C5
:102FA800052383B125498A4201D903B9032324495A
:102FB8008A4200D94BB123498A4207D933B9012340
:102FC80004E00023EEE70423ECE70223184909682C
:102FD80011F4804F14D118498A4201D903B9042346
:102FE80016498A4201D903B9032315498A4200D9EF
:102FF8002BB114498A4203D913B9012300E00223F3
:1030080011490A6822F007021A430A6002210E4A8F
:10301800126802F007020139934201D00029F6D163
:10302800934203D001207047012070470020704769
:103038000070004080D1F008000E2707804A5D0527
:103048000087930380C3C901003C0240034B00E0A2
:103058001433034A9342FBD3704700BF10DD0008C6
:1030680078DE000838B50546B8B10378BBB10D4C19
:103078000D4B9C420ED22168A94205D02846FDF787
:1030880054FF08B11434F3E7204604F0F3FD10B9F7
:10309800002400E00024204638BD0446FBE7002455
:1030A800F9E700BF10DD000878DE000838B5EFF357
:1030B8001185102383F31288BFF36F8F054B9C682B
:1030C80004F0F0FD85F31188BFF36F8F2046FEF7FB
:1030D80033FB38BD6006002038B505460A4B53F867
:1030E800204002E02368984708346B1C064A52F8CF
:1030F8002330A34206D96368002BF3D0204604F09E
:10310800D4FDF1E738BD00BF10E7000810B586B060
:10311800104C04EBC01400EB400C00EB80000E4B8D
:1031280003EB800300220592012104910F210391F2
:10313800029201920093094B4FF4A072084901EBE7
:10314800CC11204600F0F6FB637B23F00403637385
:1031580006B010BDA801002060060020F57C00081C
:10316800C022002008B553EA020102D100F0AAFFEC
:1031780008BD0249183001F071F9F9E7CB80000861
:1031880010B586B0184C14E0636A0593236A04935B
:10319800E3690393A3690293636901932369009325
:1031A800E368A2686168206800F0C4FB23685C6576
:1031B80030340E4B9C42E7D300F052FE0A4C00E03C
:1031C80030340A4B9C420BD2A26AE36AB3F1FF3F48
:1031D80008BFB2F1FF3FF3D02068FFF7C3FFEFE766
:1031E80000F056FE06B010BD08E1000808E100082E
:1031F80008B50B4B01221A700320FFF76DFF01F091
:1032080017FB04F072FD0420FFF766FFFFF7B8FF15
:1032180002F077F8034A137B23F00103137308BD08
:10322800411A00202802002008B50146014A024838
:10323800FEF764FBF93100082802002008B50648AB
:10324800064A121A002104F048FD0548054A121AD8
:10325800002104F042FD08BD98010020501A00200A
:10326800000000100000001010B50446FFF74EFFE4
:103278000B4901EBC4110B4A04EB840302EB8303F3
:10328800D9601C7404EB4411074B03EB811303F55D
:10329800046304EB840402EB8402536010BD00BF96
:1032A800A801002060060020801A002070B586B0B2
:1032B80000F026FE104D114B5D61114B0593012363
:1032C8000493002403940294019400940D4B4FF44A
:1032D80000520D49284600F02DFB06466B7B23F073
:1032E80004036B73284604F084FE2046FFF7BCFFF6
:1032F800304606B070BD00BF2802002060060020DE
:1033080008E70008F93100084024002008B500202B
:10331800FFF7E2FE194B83F30888194C636943F4FD
:1033280000736361F02384F822300023E377237667
:103338006376A37684F82030636A43F4E0236362FB
:10334800FEF7CAF9FEF7F8FA4FF0FF33A362E3621B
:10335800FEF7A8FBFEF720FB0A4800F01BFBFFF76F
:1033680075FEFDF7C9FF0120FFF7B6FE0220FFF743
:10337800B3FEFFF79BFFFFF757FF00BFC0220020F7
:1033880000ED00E0A80200202DE9F04182B00446DB
:10339800EFF31187102181F31288BFF36F8FC16893
:1033A80099B9002950D1364B9B6893F90E302361A7
:1033B8000131E160324B9B68A36087F31188BFF34A
:1033C8006F8F002002B0BDE8F08116461D46826866
:1033D8002B4B9B689A42E4D055EA060136D092F905
:1033E8000E80414693F90E0004F08DFC804534DCD4
:1033F8004FF000080096019522463946214800F012
:1034080073FC0028DED0EFF31185102383F31288B4
:10341800BFF36F8FA36843B323689C4223D013B3D1
:10342800216993F90E0004F06EFC0146204604F071
:1034380075FCE8B9B8F1000F1AD185F31188BFF30C
:103448006F8F6FF00A00BDE72369B0E787F3118833
:10345800BFF36F8F6FF00F00B4E70146204604F00A
:103468005DFC8046C6E72169E0E7B8F1000FE4D0CB
:103478002946044800F0C8FC6FF00A00A2E700BF24
:103488006006002080060020F8B58368002B46D02F
:103498000446264A9268934244D1C368012B04D952
:1034A800013BC36000252846F8BDEFF311861023C1
:1034B80083F31288BFF36F8F016904F02FFC27682C
:1034C800BC420CD03D1E18BF012557B9A760CDB925
:1034D8000023E36086F31188BFF36F8FE3E70027CB
:1034E800F0E77A683B6813605A6000233B607B60B2
:1034F8007A7B22F002027A73BB6007F1180004F0AD
:103508008DFEE3E797F90E3023610025FD67384605
:1035180004F06FFD3146064800F076FCC3E76FF013
:103528001505C0E74FF0FF35BDE700BF6006002076
:1035380080060020F8B50446EFF31186102383F3C4
:103548001288BFF36F8F0568A84216D02F1E18BFC8
:103558000127A5B927BBA368E268934227D00122B7
:103568001344A360022104F1100004F009FF00BB1A
:1035780086F31188BFF36F8FF8BD0025E6E76A6808
:103588002B6813605A6000232B606B606A7B22F003
:1035980002026A73AB6005F1180004F03FFED9E738
:1035A8000023EB67284604F024FD0120DFE7002212
:1035B800D6E73146014800F027FCDDE78006002009
:1035C80010B582B0EFF31181102484F31288BFF391
:1035D8006F8F846844B1013C846081F31188BFF324
:1035E8006F8F002002B010BD53EA020406D000928B
:1035F80001930246054800F077FBF3E781F3118851
:10360800BFF36F8F6FF00F00ECE700BF800600205C
:103618002DE9F0410546EFF31187102383F3128853
:10362800BFF36F8FB846002618E0002419E06268DF
:10363800236813605A60002323606360627B22F072
:1036480002026273A36004F1180004F0E7FD6FF052
:103658000A03E367204604F0CCFC01262C68A54247
:10366800E3D0002CE3D1002CF1D10023AB60022180
:1036780005F1100004F084FE28B926B988F31188F2
:10368800BFF36F8F03E03946024800F0BDFBBDE889
:10369800F08100BF8006002070B338B50D4604469F
:1036A8001B4B9B6883421BD000231A46D4F89830E2
:1036B800C3F38001C3F3C00013F0010F1FD001B1A1
:1036C80002B300B109B300232B60D4F8843073B17E
:1036D8001D60C4F88450204604F058FB012038BD12
:1036E80004F0EAFB08B90123DFE70023DDE7C4F8AB
:1036F8008450C4F88050EEE76FF0150070476FF003
:103708001200ECE76FF00F00E9E76FF00F00E6E753
:103718006006002010B5C36823F00203C360134B92
:103728001C687CB1236803B10CB100210FE023466B
:10373800FBE722460D4804F016FB04F10800FFF7EA
:10374800F9FE10BD2346F0E71A461C461346002C26
:10375800F7D062688242ECD02146002BF4D01A6878
:10376800002AF2D0002BF0D11A46EEE7800600209E
:1037780070B584B00546EFF31186102383F31288E1
:10378800BFF36F8FD5F88040002C3FD02368C5F871
:103798008030D5F8842094424DD0D5F8983043F045
:1037A8000203C5F89830E36843F00102E26023F0B1
:1037B800040343F00103E360636886F31188BFF3F1
:1037C8006F8F20469847EFF31186102383F31288F2
:1037D800BFF36F8FE36823F00103E36013F0100F6A
:1037E80044D1E36813F0020F44D1D5F8983023F0A0
:1037F8000203C5F89830C3F3002386F31188BFF39A
:103808006F8F002BB7D100F083FBB4E7D5F8983061
:1038180023F00402C5F8982013F0040F0ED112F01B
:10382800100F14D00023C5F8983086F31188BFF321
:103838006F8F04B070BDC5F88430AEE705F1900411
:1038480000220121204604F07FFC0028F8D1002343
:1038580002934FF0FF324FF0FF33CDE9002305F11B
:1038680088023146054800F007FD84E7204604F049
:10387800D2FAB6E72046FFF74DFFB6E788060020E4
:1038880008B50146014804F0EAFA08BD48030020DB
:10389800F0B589B004460E9D0020C4F88000C4F835
:1038A800840004F18800C4F88800C4F88C0004F18E
:1038B8009000C4F89000C4F894002DB3287928BB70
:1038C8000120C4F898004FF0FF364FF0FF37CDE9DC
:1038D80006670020049003930290019000940D4B1A
:1038E800204604F0FDFA55B1296811B1204604F0CC
:1038F800E9FA6B791BB1237B43F00103237320465C
:1039080000F0E0FB09B0F0BD0120DAE740F2011059
:10391800D7E700BF7937000808B553EA020102D19A
:1039280000F0D0FB08BD0249183000F097FDF9E718
:10393800CB800008F0B585B004460E4615461F46F4
:1039480000F158038365C3650E9B04220D9904F0AA
:10395800BCFA2A463146204604F08BFA05460C9BF1
:1039680002930B9B01930A9B00933B460246314608
:103978002046FDF783FF00236365054B9B6823B151
:103988001B6F2367284605B0F0BD2367FAE700BF21
:103998006006002001234373037300234366836694
:1039A8000367014B9860704760060020094A9368D6
:1039B80098676FF00A01D96707494B6843F080534D
:1039C8004B60002383F31188BFF36F8F9368D86F20
:1039D800704700BF6006002000ED00E0437B90F9CF
:1039E8000D20002A51DB13F01F0F4ED110B563F0E4
:1039F8007F034373254A52F8183F93420ED10023A0
:103A08000CE05A6842600360106058601EE01A4675
:103A18001E49C9698A420FD01B687BB173B190F9FE
:103A28000E1093F90E209142F1D0521A002AE8DCC8
:103A38001A46002BECD1F0E70023EEE7134BDA69C6
:103A480003F11801016042601060D8610F4B53F810
:103A5800184F9C420ED06CB10C4B9B685A7B12F0ED
:103A68001F0F0AD1DA897F2A07D9A2692AB9074A1A
:103A7800536109E0054BDC68EEE7A34202D020461B
:103A880000F044FC014B5C6110BD704760060020EB
:103A980010B5437B90F90D20002A14DB154B9A686A
:103AA80053F8184F9C4219D0C4B1824219D0537BA5
:103AB80013F01F0F15D1D3897F2B12D9A36983B9AE
:103AC8000C4B5A6114E003F07F03437342680368A8
:103AD80013605A60002303604360DFE7054BDC682E
:103AE800E3E7A24202D0204600F010FC014B5C61E3
:103AF80010BD00BF600600202DE9F04105460C46C8
:103B08003D4B9E68737B13F0600F23D013F0200F9A
:103B180025D008271F421DD13B43737313F0800F34
:103B28001FD1082F28D04FF00008334B53F8186FD7
:103B38009E4246D0002E44D02F4B9B68B34202D001
:103B4800304600F0E3FB2C4B5E61102F02D0B8F139
:103B5800000F39D184F31188BFF36F8F45E0102728
:103B6800D8E703F07F0373737268336813605A6091
:103B7800002333607360D4E7B3685BB1726833685D
:103B880013605A60002333607360727B22F0020274
:103B98007273B360304604F0F9F906F1580004F086
:103BA800FAF9154B9B689E4202D04FF00008BCE71B
:103BB800EFF3058313B94FF00008B6E74FF001089B
:103BC800B3E70D4BDE68B7E70C48FFF7E3FEC1E744
:103BD800EFF31184102383F31288BFF36F8F04F07F
:103BE80090F884F31188BFF36F8F6B7B13F0600F2D
:103BF800EED1BDE8F08100BF60060020A8020020D9
:103C0800B3F1FF3F08BFB2F1FF3F00D1704708B5DD
:103C18000249183000F022FC08BD00BFCB80000824
:103C280010B5437B90F90D20002A0ADB437B63F033
:103C38007F0343732B4A52F8183F934219D100234C
:103C480017E003F07F0343734268036813605A6008
:103C5800002303604360E9E75A684260036010602C
:103C680058601EE01A461F49C9698A420FD01B686E
:103C78007BB173B190F90E1093F90E209142F1D0F7
:103C8800521A002AE8DC1A46002BECD1F0E7002390
:103C9800EEE7144BDA6903F1180101604260106025
:103CA800D861104B9A6853F8184F9C420ED06CB1EB
:103CB80082420ED0537B13F01F0F0AD1D3897F2B7A
:103CC80007D9A3692BB9074B5A6109E0054BDC6892
:103CD800EEE7A24202D0204600F018FB014B5C61DF
:103CE80010BD00BF6006002010B50C4611460A48FA
:103CF80082680A4B1A60EFF31183102383F312884A
:103D0800BFF36F8FDDE90223806804F066F920466F
:103D1800FFF74CFE10BD00BF60060020880600209B
:103D28002DE9F04104460E460023EFF311851022D9
:103D380082F31288BFF36F8F1F463FE05A686260B4
:103D4800236014605C601CE01A462E48C0698242F9
:103D58000DD01B686BB163B193F90E209142F3D07B
:103D6800521A002AEADC1A46002BEED1F2E70023A9
:103D7800F0E7244BDA6903F11801216062601460EE
:103D8800DC61204B53F8188F98450DD0B8F1000F1F
:103D98000AD01C4B9B68984502D0404600F0B6FA02
:103DA800184BC3F8148004E0164BD3F80C80F0E7E6
:103DB800A67385F31188BFF36F8F0123F3B9637B73
:103DC80003F01F02002A0CBF01270027F0D103F0DF
:103DD8007F0363736268236813605A60002323605B
:103DE800636071B2A173637B63F07F036373054AF9
:103DF80052F8183F9342AED10023ACE73846BDE8ED
:103E0800F08100BF6006002008B50B4659B9EFF3F2
:103E1800058242B9064A50699268904203D0084622
:103E2800FFF7C4FD03E083F31188BFF36F8F08BD6C
:103E38006006002008B5034650B9EFF305823AB989
:103E4800064A51699268914202D0FFF7AFFD03E03C
:103E580083F31188BFF36F8F08BD00BF6006002091
:103E68000023EFF31181102282F31288BFF36F8FC2
:103E780009E0064B9A68D37B013BD37381F3118821
:103E8800BFF36F8F0123002BF3D07047600600202B
:103E980038B50023EFF31185102282F31288BFF39F
:103EA8006F8F0EE0154BDC6817E0A24202D0204667
:103EB80000F02CFA114B5C6185F31188BFF36F8F0A
:103EC8000123BBB90D4B9A68D17B0131D17353F8EB
:103ED800184F9C42E6D0002CE4D0537B13F01F0F00
:103EE800E3D1D3897F2BE0D9A369002BDDD1034B24
:103EF8005A61E1E704F019F938BD00BF60060020F7
:103F080008B5024804F01CF908BD00BF740600207B
:103F180038B5EFF31184102383F31288BFF36F8F42
:103F2800224B9A68DB699A4205D013685168126877
:103F38000A60516006E00023F8E71C4AD269934200
:103F480012D01B6893B1194A906890F90E1093F932
:103F58000E209142F1D0521A002AEEDD5A684260D2
:103F68000360106058600AE00023EBE70F4B9A6883
:103F7800D96903F11800106051600A60DA610B4BCF
:103F880053F8185F9D420DD065B1084B9B689D4260
:103F980002D0284600F0BAF9044B5D612046FFF7CD
:103FA80005FD38BD014BDD68EFE700BF6006002066
:103FB8002DE9F04150EA010333D004460D466FF075
:103FC80001031B1A4FF0FF3262EB0102012B72F161
:103FD80000022ADB6FF00106361AEFF3118810236E
:103FE80083F31288BFF36F8F124FB868124B1860B3
:103FF800FFF74EFDB86822462B461049183000F0EE
:104008002DFABA68537B43F0040353734046FFF715
:10401800CDFC04F02BF9301A002800DC0020BDE8A4
:10402800F081FFF775FF0020F9E704F01FF9061982
:10403800D3E700BF6006002088060020CB80000878
:1040480070B505460E460446FFF7B2FFB6F1FF3FCE
:1040580008BFB5F1FF3F2DD0C317093043F1000366
:104068000A2873F1000224D36FF00A0282424FF04B
:1040780004029A4120D30021C21818D20A441049D8
:10408800A1FB024525F0030404EB9504121B801ADA
:1040980063F100034FF0CC3200FB02F201FB032373
:1040A800A0FB01010B44440844EAC37402E0012167
:1040B800E4E70024204670BD6FF00044FAE700BF33
:1040C800CDCCCCCC38B5EFF31185102383F312880F
:1040D800BFF36F8F437B13F0040F04D185F311886E
:1040E800BFF36F8F38BD0446183004F097F8637B30
:1040F80023F0040363732046FFF770FC2946024847
:10410800FFF782FEEEE700BF88060020014B9868A3
:10411800704700BF600600202DE9F843037B03F0D9
:104128000107EFF31186102383F31288BFF36F8F13
:10413800457B15F0080F1AD10446B14600F158081E
:1041480003F0F0FE10B345F020056573EFF3058327
:104158009BB131462046FFF7CFFC67B1002383F3BC
:104168001188BFF36F8F0423184602DF03E086F33C
:104178001188BFF36F8FBDE8F88341463C4B9868C0
:1041880003F0D2FE3046FFF711FCE6E745F00803DE
:10419800637313F0800F30D1A3685BB16268236842
:1041A80013605A60002323606360627B22F002027E
:1041B8006273A36004F1180004F030F8404603F07D
:1041C800EAFE2B4B9A68944224D00026284B53F8D9
:1041D800185F9D4225D025B3AA4202D0284600F098
:1041E80095F8234B5D61FEB9214B9B689C421FD01B
:1041F80089F31188BFF36F8FAFE705F07F0545F0AE
:10420800080565736268236813605A600023236099
:104218006360C1E7EFF305830BB90026D6E70126F3
:10422800D4E7134BDD68D7E71248FFF7B3FBDBE7AA
:10423800EFF30583002BDBD1237B13F0010F12D0A2
:1042480089F31188BFF36F8F002383F31188BFF3BD
:104258006F8F0423184602DFEFF31189102383F3CD
:104268001288BFF36F8F4846FFF7A0FB75E700BFC2
:1042780060060020A80200202DE9104883B0089CA1
:10428800DDE906BCCDE900BCFFF72EFD1CB1034BF0
:104298009B681B69236003B0BDE810886006002096
:1042A800044BC01AC010044B03FB00F0034B01225F
:1042B8001A54704728030020ABAAAAAA8C0600202B
:1042C800C3897F2B11D80E4B1B687BB190F90E2048
:1042D8000C4B1B689A420CDB437B13F01F0F0AD16F
:1042E800094B984209D0012300E0002303F00100A4
:1042F80070470023FAE70023F8E70023F6E700BF3A
:104308009406002090060020A801002070B50546FC
:104318000D4B1E7C06EB46030C4C04EBC3042046F5
:1043280003F07CFF0A4B00229A552846FFF7C8FF86
:1043380000B970BD074B1A68013AD31706492046E1
:1043480000F08CF8F5E700BF600600202803002085
:104358008C06002094060020A942000838B5EFF327
:104368001185102383F31288BFF36F8F144B9C6859
:10437800144B1B68A34217D0124B00221A60104B33
:104388001B7C114AD35C53B12046FFF799FF30B12B
:10439800637B13F01F0F0FD02046FFF7B7FF85F39D
:1043A8001188BFF36F8F38BD2046FFF7AFFF85F345
:1043B8001188BFF36F8FF6E72046FFF731FCEBE774
:1043C80060060020880600208C06002008B50948F1
:1043D800094A121A094903F084FC0948094A121AC1
:1043E800094903F07EFC0948094A121A094903F0F1
:1043F80078FC08BD0000002094010020AC050108ED
:104408000000002000000020AC050108000000109A
:104418000000001040070108034B1868984200D0BC
:1044280070470020FCE700BF6001002030B1044A5B
:104438005268904201D0006870470020704700BF62
:104448006001002008B5044B1B680BB1002008BDB3
:10445800FEF708FDFBE700BF98060020B3F1FF3F19
:1044680008BFB2F1FF3F77D02DE9F04704469246E6
:104478001D4681600023EFF31187102282F3128812
:10448800BFF36F8F26E01AF1010845F10009FFF725
:10449800D9FF18EB000349EBE070236160613BE052
:1044A800521A66EB0303026143614368636020604C
:1044B8001C60446005E0294B5A6823606260146000
:1044C8005C60FFF7A9FF84423AD087F31188BFF3F5
:1044D8006F8F0123002B3DD153466FF00101B1EBE3
:1044E8000A014FF0FF3060EB0502002ACBDB1C4AC3
:1044F800116852685B1842EB05026FF00101C91A96
:1045080060EB020308461A46012973F1000301DA39
:104518000120002220616261FFF77EFF0028CAD0D7
:104528000269466921696369914273EB060EB7DB3C
:10453800891A63EB060321616361FFF777FFEDE7F3
:10454800084B1B68002BC0D103F04BFE0021FEF77F
:10455800F9FBBAE7BDE8F087704700BF60010020AB
:10456800400300209806002070B5EFF31186102351
:1045780083F31288BFF36F8F2A4B1860FFF74CFF45
:10458800044623E0284A136851685B1941EBE5713A
:104598001360516000220023C4E90423204603F07D
:1045A80009FE86F31188BFF36F8FA36820469847EA
:1045B800EFF31186102383F31288BFF36F8F194A24
:1045C80013685B1B1360FFF727FF04463CB125699E
:1045D8006169144B1A68D317AA428B41D2DA44B1E5
:1045E800236962690F4909685B1A62EBE17223610A
:1045F80062610D4A0B4D2868136851681B1841EB1E
:10460800E0711360516000242C6003F0EAFD21463C
:10461800FEF798FB86F31188BFF36F8FFFF79EFEB6
:1046280070BD00BF980600204003002010B500228E
:10463800EFF31184102383F31288BFF36F8F1346AF
:1046480011460CE0FFF7FEFE074A13685168C318CD
:1046580041EBE07184F31188BFF36F8F0122002AC8
:10466800F0D0184610BD00BF40030020F8B5EFF3A6
:104678001183102282F31288BFF36F8F026822B170
:1046880083F31188BFF36F8FF8BD04461D46826A15
:10469800C36A52EA030105D0B3F1FF3F08BFB2F184
:1046A800FF3F26D1236B01332363236A6BB185F364
:1046B8001188BFF36F8F236A20469847EFF311855F
:1046C800102383F31288BFF36F8F04F11803A469D2
:1046D800A3423ED0002C3CD0204603F0A5FC00238A
:1046E800E36785F31188BFF36F8F204603F081FCE1
:1046F800CAE716461F46012A73F1000301DA0126AC
:104708000027013E47F1FF3703F0B4FD013041F1C6
:104718000001801947EB0101012871F1000108DA55
:104728006FF001024FF0FF330C492046FFF796FE69
:10473800B8E703F09FFD013041F10001801947EB14
:1047480001036FF00102121A4FF0FF3161EB03030E
:10475800EAE785F31188BFF36F8F95E77546000880
:10476800F8B51D46EFF31187102383F31288BFF3C2
:104778006F8FB5F1FF3F08BFB2F1FF3F1FD006466C
:10478800144629466FF00102121B4FF0FF3262EB0C
:104798000502002A18DB304603F040FDDDE9062358
:1047A800C6E90A230023336322462B460B493046C9
:1047B800FFF754FE87F31188BFF36F8FF8BD87F3B7
:1047C8001188BFF36F8FF9E7012C71F1000101DA4D
:1047D80001240025013C45F1FF35DCE7754600085A
:1047E80038B50346EFF31185102282F31288BFF320
:1047F8006F8FC160012282600068834210D04268D6
:10480800036813605A60002303604360012103F0CA
:1048180095FD044629460548FFF7F6FA204638BDB7
:1048280085F31188BFF36F8F0024F7E79C060020FB
:1048380008B5024801F073F808BD00BF28E7000872
:1048480010B5064C05E0A2686168204603F0B7FD84
:104858001434034B9C42F6D3002010BD9401002071
:104868009401002000B585B0094A02AB92E8030024
:1048780083E8030000934FF0FF334FF4806205494B
:104888000548FFF705F8002005B05DF804FB00BFF8
:1048980004E200088044002048030020F0B503AF7C
:1048A8004DF804BD9AB0054606F011F804462846AE
:1048B80005F0DAFFCDE902014FF0000CCDF818C081
:1048C80002A9CDE9041194F8801039B1032913D055
:1048D8004EF68C10C0F6000007F02FFD04F1200101
:1048E80004F1400E734665C965C391E8650065C368
:1048F80084F86CC0C4F860E094F86C00DFE800F05D
:104908000462626C8695A900206E6066006900F1F9
:104918000805284605F02EFCC00741D1A566606E43
:10492800143005F0F9FB40B1D4E9190114301831FD
:104938004FF4803205F0F3FB45E040F62410C2F254
:104948000000006801282AD94EF66400C0F600006D
:1049580005F0EBFED0E900128068CDE90E120F21B8
:104968000C914FF23752C0F600020B920023CDE9AA
:10497800163304261596012614964EF65C05C0F6E5
:1049880000051395CDE91121022110910D930A9389
:10499800CDE90860A7F1110008A905F0A6FEFEE719
:1049A80008914EF64C70C0F60000009040F2A0202E
:1049B800C0F6010008AA4EF63C73C0F600032B218E
:1049C80006F06FFCFEDED4E919011430183105F049
:1049D8008BFB84F87410206704F1700004A905F0BB
:1049E800A1FA00283ED1606ED0E9000149698847E4
:1049F800606ED0E9022308A806F0E6F89DF82800C2
:104A0800DDE90812C4E91C1284F8780004F170008A
:104A180004A906F0FFF838BBD4E91901143018319D
:104A280005F064FB84F87410206704F1700004A991
:104A380005F078FAD0B9606ED0E9022308A806F02C
:104A4800C3F89DF82800DDE90812C4E91C1284F8AF
:104A5800780004F1700004A906F0DCF80028B2D050
:104A6800062004E0032002E0042000E005200321E2
:104A780084F8801084F86C001AB05DF804BBF0BDAF
:104A8800F0B503AF2DE9000B9CB0054605F01FFFFC
:104A98008146284605F0E8FECDE902014FF0000CFA
:104AA800CDF818C002A9CDE9041199F8A81039B1B8
:104AB800032914D04EF6EC10C0F6000007F03DFCB8
:104AC80009F1200809F1500E7346B8E8770077C35A
:104AD80098E8770077C389F890C0C9F880E099F81A
:104AE8009000DFE800F004747482B0C2EF00D9F8D7
:104AF8008000C9F88400006900F10805284605F01F
:104B080039FBC00751D1C9F88850D9F8840014304E
:104B180005F002FBB0B1D9F88400203005F0FCFAAA
:104B280080B1D9E92101143018314FF4803205F0F1
:104B3800F6FAD9E92101203018314FF4803205F016
:104B4800EEFA45E040F62410C2F2000000680128A1
:104B58002AD94EF67C00C0F6000005F0E6FDD0E943
:104B680000128068CDE9101210210E914FF26D529B
:104B7800C0F600020D920023CDE9183304261796DB
:104B8800012616964EF67405C0F600051595CDE972
:104B98001321022112910F930C93CDE90A60A7F11A
:104BA80019000AA905F0A1FDFEE70A914EF64C701E
:104BB800C0F60000009040F2A020C0F601000AAA4A
:104BC8004EF63C73C0F600032B2106F06AFBFEDEAE
:104BD8000020C9F88C00D9E921011430183105F0FA
:104BE80085FA89F89810C9F8940009F1940004A985
:104BF80005F098F9002840F0BF80D9E9210120305C
:104C0800183105F095FAD9F88C1040B1481E884241
:104C180008D74EF6A400C0F6000007F042FB481C77
:104C280080F1B880C9F88C00D9F88400D0E9022353
:104C38000AA805F0C9FF9DF83000DDE90A12C9E9A4
:104C4800261289F8A00009F1980004A905F0E2FFEE
:104C5800002840F08F80D9E921011430183105F07F
:104C680043FA89F89810C9F8940009F1940004A946
:104C780005F058F9002840F08180D9E92101203059
:104C8800183105F055FAD9F88C1038B1481C08D7F6
:104C98004EF6D400C0F6000007F0F0FA481E88422D
:104CA8007ED6C9F88C00D9F88400D0E902230AA876
:104CB80005F08AFF9DF83000DDE90A12C9E92612DD
:104CC80089F8A00009F1980004A905F0A3FF0028BD
:104CD80056D1484650F88C1F8A1C09D002290FD19A
:104CE800D9F88400D0E900014A69012190476FE7AB
:104CF800D9F88400D0E900014A690021904767E7A4
:104D080040F62411C2F20001096801297FF660AF5C
:104D18004CF20551C0F60001CDE908014EF69400A9
:104D2800C0F6000005F001FDD0E900128068CDE969
:104D3800101210210E914FF26D52C0F600020D9222
:104D4800002319930126189608ADCDE916654EF68D
:104D58008C05C0F600051595CDE9132102211291A5
:104D68000F930C93CDE90A60A7F119000AA905F081
:104D7800BCFC2DE7042004E0032002E0052000E04D
:104D88000620032189F8A81089F890001CB0BDE816
:104D9800000BF0BD4EF6B400C0F6000007F06EFA46
:104DA8004EF6C400C0F6000007F07BFA80B56F46E7
:104DB8008CB0CDE90001002006900220084902913C
:104DC80069460390059008A804900648CDE90901B2
:104DD80011460B9001A8089002A806F01AFA00BF25
:104DE8001CED000817C4000880B56F469CB0CDE9DB
:104DF80000010124124804230B9001A9CDE90901FF
:104E080068460890022007900CA906910D49029166
:104E18000321199420248DF86C108DF84C10002172
:104E280003901A931894169014901293CDE9104198
:104E38000E900C90059008A8049002A806F0F4F9CA
:104E480069C300082CED00082DE9F04F8DB04368C8
:104E58000293837815469A07804640F10D81002415
:104E68000E78002E00F00A81252E0BD04B1C0393E0
:104E78000134029B4146304698470028C0F2F6802C
:104E88000399EDE74E788B1C252E0393F0D000276D
:104E9800B946BB46BBF11F0F38D8A6F12003102B2B
:104EA8000AD8DFE803F02A090930090909210909A4
:104EB8000928092D09091F00A6F13003092B33D948
:104EC8002A2E37D11BF0400F55F8043B40F0828062
:104ED800002BA7BF4BF0200B9946C3F100094BF0FC
:104EE800280B01E04BF0010B039B13F8016B0393B4
:104EF800002ECFD130E04BF0020B4BF0040BF3E760
:104F08004BF0080BF0E74BF0100BEDE7BBF17F0F10
:104F180019D8A6F13003092BD2D81BF0400F03D0C3
:104F28000A2101FB0737DFE70A2101FB09394BF0AA
:104F3800200BD9E72E2E06D11BF0400F40F09E80A3
:104F48004BF0400BD0E76C2E31D02BD8682E36D0E2
:104F58006A2E3CD04C2E3AD0002F46F02003B8BF22
:104F68002BF04002A3F16501BCBF1FFA82FB0027AA
:104F7800022901D9612B2FD1073525F00705DFF864
:104F8800ACA2083507271BF0080F66D00AEB070B01
:104F980056465E4563D1A4EB0A0A06EB0A02A9EB62
:104FA80007096FE1742E9FD07A2E9DD0D4E71BF0AD
:104FB800800F18BF4BF4007B4BF0800B94E71BF479
:104FC800807F18BF4BF4007B4BF4807B8CE74BF45D
:104FD800207B89E71F4687E7A6F16301122900F2C3
:104FE800F080DFE811F013004F00EE00EE00EE0055
:104FF800EE004F00EE00EE00EE00EE00EE00FE00C8
:10500800E900EE00EE001B00EE00AF0055F8043B8F
:105018008DF8183001270DF1180AB4E755F804ABDC
:10502800834BBAF1000F08BF9A461BF0400F14BF1C
:1050380039464FF0FF31504608F02CFD0746A2E7ED
:10504800029B41462020984700280FDB013EB742CB
:10505800F6D34C44A41BB14698E74E46F7E716F83A
:10506800010B029B41469847002892DA98F80230D3
:1050780043F0040388F802304FF0FF3420460DB0A7
:10508800BDE8F08F1BF0800F34D01BF4007F2CD0CC
:10509800073525F00705AA4669685AF8080B2BF06A
:1050A80010050029ADB237DA404261EB410145F401
:1050B80080650DF1180B0A235A4608F0F7FCA0EB9F
:1050C8000B0301936B0662D5019B25F001019F42FA
:1050D80089B240F3A180002E00F0998015F01002EB
:1050E80040F09C80BB460D4623E0AA465AF8040BC4
:1050F800C117D4E7AA461BF4807F5AF8041B01D1D4
:105108000846F5E71BF4007F15BF48B208B241F323
:10511800C01141F3C031C2E750EA0103C9D11BF005
:10512800400FC6D0002FC4D12BF0110295B2BB4658
:10513800019740F2064115EA01021CBF0BF1010B71
:1051480000222CE02BF010021FFA82FB0A231BF02E
:10515800800C49D01BF400711DBF073525F00705E9
:10516800AA46AA461ABF5AF8080B69685AF8040BE7
:1051780050EA010545D12BF016051BF0400FADB2E2
:1051880042D0002F40D12BF0170295B2019715F0AD
:10519800100248D0019B002E42D103F1010B2907D0
:1051A8005AD4EB0706D5D9456FDD0199A9EB0B0356
:1051B8005F18CB465B4649E04BF0100B102378266E
:1051C800C5E7782B04D1C6F1780343F01003BEE796
:1051D800029B4146252098470028FFF647AF023436
:1051E80047E608230026B2E7AA461BF480715AF85E
:1051F800040BBDD01BF400711ABFC0B2614680B267
:10520800B6E72BF0060295B20DF1180B54E725F01E
:105218001105ADB2BB468CE70D46B8E73B460D46D7
:1052280003F1020BBBE7DDF804B082E7A305010830
:105238009C050108CDE904324146029B202098478D
:105248000028FFF613AF049B059A01339945F1DC5A
:10525800A4EB0B01CC189B460AB3029B41463020B5
:1052680098470028FFF602AF8EB901342744019B06
:10527800391B994224DC1D465DBB019AA9EB0B0939
:10528800224455461446914435E0019F92E7023482
:1052980041463046029B98470028E7DAE6E640F2A6
:1052A80006410D42E2D015F0020F14BF2B2020203A
:1052B80015F4806F04F10104414618BF2D20E9E779
:1052C800029B414630209847002804F10104CEDAB9
:1052D800CCE606AB013D4146585D029B9847002845
:1052E800CADAC3E6029B414620209847002804F109
:1052F8000104FFF6BBAEA9EB0403002BF2DCBFE50B
:10530800704708B503F0AAF8002008BD002383F30E
:105318001188BFF36F8F0423184602DF704738B532
:1053280013468568046912F4801F07D012F4402FD1
:1053380004D012F0010F01D082F4402323F480122C
:1053480013F0010F0AD023684FF0010C0CFA01FC8E
:1053580043EA0C0323602B68984738BD23684FF055
:10536800010C0CFA01FC23EA0C032360F3E738B5BF
:105378000C46056983685B68984718B923682A68EA
:105388005340236038BD10B582B00C4683685B6813
:1053980001A9984730B90123A340019A134214BFC9
:1053A8000120002002B010BD10B582B00C4601A942
:1053B800FFF7DDFF30B90123A340019A134214BF60
:1053C8000120002002B010BD08B5034600681B7913
:1053D8000121994083685B69984708BD08B58368CF
:1053E800DB6913B10122984708BD6FF05700FBE74E
:1053F80008B5437933B1014651F8060B83681B6839
:10540800984708BD6FF08500FBE708B583689B6B7C
:105418000BB1984708BD6FF05700FBE708B5FDF7DB
:1054280021FE08BD08B502F025FC08BD2DE900489D
:1054380082B0DDE904BCCDE900BCFFF791F902B008
:10544800BDE8008808B502F015FF08BD08B502F0F0
:1054580070FC08BD08B5FDF797FF08BD08B502F058
:105468006FFC08BD08B5FEF7ABF808BD08B5FEF738
:1054780061F808BD08B5FBF70BFF08BD08B5FBF7D9
:10548800C9FE08BD08B503460A4600681979FBF746
:10549800C1FE08BD08B5FFF742FF08BD08B5FFF714
:1054A80072FF08BD08B501790068FFF77DFF08BDE8
:1054B80008B5FFF789FF08BD41608260704708B5ED
:1054C800FFF78CFF08BD08B5FFF792FF08BD08B5C8
:1054D80083689B68984708BD08B583689B6A9847A6
:1054E80008BD08B5FFF791FF08BD08B583685B6C78
:1054F800984708BDEFF31180102383F31288BFF398
:105508006F8F704780F31188BFF36F8F7047C900A2
:105518000431084470474FEAC10C00EBC103DB8833
:1055280099420CD08444BCF80410043240F822306C
:10553800CA0006328352DB000433C1527047C36885
:105548000121914023EA0103C3600432002340F89B
:105558002230704710B5131D50F8234074B9C36842
:10556800012494402343C360043240F82210CB0046
:105578001A1D89B281520633C15210BDE2000432AD
:10558800835A4FEAC10C0CF1040E20F80E300CF1CE
:10559800060C20F80C40DB00063389B2C152815258
:1055A800EBE700B5CB00023330F803E0A2EB010CC7
:1055B800891A01EB5E014FEA4C0E20F803E04FEA2E
:1055C800410ED300023320F803E020F832C0C35A5A
:1055D80002EB530220F832105DF804FB00B5C90055
:1055E800023130F801E04FEAC20C0CF1020C30F83D
:1055F8000C305B0803EB5E034FEA430E20F801E032
:1056080030F80C1002EB510220F832305DF804FB40
:105618000439081AC008704708B500EBC1035A8856
:105628005208B2FA82F2C2F11F02FFF774FF08BDF6
:1056380008B500EBC1035A885208B2FA82F2C2F1E7
:105648001F02FFF787FF08BDF8B504460D46CE00D8
:10565800B71CC15B05EB510100EBC1035B8813F07C
:10566800010F0CD0A15B691A04EBC1035B8813F02E
:10567800010F0ED029462046FFF7DAFFF8BDFFF7E5
:10568800CBFFE25B05EB520229462046FFF7A6FF57
:10569800E8E72046FFF7C0FFA15B2A46691A2046C3
:1056A800FFF79CFFA35BED1AE4E770B5B1FA81F34D
:1056B800C3F1230450F82450CDB1C3F11F024FF0B9
:1056C800030E141D50F824404FEAC40C00EBC40626
:1056D8007688B1EB560F14D98444BCF80640161DE1
:1056E80040F82640BEF1010E01D0A542E9D1C468B8
:1056F800C3F12002012393405B421C4005D12046A0
:1057080070BD2146FFF707FFF9E794FAA4F2B2FA51
:1057180082F2131D50F823402146FFF7FCFEEEE706
:1057280079B110B504682046FFF772FF014604EB13
:10573800C002538823F0010353802046FFF784FFFB
:1057480010BD7047F8B5056841B30B46AA68B2EBBF
:10575800D10F25D90B33DC0821462846FFF7A5FFD2
:105768000746F8B1C60005EBC0035B88B4EB530FDE
:1057780009D3AB195A8842F001025A8039462846A3
:10578800FFF7C5FEF8BD0444224601462846FFF748
:1057980008FF21462846FFF74BFFEAE70020F1E71C
:1057A8000020EFE70020EDE72DE9F84315460668ED
:1057B8004B420B4001F1FF3919EA010904D0032BD0
:1057C80048D84C46994603E00C4604293DD90423A1
:1057D800002D57D0B268B2EBD50F56D96119C91A46
:1057E8000B31C9083046FFF760FF074600284FD045
:1057F80001463046FFF78BFE00EB0908A04408F18C
:10580800FF38B8FBF4F804FB08F8A8EB090808EB24
:105818000504073424F0070441463046FFF7F8FE34
:105828000546A41BE410874218D3EF0006EBC50316
:105838005B8805EB53039C421AD33E44738843F0BC
:10584800010373804046BDE8F8831146FFF77AFFED
:105858008046F7E74C4699460423B9E7024639469D
:105868003046FFF79EFE39463046FFF7E1FEDCE79B
:10587800224629463046FFF794FE21463046FFF778
:10588800D7FEDAE74FF00008DCE74FF00008D9E769
:105898004FF00008D6E770B50346043AC81D20F05B
:1058A80007000A4422F00702121AD508186085601A
:1058B8000023C360B5FA85F1C1F1200EC1F12401BE
:1058C8008900CE1DF10805E003F1040C002440F81E
:1058D8002C4001337345F7DB4C00A4B244804FF0F1
:1058E800000CA0F800C044F0010444806B1A4FEA91
:1058F800430E26F00704A51C20F805E0015322F00A
:105908000704951C20F805C002440353538843F04C
:1059180001035380FFF78CFE70BD002070470FB461
:1059280000B583B004A951F8040B0191FBF79AFC68
:1059380003B05DF804EB04B07047704708B5012860
:1059480002D0FDF7B3FB08BDEFF30583F9E708B50F
:1059580001460068FFF7F2FF08BD002070470023EA
:105968000B70704708B500231370CB1E092B1AD88B
:10597800DFE803F005090D11191919191914114651
:10598800FBF71CFE10E00021FBF7AEFD0CE0002148
:10599800FBF714FD08E0FBF757FD05E01146FFF79C
:1059A800DEFF002000E0002008BD08B540B2FBF78C
:1059B8001FFF08BD08B5013140B2FBF727FF08BD3E
:1059C80008B500210120FFF7B9FF08BD61B662B62E
:1059D80080F31188BFF36F8F704772B6002383F38B
:1059E8001188BFF36F8FBFF34F8F30BF62B6BFF31D
:1059F8006F8F704743685A1E134206D11F2B06D972
:105A080003681A4205D00020704700207047002024
:105A180070470120704700B585B00B6801934B684B
:105A28008A68202B12D9B3F1004F11D8013BB3FA81
:105A380083F3C3F11F035B0003F03E031343039397
:105A480001A9FBF7DDFF05B05DF804FB0823F5E7C6
:105A58003E23F3E72DE9F84380460F46994616465C
:105A6800002509E02146F0B2FFF7D5FF064610F100
:105A7800160F14D001360135BD4210DA05EB450486
:105A880008EB84046268002AF5D0B9F1000FE9D068
:105A98002046FFF7AFFF0028E4D16FF01506304627
:105AA800BDE8F883F0B585B0054603A8FBF73CFCD4
:105AB8000646002424E0B3F5801F20D15768095812
:105AC8009368202B64D9B3F1004F63D8013BB3FA34
