:020000040800F2
:10000000C03800202D0900085D0500081909000806
:100010001909000819090008190900080000000062
:10002000000000000000000000000000F5090008CA
:10003000190900080000000095090008651700086C
:10004000A10B0008A10B0008A10B0008A10B0008E0
:10005000A10B0008A10B0008A10B0008A10B0008D0
:10006000A10B0008A10B0008A10B0008A10B0008C0
:10007000A10B0008A10B0008A10B0008A10B0008B0
:10008000A10B0008A10B0008A10B0008A10B0008A0
:10009000A10B0008A10B0008A10B0008A10B000890
:1000A000A10B0008A10B0008A10B0008A10B000880
:1000B000A10B0008A10B0008A10B0008A10B000870
:1000C000A10B0008A10B0008A10B0008A10B000860
:1000D000A10B0008A10B0008A10B0008A10B000850
:1000E000A10B0008A10B0008A10B0008A10B000840
:1000F000A10B0008A10B0008A10B0008A10B000830
:10010000A10B0008A10B0008A10B0008A10B00081F
:10011000A10B0008A10B0008A10B0008A10B00080F
:10012000A10B0008A10B0008A10B0008A10B0008FF
:10013000A10B0008A10B0008A10B0008A10B0008EF
:10014000A10B0008A10B0008A10B0008A10B0008DF
:10015000A10B0008A10B0008A10B0008A10B0008CF
:10016000A10B0008A10B0008A10B0008A10B0008BF
:10017000A10B0008A10B0008A10B0008A10B0008AF
:08018000A10B0008A10B00080F
:1001880053B94AB9002908BF00281CBF4FF0FF31F6
:100198004FF0FF3000F00CB8ADF1080C6DE904CE5B
:1001A80000F008F8DDF804E0DDE9022304B0704748
:1001B800704700BF2DE9F04786468C460846089EE2
:1001C800154674461946002B40F0C2808542B2FAA3
:1001D80082F245D94AB1C2F1200300FA02FC2EFA94
:1001E80003F3954043EA0C0C94404FEA154EA8B22D
:1001F800BCFBFEF8230C0EFB18CC08FB00F943EA05
:100208000C43994528D9EB1808F1FF3704D29945D2
:1002180002D9A8F102072B44A3EB0903A4B2B3FB4C
:10022800FEFC0EFB1C330CFB00F044EA0344A04226
:1002380014D92C190CF1FF3304D2A04202D9ACF125
:1002480002032C44241A43EA07401EB1D440002379
:1002580034607360BDE8F0874746DDE76346F1E741
:1002680092BB431B01214FEA154EAFB2B3FBFEFC14
:10027800200C0EFB1C330CFB07F840EA034398459F
:1002880062D9EB180CF1FF3004D2984502D9ACF1D1
:1002980002002B44A3EB0803A4B2B3FBFEFC0EFB45
:1002A8001C330CFB07F744EA0344A7424ED92C1928
:1002B8000CF1FF3304D2A74202D9ACF102032C445B
:1002C800E41B43EA0040C0E7C2F1200320FA03F12F
:1002D800954090402EFA03F303434FEA154EAFB210
:1002E800B1FBFEFC0EFB1C10190C0CFB07F841EAD5
:1002F8000041884504FA02F422D969180CF1FF304C
:1003080004D2884502D9ACF102002944A1EB0801C6
:100318009BB2B1FBFEFC0EFB1C110CFB07F743EA7A
:1003280001439F420ED9EB180CF1FF3104D29F42D2
:1003380002D9ACF102012B44DB1B41EA004192E7F0
:100348006046E3E76146F7E76046A3E76346B7E739
:10035800834206D916B9002108467BE7C6E900E0C2
:10036800F9E7B3FA83F78FB9834201D3724508D806
:10037800BEEB020460EB030301209C461EB900217A
:1003880068E73846FAE7C6E9004CF8E7C7F1200CF9
:10039800BB4022FA0CF41C432EFA0CF120FA0CF3A1
:1003A800B84001434FEA14490EFA07F5B3FBF9F8D0
:1003B8001FFA84FE09FB18300B0C08FB0EFA43EAFF
:1003C80000439A4502FA07F240D9E31808F1FF30D2
:1003D80004D29A4502D9A8F102002344A3EB0A03E8
:1003E80089B2B3FBF9F809FB183308FB0EFE41EAA2
:1003F80003418E452CD9611808F1FF3304D28E458C
:1004080002D9A8F10203214443EA0040A0FB029864
:10041800A1EB0E014145CE46434602D306D14D45D8
:1004280004D2B9EB020E68EB04030138002EA6D003
:10043800B5EB0E0261EB030101FA0CFC22FA07F39B
:100448004CEA0303F940C6E9003198E74046C5E79E
:100458004346D9E700B50BF075FC024B18585DF818
:1004680004FB00BF0800000008B5024B1B68984752
:1004780008BD00BF00000020014B1860704700BF96
:100488000000002000B585B00A46002300930193C0
:100498000293039302238DF80230044B0193014623
:1004A800684604F08BFC05B05DF804FB7104000895
:1004B80070B506460D46002404E0044B1B68305D09
:1004C80098470134AC42F8D370BD00BF000000204B
:1004D80080B505460E461746984602F07FF9034652
:1004E8000BF030FC0446DFF8189049F8003042461B
:1004F80039463046A84754F8090000F02DFA00BFE5
:1005080008000000034A536843F0020353600020C8
:10051800704700BF002004E0084B1A6842F480725C
:100528001A601A6842F400721A601A6842F480620B
:100538001A60034B034A1A60704700BF003C024030
:10054800380000200024F400014B036000207047AD
:1005580070C2000808B5034B1B68984700F02EF8D6
:1005680008BD00BF0400002030BFFFF7FDBF00BF7B
:1005780038B50446054D2A46054909F03FFF054AA6
:100588000021601909F0BEFE38BD00BF0000000060
:10059800F0C100080400000070B50646054D064B82
:1005A8001D444C1B2046FFF7E3FF083C346705F168
:1005B800080070BD0000000004000000054B5A69E7
:1005C8009B689A4204D0044A536843F080535360AE
:1005D800704700BF6404002000ED00E038B5154600
:1005E800204B9B6A13F4805F19D116241D4B9B6A1C
:1005F80013F4006F00D018241A4B9B6A13F4007F81
:1006080010D0184B9A6B9B6A13F4004F09D0D9B1DC
:10061800144A936A23F400439362192402E01724CE
:10062800E4E719240F4B9B6A13F4806F00D01A2457
:100638000C4B9B6A13F4807F08D10A4B9B6A13F416
:10064800005F04D01C2402E01924EBE71B24054AB0
:10065800936A43F47F439362012104F038FF2870C2
:10066800204638BD00ED00E0174B9B6A13F0007F71
:1006780025D11D20144B9B6A13F0807F00D01F20CA
:10068800114B9B6A13F4002F00D021200E4B9B6A5C
:1006980013F4802F00D022200B4B9B6A13F4003FE9
:1006A80000D02320084B9B6A13F4803F09D1064AE7
:1006B800936A6FEA03436FEA1343936270471E20FD
:1006C800D8E72420F3E700BF00ED00E081690D4B77
:1006D8005A6942F480725A61BFF34F8FBFF36F8F2C
:1006E80031F8021C5A6922F480725A61BFF34F8FA5
:1006F800BFF36F8F4DF60273994201D00020704707
:100708000120704700ED00E070B504461646324BF4
:100718009B6A13F0100F1AD110252F4B9B6A13F008
:10072800080F00D012252C4B9B6A13F0020F10D033
:10073800294B586B9B6A13F0800F3DD000293FD09E
:10074800254A936A23F080039362132503E0112559
:10075800E3E76FF01500204B9B6A13F0010F00D000
:1007680014251D4B9B6A13F0200F00D015251A4B3A
:100778009B6A13F0100F04D1174B9B6A13F0020FFA
:1007880004D0154B5B6813F4006F1BD1124B9B6AA6
:1007980013F0200F04D0104A536A23F40053536215
:1007A8000D4A936A43F0FF0393620121204604F047
:1007B8008EFE3070284670BD6FF015001325CAE70D
:1007C8001325C8E7214600F089F90028DED080F318
:1007D80009880225DAE700BF00ED00E038B50546D4
:1007E80000230B701A4BD86A10F002002DD10C466A
:1007F800DB6A002B2ADB164BD86A10F0804025D024
:100808002846FFF763FF08B128681FE0104B9B6A72
:1008180013F0FF0F0DD10E4B986A10F47F400ED1E4
:100828000B4B9B6AB3F5803F10D32846FFF71CFF9C
:100838000CE0224601212846FFF766FF06E0224623
:1008480001212846FFF7CAFE00E0002038BD00BF9E
:1008580000ED00E030B58BB00C46264B5968C1F36B
:100868000801002383F31188BFF36F8F02F07F43E1
:10087800B3F17F4F15D102F00C03082B14D012F0FE
:10088800080F0BD000250DF12702204604F024FEA6
:1008980086469DF8273053B10BB030BD044601257C
:1008A800F1E700252C46EEE700252C46EBE70DF195
:1008B800040C20686168A268E368ACE80F0020694E
:1008C8006169A269E369ACE80F0045B1C3F30802A6
:1008D8005AB96FEA53236FEA4323089305E0089B4C
:1008E80023F4FF7323F00103089301A9704604F071
:1008F800DFFDD1E700ED00E0044B5A6942F0100239
:100908005A615A6922F008025A61704700ED00E006
:10091800EFF30880EFF3098101B57246FFF79AFFFC
:1009280001BD00BF0A4880F30888102080F31188B1
:1009380008484FF40461401880F30988EFF31480E5
:100948000221084380F31488BFF36F8F00F082F808
:10095800C0380020000F002008B50A4B9B6883426E
:1009680002D001F041FF08BDEFF30583002BF8D05A
:10097800054B5A6842F080525A605A6A22F4004283
:100988005A62EEE76404002000ED00E014498A682A
:100998004FF030001044EFF3098C80E8F01F10206E
:1009A80080F31288BFF36F8F0E4F4FF000664A69CD
:1009B8008A603E60106F0C4C2060506F00235367B4
:1009C80080F3118804B5104600F004F9BDE804402E
:1009D80002F1300090E8F01F8CF30988704700009E
:1009E8006404002004ED00E0080300201EF0040F5A
:1009F8000CBFEFF30880EFF30980816911F8021C3E
:100A08000229FFD001B5724604F05BFD01BD00BFAD
:100A1800002807DB00F01F02400901239340024A27
:100A280042F82030704700BF00E100E0002808DBF2
:100A38000901C9B200F1604000F5614080F8001377
:100A4800704700F00F000901C9B2014B19547047F3
:100A580014ED00E008B50F4B0F4A22F07F029A60B0
:100A6800BFF34F8FBFF36F8FD3F8882022F4700243
:100A7800C3F88820EFF3148323F0040383F3148866
:100A8800BFF36F8F01F0F6F802F008F800F06AF88B
:100A980001F058F900ED00E00000000810B4A2F1E0
:100AA80020040D4942F8081C21F0010142F8081CF5
:100AB80042F8203C019B42F81C3C029B42F8183C3F
:100AC800039B42F8143C4FF0807342F8043C0465E1
:100AD8000023436710BC7047D90400080E4B9B687D
:100AE800A3B110F1160F0AD01A6EA2F1400C84457A
:100AF8000ED882420ED98A4206D8002070471A6E54
:100B08008A4201D800207047186E7047002070474D
:100B180000207047002070476404002008B50E4686
:100B28001546094A9060026F084B1A6000F052F8A7
:100B38002C4686F309880020054B9847204600215B
:100B480000220023034C20476404002008030020EF
:100B580049550008D9040008014B10221A61704752
:100B680000ED00E0002206E003F00F0309491944F4
:100B780010230B760132512A0ADC53B2002BF3DB27
:100B880003F1604303F56143102183F80013F1E793
:100B9800704700BFFCEC00E008B5EFF30583103B9D
:100BA800044A02EBC301496852F833008847FFF74B
:100BB80005FD08BDFCBE000808B5034B034A01212A
:100BC800034804F001FE08BD0000022000000020D8
:100BD80070C2000808B5036E403B05480360402317
:100BE8004360044B8360012104F0F2FD08BD00BF9F
:100BF8000C03002000000B15084AC2F898000B6887
:100C080023F01F03034343F01003C2F89C308B68A2
:100C180043F00103C2F8A030704700BF00ED00E0C8
:100C2800084BD3F89030C3F30723013B984205D80B
:100C380010B50446FFF7E0FF204610BD6FF0150021
:100C4800704700BF00ED00E010B5034C0123227887
:100C580004F0BAFC207010BDF00E002008B5002387
:100C68000B4A127804F0B0FC10F1160F0FD00246B0
:100C780006E0084BC3F898200021C3F8A010013201
:100C8800044BD3F89030C3F307239342F1DC08BD3B
:100C9800F00E002000ED00E0044B0522C3F894207C
:100CA800BFF34F8FBFF36F8F704700BF00ED00E0B9
:100CB800BFF35F8F024B0022C3F89420704700BF38
:100CC80000ED00E038B51C4B1D681C4BD3F8903084
:100CD800C3F307239D422BD8FFF7EAFF002409E05E
:100CE800154B5B6804EB440103EB81012046FFF7D9
:100CF80083FF0134A542F3D81148057004F08CFC39
:100D080010F1160F13D00E4B1A780C4BD3F8903005
:100D1800C3F307239A4207DA084BC3F89820002147
:100D2800C3F8A0100132F0E7FFF7B6FF002038BD86
:100D38004FF0FF30FBE700BF7CC2000800ED00E089
:100D4800F00E002008B5024B1B689847002008BD2C
:100D580018030020034B1860034A937843F00203FA
:100D680093707047180300200800002008B5064952
:100D780021F00701C1F1005202F50032034804F0E6
:100D880044FB002008BD00BF473D00201C03002095
:100D980070B50546002401E00134E4B26B78A34243
:100DA80015D32B782344DAB201209040084A5269BF
:100DB80030EA0202F0D1064A5061064A52F833601E
:100DC800002EE9D002EBC3035968B047E4E770BDD1
:100DD800003C01402803002000B583B000230093A5
:100DE8000193BDF80030442262F30B03ADF80030E4
:100DF8004FF480430193044883681B686946984709
:100E080003B05DF804FB00BFF8BD00080023994259
:100E18000ADD10B400EB030C044C04F80C20013379
:100E28009942F7DC10BC7047704700BF18000020DB
:100E38005FFA81FC0CF102020A4B53F822200B0CDA
:100E480022EA114193FAA3F34BB1B3FA83F3984022
:100E580001430CF1020C034A42F82C10704720237E
:100E6800F5E700BF00380140C3B20233074A52F821
:100E78002320030C02EA104093FAA3F31BB1B3FA40
:100E880083F3D84070472023FBE700BF00380140B8
:100E980008B5034668B1B0FA80F2C2F11F02D2B2B7
:100EA80005498856054A11680B43136004F037FB5F
:100EB80008BDFF22F4E700BF18000020003C0140F5
:100EC800024A136823EA000313607047003C01409C
:100ED800032926D8DFE801F0020C151E114B9A6889
:100EE80022EA00029A60DA6822EA0002DA607047B1
:100EF8000C4B9A6802439A60DA6822EA0002DA60C8
:100F08007047084BDA680243DA609A6822EA0002FE
:100F18009A607047034B9A6802439A60DA681043F4
:100F2800D8607047003C014010B498B1B0FA80F323
:100F3800C3F11F03DBB29C460D4850F833008842CA
:100F48000AD088B90A4B43F83C1003EBCC035A602B
:100F580010BC7047FF23EEE7054C04EBC3035B6846
:100F68009342EED10020F3E76FF00F00F0E700BFE7
:100F78002803002060B1B0FA80F3C3F11F03DBB28D
:100F8800044A002142F8331002EBC3025160704753
:100F9800FF23F5E7280300200C4B1B6813F0020F12
:100FA80009D10A4A136843F001031360074B1B6811
:100FB80013F0020FFAD0054A936823F003039360F5
:100FC800024B9B6813F00C0FFAD1704700380240AF
:100FD8000C4B1A6822F480221A601A6842F4803294
:100FE8001A60084B1B6813F4003FFAD0054A536F88
:100FF80043F001035367034B5B6F13F0020FFAD002
:10100800704700BF00380240F8B50C461546454BFE
:101018001E680421304604F053FC0746022130467E
:1010280004F04EFC2388C3F30B021346442A29D844
:1010380012B2002A6ED0013B432B6ED8DFE803F0D2
:101048003D5D6064673F496D6D536D6D6D6D6D6D90
:101058006D6D6D6D6D6D6D6D6D6D6D6D6D6D6D6DB8
:101068006D6D6D6D6D6D6D6D6D6D6D6D6D6D6D29EC
:101078006D6D6D296D6D6D376D6D6D6D6D6D6D3946
:101088006D6D6D3BA82A01D12E6003E06FF08500DD
:1010980045E02E602368B3F5805F41D32A68C3F327
:1010A80013330133B2FBF3F22A60002037E02E60DD
:1010B800F0E72F60EEE72860ECE72E60EAE700F043
:1010C800E5F802234FF4A872082104F0F2FB286027
:1010D800E0E700F0DBF807234FF4A872082104F0DA
:1010E800E8FB2860D6E700F0D1F8022340F20F129F
:1010F800082104F0DEFB2860CCE700232B60C9E759
:101108004FF4FA432B60C5E700232B60C2E7064B78
:101118002B60BFE76FF0850001E06FF08500F8BD38
:101128000020FCE73800002000127A0010B51D4BA3
:101138009B6803F00C03082B2CD01A4A136823F081
:1011480080731360174B1B6813F0007FFAD1154C9E
:10115800636823F440336360636823F0706343F08B
:10116800E063636000F096F8236843F080732360BF
:101178000C4B1B6813F0007FFAD004F03AFC094AC4
:10118800136843F080631360064B1B6813F0006F0D
:10119800FAD010BDFFF700FF024A936823F0F0036E
:1011A8009360CAE70038024038B500F095F8214C42
:1011B800204604F01AFC00F0B5FB1F4B9B68C3F3F4
:1011C80003131E4AD35C20FA03F513781C41A54289
:1011D80028D3FFF7FDFEFFF7A9FF174A936823F00E
:1011E800F0039360936823F0030343F002039360D2
:1011F800114B9B6803F00C03082BF9D1A54215D2BB
:101208000F4B0C4A1A600C4A936823F4E05343F4DA
:10121800A0539360936823F4604343F400439360BE
:10122800002038BD204600F0EBFBD2E7204600F056
:10123800E7FBE5E7007A030A00380240F4C4000837
:101248003800002030B500F0800E0D4D5EF80540E6
:1012580024F4800C20F080004CEA00004EF80500D1
:10126800084C606820F03F0008436060D4F88400B0
:101278000549014043EA82131943C4F8841030BD7C
:1012880004380240003802403F80FF8F0048704712
:1012980000127A0008B504F0A9FB0B4B59680B4AF9
:1012A8000A4040F4A84141F008010A435A605A68CC
:1012B80022F440325A605968054A0A4005490143F8
:1012C8000A435A6008BD00BF003802400080BFFFD3
:1012D8000080BFF00854000782B0064B1A6C42F039
:1012E80080521A641B6C03F080530193019B02B077
:1012F800704700BF0038024010B504460A2806D0DF
:10130800E1B2064883685B689847204610BD0348E9
:1013180083685B680D219847F2E700BFE8BE0008C4
:1013280010B5044C2046FFF715FD2046FFF7A4F83A
:1013380010BD00BF0113000808B5054804F0E9FF17
:1013480018B1FFF7EDFF002008BD6FF01200FBE7B2
:10135800E8BE000808B5436831B1074882681268DA
:1013680003F10C01904708BD03488268526803F1F5
:101378000C019047F7E700BFF8BD00082DE9F843D6
:101388000F4614461D46D0F80480D0F81090D8F8BF
:10139800080004F070FA0646B4F1026F14D0B4F1F4
:1013A800046F15D0B4F5001F16D0B4F5800F35D0F2
:1013B800B5F1806F2ED0B5F1C06F2DD0B5F1007F9B
:1013C80011D06FF0150422E0FFF77AFD00241EE02B
:1013D800FFF75EFD00241AE03946D8F8080004F04B
:1013E8000EFD002413E002254A460F493046FFF758
:1013F8009BFD0446A8B9D8F80810384604F03EFA10
:1014080029463046FFF764FD3046FFF741FD204688
:10141800BDE8F8830125E7E70325E5E76FF08504D4
:10142800F5E76FF00F04F2E7D55A000810B5044647
:1014380003695860074804F06CFF38B10121204661
:10144800FFF788FF002800DB002010BD6FF01200B6
:10145800FBE700BFF8BD0008B0F5887F17D2F8B5E4
:1014680004460D46164603090A4A52F823705FB12E
:10147800384604F04EFF38B133462A4604F00F01CF
:10148800384604F0D4FCF8BD6FF01200FBE76FF0AB
:10149800150070473CC4000810B50446B2F5004F6B
:1014A8002FD04FF0000C48184CEB0C0C40184CF1A6
:1014B800000C4FEACC0C4CEA507CC00040184FEAB4
:1014C80083024FEA93734CF10001FEF759FE244959
:1014D800A1FB00235B091A0192B24FF0640C0CFBCC
:1014E80013031B013233A1FB0313C3F34F1303F0A0
:1014F800F0010A4492B203F00F0313449BB2A360B5
:1015080010BD4FF0000C48184CEB0C02401842F18B
:101518000002D20042EA5072C000401842F10001B5
:10152800DA184CEB0C03FEF72BFE0D49A1FB002348
:101538005B091A0192B24FF0640C0CFB1303DB0039
:101548003233A1FB0313C3F34F13590001F4F871AD
:101558000A4492B203F0070313449BB2A360CFE797
:101568001F85EB512DE9F0410C4643681D6803695E
:101578005E680B79012B58D0022B59D14FF4806744
:101588006279012A59D0022A59D0002A52D04FF440
:10159800005194F806E0BEF1040F53D0002B54D14B
:1015A8004FF00008A3F1030C5FFA8CFCBCF1010FAB
:1015B8005BD913B1BEF1040F5AD0B1F5805F49D0A1
:1015C800B1F5405F48D0002942D003239A4252D156
:1015D800B8F1000F42D1002F45D103239E454DD1CC
:1015E800E37983B1012B4CD1294B9D420BD0A3F554
:1015F8004C439D4207D003F580639D4203D003F519
:101608004C439D4240D1EB6823F40053EB602146E4
:1016180004F0CDFCEB6843F40053EB6094E803005E
:1016280086E803000020BDE8F0814FF4C067A7E713
:101638000027A5E74FF48051ABE70021A9E74FF455
:101648004051A6E74FF48058ACE74FF48058A9E71B
:101658000123BBE70023B9E70223B7E70FB9042347
:10166800BCE70323BAE70223B8E76FF08500DAE79F
:101678006FF08500D7E76FF08500D4E76FF085003D
:10168800D1E76FF08500CEE76FF08500CBE700BFAC
:101698000010014008B5024A04F05DFD08BD00BF16
:1016A800CD61000808B5024A04F06FFD08BD00BF0F
:1016B800D361000838B5456804690748206004F01C
:1016C80028FE28B1206883681B68E968984738BDF8
:1016D8006FF01200FBE700BFF8BD00084FF0E023F1
:1016E800996918699A6909B90C4B19680AB90B4BB9
:1016F8001A6810F4803F01D1914208D208490B685A
:101708000648006803440B604FF0E0231B69034B55
:101718001B689B1A024A106818447047600400202E
:101728005C0400200A4B102283F82320094B44F262
:10173800A0121A600020084B18604FF0E02344F212
:101748009F125A6198611A6942F007021A6170473C
:1017580000ED00E0600400205C040020684620F0F2
:1017680007018D4619B5FFF7B9FF12480368124AF9
:10177800516814681B1941F100011360516000227F
:1017880002600E490A68981A0D4BA3FB0030800BC3
:1017980044F2A01300FB03F3D2184B6843F1000393
:1017A8000A604B6001F048FAFEF708FFBDE81940EF
:1017B800854670475C040020700000206800002007
:1017C8002D34A9F9F8B500294BD0B0F1FF3F3DD031
:1017D8003E4B1C6801284CDD40F2E6339842A8BF16
:1017E8001846461EEFF31185102383F31288BFF3C2
:1017F8006F8FFFF773FF4FF0E0239F69344A136838
:101808005168C31841F10001136051600021314A49
:101818001160314A11685A1A2DD444F2A01000FB05
:10182800062202F583421F322C4EA6FB0262920B5F
:10183800C91A00FB021140F21A438B4238BF0B460B
:10184800274A914235D9214B1A6018E04FF0E0221F
:10185800136923F0010313611C4B4FF07F421A6098
:1018680026E01A4B1C68B0F1FF3FB3D140F2E530D7
:10187800B2E70026B6E7154B40F21A421A604FF05D
:10188800E0239969114A1268013A5A6100229A6163
:101898008F4211D2641A3C440D4A136851681B19CF
:1018A80041F100011360516085F31188BFF36F8F18
:1018B800F8BD064A1360E2E77F1A054A13685168C3
:1018C800DB1941F1000113605160EDE7600400206D
:1018D800700000205C040020680000202D34A9F965
:1018E8002094FF0038B5EFF31185102383F3128895
:1018F800BFF36F8F084B1C68084B1B68E41AFFF78F
:10190800EDFE204485F31188BFF36F8F044BA3FBD2
:101918000030800B38BD00BF700000206800002038
:101928002D34A9F908B5334B9B6803F00C03042B3D
:101938005BD0082B5BD12F4B5A6802F03F025B68E3
:1019480013F4800F2CD02B4B5868C0F388104FEA43
:10195800401CBCEB000C6EEB0E0E4FEA8E1343EAF4
:101968009C634FEA8C11B1EB0C0163EB0E03DB00B7
:1019780043EA5173C90011EB000C43F1000359020B
:1019880000234FEA4C2041EADC51FEF7F9FB194BE2
:101998005B68C3F3014301335B00B0FBF3F027E05E
:1019A800144B5868C0F388104FEA401CBCEB000C7D
:1019B8006EEB0E0E4FEA8E1343EA9C634FEA8C11CE
:1019C800B1EB0C0163EB0E03DB0043EA5173C90072
:1019D80011EB000C43F10003990200234FEA8C201D
:1019E80041EA9C51FEF7CCFBD1E7034800E00348ED
:1019F80008BD00BF0038024000127A000024F4003D
:101A08000246002850D02A4B1B6813F480431DD08F
:101A1800284B984204D8284B984212D9002300E05A
:101A2800052383B125498A4201D903B903232449EF
:101A38008A4200D94BB123498A4207D933B90123D5
:101A480004E00023EEE70423ECE7022318490968C1
:101A580011F4804F14D118498A4201D903B90423DB
:101A680016498A4201D903B9032315498A4200D984
:101A78002BB114498A4203D913B9012300E0022388
:101A880011490A6822F007021A430A6002210E4A25
:101A9800126802F007020139934201D00029F6D1F9
:101AA800934203D0012070470120704700207047FF
:101AB8000070004080D1F008000E2707804A5D05BD
:101AC8000087930380C3C901003C0240034B00E038
:101AD8001433034A9342FBD3704700BFF8BD000894
:101AE800FCBE000838B5EFF31185102383F3128884
:101AF800BFF36F8F054B9C6804F023FC85F31188B6
:101B0800BFF36F8F2046FEF727FF38BD640400201F
:101B180038B505460A4B53F8204002E02368984739
:101B280008346B1C064A52F82330A34206D963686E
:101B3800002BF3D0204604F007FCF1E738BD00BFC6
:101B48000CC5000810B586B0104C04EBC01400EBAF
:101B5800400C00EB80000E4B03EB80030022059243
:101B6800012104910F210391029201920093094BE4
:101B78004FF4A072084901EBCC11204600F06AFA34
:101B8800637B23F00403637306B010BD7800002064
:101B980064040020936300084017002008B553EA46
:101BA800020102D100F0F6FD08BD0249183000F02C
:101BB800BDFFF9E72966000810B586B0184C14E097
:101BC800636A0593236A0493E3690393A369029301
:101BD8006369019323690093E368A26861682068D8
:101BE80000F038FA23685C6530340E4B9C42E7D32A
:101BF80000F028FD0A4C00E030340A4B9C420BD21E
:101C0800A26AE36AB3F1FF3F08BFB2F1FF3FF3D026
:101C18002068FFF7C3FFEFE700F02CFD06B010BD0A
:101C28008CC100088CC1000808B50B4B01221A7042
:101C38000320FFF76DFF01F03BF904F0A5FB04203A
:101C4800FFF766FFFFF7B8FF03F015FB034A137BA6
:101C580023F00103137308BDF10E0020F8000020E3
:101C680008B50146014A0248FEF758FF311C000832
:101C7800F800002008B50648064A121A002104F0A8
:101C88007BFB0548054A121A002104F075FB08BDC4
:101C980068000020F80E002000000010000000106E
:101CA80010B50446FFF74EFF0B4901EBC4110B4A70
:101CB80004EB840302EB8303D9601C7404EB441126
:101CC800074B03EB811303F5046304EB840402EB75
:101CD8008402536010BD00BF780000206404002017
:101CE800000F002070B586B000F0FCFC104D114BC1
:101CF8005D61114B0593012304930024039402941E
:101D0800019400940D4B4FF400520D49284600F001
:101D1800A1F906466B7B23F004036B73284604F095
:101D280017FC2046FFF7BCFF304606B070BD00BF69
:101D3800F80000206404002004C50008311C0008D5
:101D4800C018002008B50020FFF7E2FE194B83F306
:101D58000888194C636943F400736361F02384F8BD
:101D680022300023E37723766376A37684F8203045
:101D7800636A43F4E0236362FEF7BEFDFEF7ECFE00
:101D88004FF0FF33A362E362FEF79CFFFEF714FFF8
:101D98000A4800F08FF9FFF799FEFEF7BDFB012016
:101DA800FFF7B6FE0220FFF7B3FEFFF79BFFFFF732
:101DB80057FF00BF4017002000ED00E07801002029
:101DC800F8B50446EFF31187102383F31288BFF3A5
:101DD8006F8F0568A84212D02E1E18BF012685B93C
:101DE80006BBA368E268934223D001221344A36090
:101DF800002303BB87F31188BFF36F8FF8BD00255D
:101E0800EAE76A682B6813605A6000232B606B60EE
:101E18006A7B22F002026A73AB6005F1180004F0D5
:101E28007EFCDDE70023AB67284604F091FB012325
:101E3800DFE70022DAE73946014800F0B9FBDDE7C1
:101E48008404002010B5C36823F00203C360134B59
:101E58001C687CB1236803B10CB100210FE0234654
:101E6800FBE722460D4804F09DFA04F10800FFF74D
:101E7800A7FF10BD2346F0E71A461C461346002C60
:101E8800F7D062688242ECD02146002BF4D01A6861
:101E9800002AF2D0002BF0D11A46EEE78404002085
:101EA80070B584B00546EFF31186102383F31288CA
:101EB800BFF36F8FD5F88040002C3FD02368C5F85A
:101EC8008030D5F8842094424DD0D5F8983043F02E
:101ED8000203C5F89830E36843F00102E26023F09A
:101EE800040343F00103E360636886F31188BFF3DA
:101EF8006F8F20469847EFF31186102383F31288DB
:101F0800BFF36F8FE36823F00103E36013F0100F52
:101F180044D1E36813F0020F44D1D5F8983023F088
:101F28000203C5F89830C3F3002386F31188BFF382
:101F38006F8F002BB7D100F0DDFBB4E7D5F89830F0
:101F480023F00402C5F8982013F0040F0ED112F004
:101F5800100F14D00023C5F8983086F31188BFF30A
:101F68006F8F04B070BDC5F88430AEE705F19004FA
:101F780000220121204604F068FB0028F8D1002344
:101F880002934FF0FF324FF0FF33CDE9002305F104
:101F980088023146054800F0D7FC84E7204604F063
:101FA80014FAB6E72046FFF74DFFB6E78C04002089
:101FB800F0B589B004460E9D0020C4F88000C4F82E
:101FC800840004F18800C4F88800C4F88C0004F187
:101FD8009000C4F89000C4F894002DB3287928BB69
:101FE8000120C4F898004FF0FF364FF0FF37CDE9D5
:101FF80006670020049003930290019000940D4B13
:10200800204604F01CFA55B1296811B1204604F0A5
:1020180008FA6B791BB1237B43F001032373204635
:1020280000F0B8FB09B0F0BD0120DAE740F201107A
:10203800D7E700BFA91E000808B553EA020102D17C
:1020480000F0A8FB08BD0249183000F06FFDF9E761
:1020580029660008F0B585B004460E4615461F46A9
:1020680000F158038365C3650E9B04220D9904F0A3
:10207800DBF92A463146204604F0B0F905460C9BA8
:1020880002930B9B01930A9B00933B460246314601
:102098002046FEF703FD00236365054B9B6823B1CB
:1020A800DB6EE366284605B0F0BDE366FAE700BFDD
:1020B800640400200123437303730023036643660B
:1020C800C366014B9860704764040020094A93680E
:1020D80058676FF00A01996707494B6843F08053C6
:1020E8004B60002383F31188BFF36F8F9368986F59
:1020F800704700BF6404002000ED00E0437B90F9C6
:102108000D20002A51DB13F01F0F4ED110B563F0DC
:102118007F034373254A52F8183F93420ED1002398
:102128000CE05A6842600360106058601EE01A466E
:102138001E49C9698A420FD01B687BB173B190F9F7
:102148000E1093F90E209142F1D0521A002AE8DCC1
:102158001A46002BECD1F0E70023EEE7134BDA69BF
:1021680003F11801016042601060D8610F4B53F809
:10217800184F9C420ED06CB10C4B9B685A7B12F0E6
:102188001F0F0AD1DA897F2A07D9A2692AB9074A13
:10219800536109E0054BDC68EEE7A34202D0204614
:1021A80000F01CFC014B5C6110BD7047640400200A
:1021B80010B5437B90F90D20002A14DB154B9A6863
:1021C80053F8184F9C4219D0C4B1824219D0537B9E
:1021D80013F01F0F15D1D3897F2B12D9A36983B9A7
:1021E8000C4B5A6114E003F07F03437342680368A1
:1021F80013605A60002303604360DFE7054BDC6827
:10220800E3E7A24202D0204600F0E8FB014B5C6104
:1022180010BD00BF640400202DE9F04105460C46BE
:102228003D4B9E68737B13F0600F23D013F0200F93
:1022380025D008271F421DD13B43737313F0800F2D
:102248001FD1082F28D04FF00008334B53F8186FD0
:102258009E4246D0002E44D02F4B9B68B34202D0FA
:10226800304600F0BBFB2C4B5E61102F02D0B8F15A
:10227800000F39D184F31188BFF36F8F45E0102721
:10228800D8E703F07F0373737268336813605A608A
:10229800002333607360D4E7B3685BB17268336856
:1022A80013605A60002333607360727B22F002026D
:1022B8007273B360304604F018F906F1580004F060
:1022C80019F9154B9B689E4202D04FF00008BCE7F5
:1022D800EFF3058313B94FF00008B6E74FF0010894
:1022E800B3E70D4BDE68B7E70C48FFF7E3FEC1E73D
:1022F800EFF31184102383F31288BFF36F8F04F078
:102308004FF884F31188BFF36F8F6B7B13F0600F66
:10231800EED1BDE8F08100BF640400207801002000
:10232800B3F1FF3F08BFB2F1FF3F00D1704708B5D6
:102338000249183000F0FAFB08BD00BF2966000802
:1023480010B5437B90F90D20002A0ADB437B63F02C
:102358007F0343732B4A52F8183F934219D1002345
:1023680017E003F07F0343734268036813605A6001
:10237800002303604360E9E75A6842600360106025
:1023880058601EE01A461F49C9698A420FD01B6867
:102398007BB173B190F90E1093F90E209142F1D0F0
:1023A800521A002AE8DC1A46002BECD1F0E7002389
:1023B800EEE7144BDA6903F118010160426010601E
:1023C800D861104B9A6853F8184F9C420ED06CB1E4
:1023D80082420ED0537B13F01F0F0AD1D3897F2B73
:1023E80007D9A3692BB9074B5A6109E0054BDC688B
:1023F800EEE7A24202D0204600F0F0FA014B5C6101
:1024080010BD00BF640400202DE9F8430446594B71
:102418009B68834221D0EFF31186102383F312883F
:10242800BFF36F8F657B05EA030715F0100F45D1E1
:10243800B04604F15809204604F023F800284BD090
:1024480045F040056573EFF30583002B3BD031461B
:102458002046FFF7E1FEBDE8F883EFF30583002B84
:10246800D9D1EFF31185102383F31288BFF36F8F4F
:10247800437B43F01002427303F07F0343F01003E1
:1024880043734268036813605A6000230360436023
:10249800384B53F8184F9C420DD064B1354B9B68AC
:1024A8009C4202D0204600F099FA324B5C612846E3
:1024B800FFF70CFECFE72F4BDC68EFE786F31188B8
:1024C800BFF36F8FC7E749462A4B986803F0DBFFD5
:1024D8003046FFF7FBFDBEE7A7B945F0100363736D
:1024E80013F0800F17D1234B53F8185F9D421FD06C
:1024F800F5B1204B9B68AB4202D0284600F06EFA3B
:102508001C4B5D611B4B9B689C4214D086F3118861
:10251800BFF36F8F9FE705F07F0545F010056573E2
:102528006268236813605A60002323606360DAE7F7
:10253800104BDD68DDE7EFF30583002BE6D1237B45
:1025480013F0010F12D086F31188BFF36F8F0023A9
:1025580083F31188BFF36F8F0423184602DFEFF36C
:102568001188102383F31288BFF36F8F4046FFF75B
:10257800ADFD70E76404002010B50C4611460A480A
:1025880082680A4B1A60EFF31183102383F31288D1
:10259800BFF36F8FDDE90223806803F0CDFF20468B
:1025A800FFF794FD10BD00BF640400208C040020D8
:1025B80008B50B4659B9EFF3058242B9064A506986
:1025C8009268904203D00846FFF780FD03E083F34A
:1025D8001188BFF36F8F08BD6404002010B5EFF3B6
:1025E8001184102383F31288BFF36F8F437B13F09A
:1025F800100F09D023F010034373FFF77FFD214626
:102608000448FFF7D5FF10BD84F31188BFF36F8F1F
:10261800F9E700BF8C04002008B5034650B9EFF372
:1026280005823AB9064A51699268914202D0FFF789
:102638004DFD03E083F31188BFF36F8F08BD00BF22
:10264800640400200023EFF31181102282F3128822
:10265800BFF36F8F09E0064B9A68D37B013BD373B6
:1026680081F31188BFF36F8F0123002BF3D07047DC
:102678006404002038B50023EFF31185102282F39B
:102688001288BFF36F8F0EE0154BDC6817E0A2428B
:1026980002D0204600F0A2F9114B5C6185F3118845
:1026A800BFF36F8F0123BBB90D4B9A68D17B013102
:1026B800D17353F8184F9C42E6D0002CE4D0537BDA
:1026C80013F01F0FE3D1D3897F2BE0D9A369002B27
:1026D800DDD1034B5A61E1E703F0A8FF38BD00BF25
:1026E8006404002008B5024803F0ABFF08BD00BF32
:1026F8007804002038B5EFF31184102383F312888F
:10270800BFF36F8F224B9A68DB699A4205D0136832
:10271800516812680A60516006E00023F8E71C4A15
:10272800D269934212D01B6893B1194A906890F904
:102738000E1093F90E209142F1D0521A002AEEDDC4
:102748005A6842600360106058600AE00023EBE7B3
:102758000F4B9A68D96903F11800106051600A603C
:10276800DA610B4B53F8185F9D420DD065B1084BE9
:102778009B689D4202D0284600F030F9044B5D6109
:102788002046FFF7A3FC38BD014BDD68EFE700BF2B
:102798006404002038B5EFF31185102383F3128801
:1027A800BFF36F8F437B13F0040F04D185F31188B7
:1027B800BFF36F8F38BD0446183003F0B0FF637B5A
:1027C80023F0040363732046FFF798FC2946024868
:1027D800FFF7EEFEEEE700BF8C040020014B98687F
:1027E800704700BF640400202DE9F843037B03F021
:1027F8000107EFF31186102383F31288BFF36F8F5D
:10280800457B15F0080F1AD10446B14600F1580867
:1028180003F037FE10B345F020056573EFF3058329
:102828009BB131462046FFF7F7FC67B1002383F3DD
:102838001188BFF36F8F0423184602DF03E086F385
:102848001188BFF36F8FBDE8F88341463C4B986809
:1028580003F019FE3046FFF739FCE6E745F00803B8
:10286800637313F0800F30D1A3685BB1626823688B
:1028780013605A60002323606360627B22F00202C7
:102888006273A36004F1180003F049FF404603F0A7
:1028980031FE2B4B9A68944224D00026284B53F8DB
:1028A800185F9D4225D025B3AA4202D0284600F0E1
:1028B80095F8234B5D61FEB9214B9B689C421FD064
:1028C80089F31188BFF36F8FAFE705F07F0545F0F7
:1028D800080565736268236813605A6000232360E3
:1028E8006360C1E7EFF305830BB90026D6E701263D
:1028F800D4E7134BDD68D7E71248FFF7DBFBDBE7CC
:10290800EFF30583002BDBD1237B13F0010F12D0EB
:1029180089F31188BFF36F8F002383F31188BFF306
:102928006F8F0423184602DFEFF31189102383F316
:102938001288BFF36F8F4846FFF7C8FB75E700BFE3
:1029480064040020780100202DE9104883B0089C19
:10295800DDE906BCCDE900BCFFF70EFE1CB1034B58
:102968009B681B69236003B0BDE8108864040020DD
:10297800044BC01AC010044B03FB00F0034B0122A8
:102988001A547047F8010020ABAAAAAA90040020A4
:10299800C3897F2B11D80E4B1B687BB190F90E2091
:1029A8000C4B1B689A420CDB437B13F01F0F0AD1B8
:1029B800094B984209D0012300E0002303F00100ED
:1029C80070470023FAE70023F8E70023F6E700BF83
:1029D80098040020940400207800002070B5054673
:1029E8000D4B1E7C06EB46030C4C04EBC30420463F
:1029F80003F095FE0A4B00229A552846FFF7C8FFB8
:102A080000B970BD074B1A68013AD317064920462A
:102A180000F08CF8F5E700BF64040020F8010020FE
:102A280090040020980400207929000838B5EFF3B5
:102A38001185102383F31288BFF36F8F144B9C68A2
:102A4800144B1B68A34217D0124B00221A60104B7C
:102A58001B7C114AD35C53B12046FFF799FF30B174
:102A6800637B13F01F0F0FD02046FFF7B7FF85F3E6
:102A78001188BFF36F8F38BD2046FFF7AFFF85F38E
:102A88001188BFF36F8FF6E72046FFF759FCEBE795
:102A9800640400208C0400209004002008B5094834
:102AA800094A121A094903F06BFC0948094A121A23
:102AB800094903F065FC0948094A121A094903F053
:102AC8005FFC08BD000000206600002044E100080B
:102AD800000000200000002044E100080000001071
:102AE80000000010AAE10008034B1868984200D0C3
:102AF80070470020FCE700BF3C00002030B1044ACA
:102B08005268904201D0006870470020704700BFAB
:102B18003C00002008B5044B1B680BB1002008BD21
:102B2800FEF7E0FEFBE700BF9C040020B3F1FF3F87
:102B380008BFB2F1FF3F77D02DE9F047044692462F
:102B48001D4681600023EFF31187102282F312885B
:102B5800BFF36F8F26E01AF1010845F10009FFF76E
:102B6800D9FF18EB000349EBE070236160613BE09B
:102B7800521A66EB03030261436143686360206095
:102B88001C60446005E0294B5A6823606260146049
:102B98005C60FFF7A9FF84423AD087F31188BFF33E
:102BA8006F8F0123002B3DD153466FF00101B1EB2C
:102BB8000A014FF0FF3060EB0502002ACBDB1C4A0C
:102BC800116852685B1842EB05026FF00101C91ADF
:102BD80060EB020308461A46012973F1000301DA83
:102BE8000120002220616261FFF77EFF0028CAD021
:102BF8000269466921696369914273EB060EB7DB86
:102C0800891A63EB060321616361FFF777FFEDE73C
:102C1800084B1B68002BC0D103F064FD0021FEF7B0
:102C2800D1FDBAE7BDE8F087704700BF3C0000203F
:102C3800100200209C04002070B5EFF311861023C9
:102C480083F31288BFF36F8F2A4B1860FFF74CFF8E
:102C5800044623E0284A136851685B1941EBE57183
:102C68001360516000220023C4E90423204603F0C6
:102C780022FD86F31188BFF36F8FA368204698471B
:102C8800EFF31186102383F31288BFF36F8F194A6D
:102C980013685B1B1360FFF727FF04463CB12569E7
:102CA8006169144B1A68D317AA428B41D2DA44B12E
:102CB800236962690F4909685B1A62EBE172236153
:102CC80062610D4A0B4D2868136851681B1841EB67
:102CD800E0711360516000242C6003F003FD21466D
:102CE800FEF770FD86F31188BFF36F8FFFF79EFE26
:102CF80070BD00BF9C0400201002002010B5002207
:102D0800EFF31184102383F31288BFF36F8F1346F8
:102D180011460CE0FFF7FEFE074A13685168C31816
:102D280041EBE07184F31188BFF36F8F0122002A11
:102D3800F0D0184610BD00BF10020020F8B5EFF320
:102D48001183102282F31288BFF36F8F026822B1B9
:102D580083F31188BFF36F8FF8BD04461D46826A5E
:102D6800C36A52EA030105D0B3F1FF3F08BFB2F1CD
:102D7800FF3F26D1236B01332363236A6BB185F3AD
:102D88001188BFF36F8F236A20469847EFF31185A8
:102D9800102383F31288BFF36F8F04F11803A4691B
:102DA800A3423ED0002C3CD0204603F0ECFB00238D
:102DB800A36785F31188BFF36F8F204603F0C8FB24
:102DC800CAE716461F46012A73F1000301DA0126F5
:102DD8000027013E47F1FF3703F0C9FC013041F1FC
:102DE8000001801947EB0101012871F1000108DA9F
:102DF8006FF001024FF0FF330C492046FFF796FEB3
:102E0800B8E703F0B4FC013041F10001801947EB49
:102E180001036FF00102121A4FF0FF3161EB030357
:102E2800EAE785F31188BFF36F8F95E7452D000812
:102E3800F8B51D46EFF31187102383F31288BFF30B
:102E48006F8FB5F1FF3F08BFB2F1FF3F1FD00646B5
:102E5800144629466FF00102121B4FF0FF3262EB55
:102E68000502002A18DB304603F059FCDDE9062389
:102E7800C6E90A230023336322462B460B49304612
:102E8800FFF754FE87F31188BFF36F8FF8BD87F300
:102E98001188BFF36F8FF9E7012C71F1000101DA96
:102EA80001240025013C45F1FF35DCE7452D0008EC
:102EB80008B5024802F0EDFA08BD00BF24C50008B5
:102EC80010B5064C05E0A2686168204603F05FFC77
:102ED8001434034B9C42F6D3002010BD660000203A
:102EE8006600002000B585B0094A02AB92E80300ED
:102EF80083E8030000934FF0FF334FF480620549E5
:102F08000548FFF755F8002005B05DF804FB00BF41
:102F1800F0C10008003900201802002080B56F4673
:102F28008AB007F81D0C4CF2B850C0F600000990A2
:102F380017F81D0C01900199DFE801F0041E1F200D
:102F48002100FEDE4CF2B850C0F6000003900120CC
:102F580004904CF2C050C0F6000001684068079128
:102F6800089004200590002006904CF2C851C0F645
:102F7800000103A805F06BFF02E001E000E0FFE7B5
:102F88000AB080BD92B00A900B460B938DF836209C
:102F98000E908DF83F10109011909DF836000C900F
:102FA8000C99DFE801F0042344658800FEDE0A98E6
:102FB80000780990FFE709990A9BDDF82CC0C9B28F
:102FC800D3E84F0F084503D1C3E842CF002AF7D111
:102FD8000890C9B2411AB1FA81F149090129099049
:102FE800E9D1FFE708988DF8370087E00A98BFF322
:102FF8005F8F00780790FFE707990A9BDDF82CC0E0
:10300800C9B2D3E84F0F084503D1C3E842CF002A1D
:10301800F7D10690C9B2411AB1FA81F149090129DB
:103028000790E9D1FFE706988DF8370066E00A981F
:1030380000780590FFE705990A9BDDF82CC0C9B216
:10304800D3E84F0F084503D1C3E842CF002AF7D190
:103058000490C9B2411AB1FA81F1490901290590D0
:10306800E9D1FFE70498BFF35F8F8DF8370045E09B
:103078000A98BFF35F8F00780390FFE703990A9BD4
:10308800DDF82CC0C9B2D3E84F0F084503D1C3E817
:1030980042CF002AF7D10290C9B2411AB1FA81F1A0
:1030A800490901290390E9D1FFE70298BFF35F8F2F
:1030B8008DF8370022E00A98BFF35F8F00780190FF
:1030C800FFE701990A9BDDF82CC0C9B2D3E84F0F7E
:1030D800084503D1C3E842CF002AF7D10090C9B20E
:1030E800411AB1FA81F1490901290190E9D1FFE7B3
:1030F8000098BFF35F8F8DF83700FFE79DF8370022
:1031080012B07047D0B502AF9EB09C460790BB681E
:103118009646CDF820E00C46099407F852CC07F8FB
:10312800513C199007F8161C07F8152C4CF2C06092
:10313800C0F600001B904CF2C860C0F600001C905E
:1031480017F8520C0A900A99DFE801F004132537A2
:103158004900FEDE17F8510C01460691002856D0AA
:10316800FFE70698022869D0FFE7069804287ED072
:1031780047E017F8510C01460591002800F0A2809D
:10318800FFE70598022800F0B680FFE705980428B5
:1031980000F0CC8035E017F8510C01460491002866
:1031A80000F0DF80FFE70498022800F0F380FFE7D3
:1031B8000498042800F0078123E017F8510C014611
:1031C8000391002800F01A81FFE70398022800F015
:1031D8003081FFE70398042800F0468111E017F8D2
:1031E800510C01460291002800F05981FFE702982E
:1031F800022800F06F81FFE70298042800F085811B
:10320800FFE717F8510C012800F0AE81C6E10998D4
:10321800079BDDF820C0C0B2D3E84F1F014503D19A
:10322800C3E842CF002AF7D1C0B2081AB0FA80F03A
:10323800400907F84E1C07F84D0C33E00998079B26
:10324800DDF820C0C0B2D3E84F1F014503D1C3E861
:1032580042CF002AF7D1C0B2081AB0FA80F040096C
:10326800BFF35F8F07F84E1C07F84D0C1AE009985A
:10327800079BDDF820C0BFF35F8FC0B2D3E84F1FB4
:10328800014503D1C3E842CF002AF7D1C0B2081ADA
:10329800B0FA80F04009BFF35F8F07F84E1C07F8BB
:1032A8004D0CFFE717F84E0C0146019107F80A0C80
:1032B80017F84D0C00F0010007F8090C002840F041
:1032C80046813DE10998079BDDF820C0BFF35F8F79
:1032D800C0B2D3E84F1F014503D1C3E842CF002A4B
:1032E800F7D1C0B2081AB0FA80F0400907F84E1CAE
:1032F80007F84D0CD6E70998079BDDF820C0BFF307
:103308005F8FC0B2D3E84F1F014503D1C3E842CF56
:10331800002AF7D1C0B2081AB0FA80F04009BFF30A
:103328005F8F07F84E1C07F84D0CBBE70998079B01
:10333800DDF820C0BFF35F8FC0B2D3E84F1F01454F
:1033480003D1C3E842CF002AF7D1C0B2081AB0FAB5
:1033580080F04009BFF35F8F07F84E1C07F84D0C4B
:10336800A0E70998079BDDF820C0C0B2D3E84F1F3B
:10337800014503D1C3E842CF002AF7D1C0B2081AE9
:10338800B0FA80F04009BFF35F8F07F84E1C07F8CA
:103398004D0C87E70998079BDDF820C0C0B2D3E839
:1033A8004F1F014503D1C3E842CF002AF7D1C0B26D
:1033B800081AB0FA80F04009BFF35F8F07F84E1C77
:1033C80007F84D0C6EE70998079BDDF820C0BFF39E
:1033D8005F8FC0B2D3E84F1F014503D1C3E842CF86
:1033E800002AF7D1C0B2081AB0FA80F04009BFF33A
:1033F8005F8F07F84E1C07F84D0C53E70998079B99
:10340800DDF820C0BFF35F8FC0B2D3E84F1F01457E
:1034180003D1C3E842CF002AF7D1C0B2081AB0FAE4
:1034280080F04009BFF35F8F07F84E1C07F84D0C7A
:1034380038E70998079BDDF820C0BFF35F8FC0B25B
:10344800D3E84F1F014503D1C3E842CF002AF7D183
:10345800C0B2081AB0FA80F04009BFF35F8F07F8CE
:103468004E1C07F84D0C1DE70998079BDDF820C096
:10347800BFF35F8FC0B2D3E84F1F014503D1C3E844
:1034880042CF002AF7D1C0B2081AB0FA80F040093A
:10349800BFF35F8F07F84E1C07F84D0C02E7099839
:1034A800079BDDF820C0BFF35F8FC0B2D3E84F1F82
:1034B800014503D1C3E842CF002AF7D1C0B2081AA8
:1034C800B0FA80F04009BFF35F8F07F84E1C07F889
:1034D8004D0CE7E60998079BDDF820C0BFF35F8F26
:1034E800C0B2D3E84F1F014503D1C3E842CF002A39
:1034F800F7D1C0B2081AB0FA80F04009BFF35F8F65
:1035080007F84E1C07F84D0CCCE60998079BDDF828
:1035180020C0BFF35F8FC0B2D3E84F1F014503D16E
:10352800C3E842CF002AF7D1C0B2081AB0FA80F037
:103538004009BFF35F8F07F84E1C07F84D0CB1E642
:1035480001988DF8310001208DF8300006E00198CF
:103558008DF8310000208DF83000FFE79DF830002D
:103568009DF831101EB0D0BD4CF2C060C0F600000E
:103578001390012014904CF2C050C0F6000001686E
:1035880040681791189004201590002016904CF26E
:10359800D061C0F6000113A805F059FC4CF2C860D0
:1035A800C0F600000D9001200E904CF2C050C0F6FD
:1035B8000000016840681191129004200F900020CB
:1035C80010904CF2E061C0F600010DA805F03FFC38
:1035D80080B56F46A2B09C46069207910890BB68DA
:1035E80007F85ECC07F85D3C1B901C911D924CF2CD
:1035F800C060C0F600001E904CF2C860C0F6000023
:103608001F9017F85E0C09900999DFE801F0041380
:1036180025374900FEDE17F85D0C014605910028A4
:1036280056D0FFE70598022866D0FFE705980428DA
:1036380078D047E017F85D0C01460491002800F0A7
:103648009680FFE70498022800F0A780FFE7049817
:10365800042800F0BA8035E017F85D0C01460391A4
:10366800002800F0CA80FFE70398022800F0DB80FA
:10367800FFE70398042800F0EC8023E017F85D0CBE
:1036880001460291002800F0FC80FFE7029802281A
:1036980000F00F81FFE70298042800F0228111E072
:1036A80017F85D0C01460191002800F03281FFE710
:1036B8000198022800F04581FFE70198042800F0EE
:1036C8005881FFE717F85D0C012800F0788190E138
:1036D8000798089BDDF818C053E8001F014503D17F
:1036E80043E800C2002AF7D1081AB0FA80F040096E
:1036F8000D918DF838002DE00798089BDDF818C06B
:1037080053E8001F014503D143E800C2002AF7D15E
:10371800081AB0FA80F04009BFF35F8F0D918DF859
:10372800380017E00798089BDDF818C0BFF35F8FD3
:1037380053E8001F014503D143E800C2002AF7D12E
:10374800081AB0FA80F04009BFF35F8F0D918DF829
:103758003800FFE70D98009020909DF8380000F0A1
:10376800010007F8010C002840F0208119E10798B2
:10377800089BDDF818C0BFF35F8F53E8001F0145B1
:1037880003D143E800C2002AF7D1081AB0FA80F042
:1037980040090D918DF83800DCE70798089BDDF8A3
:1037A80018C0BFF35F8F53E8001F014503D143E8FA
:1037B80000C2002AF7D1081AB0FA80F04009BFF316
:1037C8005F8F0D918DF83800C4E70798089BDDF8E6
:1037D80018C0BFF35F8F53E8001F014503D143E8CA
:1037E80000C2002AF7D1081AB0FA80F04009BFF3E6
:1037F8005F8F0D918DF83800ACE70798089BDDF8CE
:1038080018C053E8001F014503D143E800C2002A4D
:10381800F7D1081AB0FA80F04009BFF35F8F0D9115
:103828008DF8380096E70798089BDDF818C053E82C
:10383800001F014503D143E800C2002AF7D1081A46
:10384800B0FA80F04009BFF35F8F0D918DF8380012
:1038580080E70798089BDDF818C0BFF35F8F53E82F
:10386800001F014503D143E800C2002AF7D1081A16
:10387800B0FA80F04009BFF35F8F0D918DF83800E2
:1038880068E70798089BDDF818C0BFF35F8F53E817
:10389800001F014503D143E800C2002AF7D1081AE6
:1038A800B0FA80F04009BFF35F8F0D918DF83800B2
:1038B80050E70798089BDDF818C0BFF35F8F53E8FF
:1038C800001F014503D143E800C2002AF7D1081AB6
:1038D800B0FA80F04009BFF35F8F0D918DF8380082
:1038E80038E70798089BDDF818C0BFF35F8F53E8E7
:1038F800001F014503D143E800C2002AF7D1081A86
:10390800B0FA80F04009BFF35F8F0D918DF8380051
:1039180020E70798089BDDF818C0BFF35F8F53E8CE
:10392800001F014503D143E800C2002AF7D1081A55
:10393800B0FA80F04009BFF35F8F0D918DF8380021
:1039480008E70798089BDDF818C0BFF35F8F53E8B6
:10395800001F014503D143E800C2002AF7D1081A25
:10396800B0FA80F04009BFF35F8F0D918DF83800F1
:10397800F0E60798089BDDF818C0BFF35F8F53E89F
:10398800001F014503D143E800C2002AF7D1081AF5
:10399800B0FA80F04009BFF35F8F0D918DF83800C1
:1039A800D8E600980C9001200B9004E000980C9049
:1039B80000200B90FFE70B980C9922B080BD4CF2C9
:1039C800C060C0F600001590012016904CF2C0505F
:1039D800C0F600000168406819911A9004201790F9
:1039E800002018904CF2D061C0F6000115A805F02F
:1039F8002EFA4CF2C860C0F600000F90012010901B
:103A08004CF2C050C0F60000016840681391149051
:103A180004201190002012904CF2E061C0F60001E1
:103A28000FA805F014FA000092B00A900B460B9309
:103A38008DF836200E908DF83F10109011909DF85B
:103A480036000C900C99DFE801F0042446688C00DD
:103A5800FEDE0A9800780990FFE709990A9B0B98FF
:103A680041EA000CC9B2D3E84F0F084503D1C3E8B7
:103A780042CF002AF7D10890C9B2411AB1FA81F1B0
:103A8800490901290990E8D1FFE708988DF837001E
:103A98008BE00A98BFF35F8F00780790FFE70799DC
:103AA8000A9B0B9841EA000CC9B2D3E84F0F0845AE
:103AB80003D1C3E842CF002AF7D10690C9B2411A10
:103AC800B1FA81F1490901290790E8D1FFE7069881
:103AD8008DF8370069E00A9800780590FFE70599A6
:103AE8000A9B0B9841EA000CC9B2D3E84F0F08456E
:103AF80003D1C3E842CF002AF7D10490C9B2411AD2
:103B0800B1FA81F1490901290590E8D1FFE7049844
:103B1800BFF35F8F8DF8370047E00A98BFF35F8FD8
:103B280000780390FFE703990A9B0B9841EA000C81
:103B3800C9B2D3E84F0F084503D1C3E842CF002AE2
:103B4800F7D10290C9B2411AB1FA81F149090129A4
:103B58000390E8D1FFE70298BFF35F8F8DF8370035
:103B680023E00A98BFF35F8F00780190FFE701997F
:103B78000A9B0B9841EA000CC9B2D3E84F0F0845DD
:103B880003D1C3E842CF002AF7D10090C9B2411A45
:103B9800B1FA81F1490901290190E8D1FFE70098BC
:103BA800BFF35F8F8DF83700FFE79DF8370012B03D
:103BB8007047000094B00A908DF836200E908DF86A
:103BC8003F1001228DF840208DF8412000228DF809
:103BD80042208DF843201190129008460B908DF8E2
:103BE8004F109DF836000C900C99DFE801F0042383
:103BF80044658800FEDE0A9800780990FFE7099975
:103C08000A9BDDF82CC0C9B2D3E84F0F084503D191
:103C1800C3E842CF002AF7D10890C9B2411AB1FAD5
:103C280081F1490901290990E9D1FFE708988DF840
:103C3800370087E00A98BFF35F8F00780790FFE7A7
:103C480007990A9BDDF82CC0C9B2D3E84F0F084585
:103C580003D1C3E842CF002AF7D10690C9B2411A6E
:103C6800B1FA81F1490901290790E9D1FFE70698DE
:103C78008DF8370066E00A9800780590FFE7059907
:103C88000A9BDDF82CC0C9B2D3E84F0F084503D111
:103C9800C3E842CF002AF7D10490C9B2411AB1FA59
:103CA80081F1490901290590E9D1FFE70498BFF39B
:103CB8005F8F8DF8370045E00A98BFF35F8F007873
:103CC8000390FFE703990A9BDDF82CC0C9B2D3E83B
:103CD8004F0F084503D1C3E842CF002AF7D102901D
:103CE800C9B2411AB1FA81F1490901290390E9D110
:103CF800FFE70298BFF35F8F8DF8370022E00A983C
:103D0800BFF35F8F00780190FFE701990A9BDDF808
:103D18002CC0C9B2D3E84F0F084503D1C3E842CF3E
:103D2800002AF7D10090C9B2411AB1FA81F14909C4
:103D380001290190E9D1FFE70098BFF35F8F8DF863
:103D48003700FFE79DF83700002818BF012014B09E
:103D58007047000080B56F4694B0019007F8411C89
:103D680011904CF29870C0F6000012904CF2A070BE
:103D7800C0F60000139017F8410C02900299DFE892
:103D880001F0040822284200FEDE01980068049031
:103D98003FE04CF2A070C0F60000059001200690AC
:103DA8004CF2C050C0F600000168406809910A90C2
:103DB80004200790002008904CF2A871C0F600017A
:103DC80005A805F044F801980068BFF35F8F0490D8
:103DD8001FE04CF29870C0F600000B9001200C9088
:103DE8004CF2C050C0F60000016840680F91109076
:103DF80004200D9000200E904CF2B871C0F600011E
:103E08000BA805F024F801980068BFF35F8F0490B1
:103E1800FFE7049814B080BD80B56F4694B0019058
:103E280007F8411C11904CF29870C0F600001290EF
:103E38004CF2A070C0F60000139017F8410C0290E5
:103E48000299DFE801F0040822284200FEDE01980A
:103E5800006804903FE04CF2A070C0F600000590A6
:103E6800012006904CF2C050C0F60000016840687E
:103E780009910A9004200790002008904CF2A8713C
:103E8800C0F6000105A804F0E2FF01980068BFF33E
:103E98005F8F04901FE04CF29870C0F600000B9002
:103EA80001200C904CF2C050C0F600000168406838
:103EB8000F91109004200D9000200E904CF2B871D4
:103EC800C0F600010BA804F0C2FF01980068BFF318
:103ED8005F8F0490FFE7049814B080BD80B56F46EB
:103EE80094B000900B46019307F8412C109007F806
:103EF800091C4CF2C870C0F6000012904CF2D07049
:103F0800C0F60000139017F8410C02900299DFE800
:103F180001F004080E284200FEDE0198009908709E
:103F280041E001980099BFF35F8F08703BE04CF2C5
:103F3800D070C0F600000490012005904CF2C050EB
:103F4800C0F60000016840680891099004200690B6
:103F5800002007904CF2D871C0F6000104A804F0C4
:103F680076FF4CF2C870C0F600000A9001200B9052
:103F78004CF2C050C0F60000016840680E910F90E6
:103F880004200C9000200D904CF2E871C0F600015E
:103F98000AA804F05CFF01980099BFF35F8F0870CE
:103FA800BFF35F8FFFE714B080BD000080B56F4698
:103FB80094B00091019007F8412C109011914CF2A7
:103FC800C870C0F6000012904CF2D070C0F6000025
:103FD800139017F8410C02900299DFE801F00408E9
:103FE8000E284200FEDE00980199086041E0009822
:103FF8000199BFF35F8F08603BE04CF2D070C0F6C8
:1040080000000490012005904CF2C050C0F600005A
:1040180001684068089109900420069000200790E4
:104028004CF2D871C0F6000104A804F010FF4CF25D
:10403800C870C0F600000A9001200B904CF2C050E6
:10404800C0F60000016840680E910F9004200C90A3
:1040580000200D904CF2E871C0F600010AA804F0A7
:10406800F6FE00980199BFF35F8F0860BFF35F8F7A
:10407800FFE714B080BD000080B56F468AB007F82E
:104088001D0C4CF2F870C0F60000099017F81D0CD2
:1040980001900199DFE801F0041E1F202100FEDED7
:1040A8004CF2F870C0F600000390012004904CF226
:1040B800C050C0F6000001684068079108900420CD
:1040C8000590002006904CF60001C0F6000103A8F8
:1040D80004F0BDFE02E001E000E0FFE70AB080BDA9
:1040E80098B00F9110908DF84B2014901591169060
:1040F80017909DF84B0011901199DFE801F0042208
:1041080042628400FEDE10980F990D9100680E90AF
:10411800FFE70E99109BDDF834C053E8000F0845FF
:1041280003D143E800C2002AF7D10C90411AB1FA32
:1041380081F1490901290E90EBD1FFE70C98139002
:1041480083E010980F990A91BFF35F8F00680B9076
:10415800FFE70B99109BDDF828C053E8000F0845CE
:1041680003D143E800C2002AF7D10990411AB1FAF5
:1041780081F1490901290B90EBD1FFE709981390C8
:1041880063E010980F99079100680890FFE7089975
:10419800109BDDF81CC053E8000F084503D143E825
:1041A80000C2002AF7D10690411AB1FA81F14909F3
:1041B80001290890EBD1FFE70698BFF35F8F1390B2
:1041C80043E010980F990491BFF35F8F0068059042
:1041D800FFE70599109BDDF810C053E8000F08456C
:1041E80003D143E800C2002AF7D10390411AB1FA7B
:1041F80081F1490901290590EBD1FFE70398BFF345
:104208005F8F139021E010980F990191BFF35F8F92
:1042180000680290FFE70299109BDDF804C053E89C
:10422800000F084503D143E800C2002AF7D10090E7
:10423800411AB1FA81F1490901290290EBD1FFE74E
:104248000098BFF35F8F1390FFE7139818B070477B
:1042580080B56F46A2B09C46069207910890BB684D
:1042680007F85ECC07F85D3C1B901C911D924CF63C
:104278001000C0F600001E904CF61800C0F60000B2
:104288001F9017F85E0C09900999DFE801F00413F4
:1042980025374900FEDE17F85D0C01460591002818
:1042A80056D0FFE70598022866D0FFE7059804284E
:1042B80078D047E017F85D0C01460491002800F01B
:1042C8009680FFE70498022800F0A780FFE704988B
:1042D800042800F0BA8035E017F85D0C0146039118
:1042E800002800F0CA80FFE70398022800F0DB806E
:1042F800FFE70398042800F0EC8023E017F85D0C32
:1043080001460291002800F0FC80FFE7029802288D
:1043180000F00F81FFE70298042800F0228111E0E5
:1043280017F85D0C01460191002800F03281FFE783
:104338000198022800F04581FFE70198042800F061
:104348005881FFE717F85D0C012800F0788190E1AB
:104358000798089BDDF818C053E8001F014503D1F2
:1043680043E800C2002AF7D1081AB0FA80F04009E1
:104378000D918DF838002DE00798089BDDF818C0DE
:1043880053E8001F014503D143E800C2002AF7D1D2
:10439800081AB0FA80F04009BFF35F8F0D918DF8CD
:1043A800380017E00798089BDDF818C0BFF35F8F47
:1043B80053E8001F014503D143E800C2002AF7D1A2
:1043C800081AB0FA80F04009BFF35F8F0D918DF89D
:1043D8003800FFE70D98009020909DF8380000F015
:1043E800010007F8010C002840F0208119E1079826
:1043F800089BDDF818C0BFF35F8F53E8001F014525
:1044080003D143E800C2002AF7D1081AB0FA80F0B5
:1044180040090D918DF83800DCE70798089BDDF816
:1044280018C0BFF35F8F53E8001F014503D143E86D
:1044380000C2002AF7D1081AB0FA80F04009BFF389
:104448005F8F0D918DF83800C4E70798089BDDF859
:1044580018C0BFF35F8F53E8001F014503D143E83D
:1044680000C2002AF7D1081AB0FA80F04009BFF359
:104478005F8F0D918DF83800ACE70798089BDDF841
:1044880018C053E8001F014503D143E800C2002AC1
:10449800F7D1081AB0FA80F04009BFF35F8F0D9189
:1044A8008DF8380096E70798089BDDF818C053E8A0
:1044B800001F014503D143E800C2002AF7D1081ABA
:1044C800B0FA80F04009BFF35F8F0D918DF8380086
:1044D80080E70798089BDDF818C0BFF35F8F53E8A3
:1044E800001F014503D143E800C2002AF7D1081A8A
:1044F800B0FA80F04009BFF35F8F0D918DF8380056
:1045080068E70798089BDDF818C0BFF35F8F53E88A
:10451800001F014503D143E800C2002AF7D1081A59
:10452800B0FA80F04009BFF35F8F0D918DF8380025
:1045380050E70798089BDDF818C0BFF35F8F53E872
:10454800001F014503D143E800C2002AF7D1081A29
:10455800B0FA80F04009BFF35F8F0D918DF83800F5
:1045680038E70798089BDDF818C0BFF35F8F53E85A
:10457800001F014503D143E800C2002AF7D1081AF9
:10458800B0FA80F04009BFF35F8F0D918DF83800C5
:1045980020E70798089BDDF818C0BFF35F8F53E842
:1045A800001F014503D143E800C2002AF7D1081AC9
:1045B800B0FA80F04009BFF35F8F0D918DF8380095
:1045C80008E70798089BDDF818C0BFF35F8F53E82A
:1045D800001F014503D143E800C2002AF7D1081A99
:1045E800B0FA80F04009BFF35F8F0D918DF8380065
:1045F800F0E60798089BDDF818C0BFF35F8F53E813
:10460800001F014503D143E800C2002AF7D1081A68
:10461800B0FA80F04009BFF35F8F0D918DF8380034
:10462800D8E600980C9001200B9004E000980C90BC
:1046380000200B90FFE70B980C9922B080BD4CF638
:104648001000C0F600001590012016904CF2C050E2
:10465800C0F600000168406819911A90042017906C
:10466800002018904CF62001C0F6000115A804F0AF
:10467800EEFB4CF61800C0F600000F9001201090D9
:104688004CF2C050C0F600000168406813911490C5
:1046980004201190002012904CF63001C0F6000161
:1046A8000FA804F0D4FB000080B56F4694B00190C9
:1046B80007F8411C11904CF6C800C0F60000129093
:1046C8004CF6D000C0F60000139017F8410C029089
:1046D8000299DFE801F0040822284200FEDE019872
:1046E800006804903FE04CF6D000C0F6000005904A
:1046F800012006904CF2C050C0F6000001684068E6
:1047080009910A9004200790002008904CF6D801DF
:10471800C0F6000105A804F09AFB01980068BFF3F1
:104728005F8F04901FE04CF6C800C0F600000B90A5
:1047380001200C904CF2C050C0F60000016840689F
:104748000F91109004200D9000200E904CF6E80177
:10475800C0F600010BA804F07AFB01980068BFF3CB
:104768005F8F0490FFE7049814B080BD80B56F4652
:1047780094B00091019007F8412C109011914CF6DB
:10478800F800C0F6000012904CF60010C0F60000C9
:10479800139017F8410C02900299DFE801F0040821
:1047A8000E284200FEDE00980199086041E000985A
:1047B8000199BFF35F8F08603BE04CF60010C0F62C
:1047C80000000490012005904CF2C050C0F6000093
:1047D800016840680891099004200690002007901D
:1047E8004CF60811C0F6000104A804F030FB4CF6A2
:1047F800F800C0F600000A9001200B904CF2C0505F
:10480800C0F60000016840680E910F9004200C90DB
:1048180000200D904CF61811C0F600010AA804F00B
:1048280016FB00980199BFF35F8F0860BFF35F8F95
:10483800FFE714B080BD000080B56F46A2B09C466B
:10484800069207910890BB6807F85ECC07F85D3CB4
:104858001B901C911D924CF62810C0F600001E906B
:104868004CF63010C0F600001F9017F85E0C099047
:104878000999DFE801F0041325374900FEDE17F82F
:104888005D0C01460591002856D0FFE705980228DF
:1048980066D0FFE70598042878D047E017F85D0C44
:1048A80001460491002800F09680FFE7049802284A
:1048B80000F0A780FFE70498042800F0BA8035E0EC
:1048C80017F85D0C01460391002800F0CA80FFE745
:1048D8000398022800F0DB80FFE70398042800F023
:1048E800EC8023E017F85D0C01460291002800F0E7
:1048F800FC80FFE70298022800F00F81FFE702988A
:10490800042800F0228111E017F85D0C014601919E
:10491800002800F03281FFE70198022800F0458165
:10492800FFE70198042800F05881FFE717F85D0CAD
:10493800012800F0788190E10798089BDDF818C0FD
:1049480053E8001F014503D143E800C2002AF7D10C
:10495800081AB0FA80F040090D918DF838002DE062
:104968000798089BDDF818C053E8001F014503D1DC
:1049780043E800C2002AF7D1081AB0FA80F04009CB
:10498800BFF35F8F0D918DF8380017E00798089BEB
:10499800DDF818C0BFF35F8F53E8001F014503D14E
:1049A80043E800C2002AF7D1081AB0FA80F040099B
:1049B800BFF35F8F0D918DF83800FFE70D980090D9
:1049C80020909DF8380000F0010007F8010C00283D
:1049D80040F0208119E10798089BDDF818C0BFF363
:1049E8005F8F53E8001F014503D143E800C2002A46
:1049F800F7D1081AB0FA80F040090D918DF8380007
:104A0800DCE70798089BDDF818C0BFF35F8F53E811
:104A1800001F014503D143E800C2002AF7D1081A54
:104A2800B0FA80F04009BFF35F8F0D918DF8380020
:104A3800C4E70798089BDDF818C0BFF35F8F53E8F9
:104A4800001F014503D143E800C2002AF7D1081A24
:104A5800B0FA80F04009BFF35F8F0D918DF83800F0
:104A6800ACE70798089BDDF818C053E8001F01451C
:104A780003D143E800C2002AF7D1081AB0FA80F03F
:104A88004009BFF35F8F0D918DF8380096E70798BE
:104A9800089BDDF818C053E8001F014503D143E81F
:104AA80000C2002AF7D1081AB0FA80F04009BFF313
:104AB8005F8F0D918DF8380080E70798089BDDF827
:104AC80018C0BFF35F8F53E8001F014503D143E8C7
:104AD80000C2002AF7D1081AB0FA80F04009BFF3E3
:104AE8005F8F0D918DF8380068E70798089BDDF80F
:104AF80018C0BFF35F8F53E8001F014503D143E897
:104B080000C2002AF7D1081AB0FA80F04009BFF3B2
:104B18005F8F0D918DF8380050E70798089BDDF8F6
:104B280018C0BFF35F8F53E8001F014503D143E866
:104B380000C2002AF7D1081AB0FA80F04009BFF382
:104B48005F8F0D918DF8380038E70798089BDDF8DE
:104B580018C0BFF35F8F53E8001F014503D143E836
:104B680000C2002AF7D1081AB0FA80F04009BFF352
:104B78005F8F0D918DF8380020E70798089BDDF8C6
:104B880018C0BFF35F8F53E8001F014503D143E806
:104B980000C2002AF7D1081AB0FA80F04009BFF322
:104BA8005F8F0D918DF8380008E70798089BDDF8AE
:104BB80018C0BFF35F8F53E8001F014503D143E8D6
:104BC80000C2002AF7D1081AB0FA80F04009BFF3F2
:104BD8005F8F0D918DF83800F0E60798089BDDF897
:104BE80018C0BFF35F8F53E8001F014503D143E8A6
:104BF80000C2002AF7D1081AB0FA80F04009BFF3C2
:104C08005F8F0D918DF83800D8E600980C90012040
:104C18000B9004E000980C9000200B90FFE70B9895
:104C28000C9922B080BD4CF62810C0F600001590F3
:104C3800012016904CF2C050C0F600000168406890
:104C480019911A9004201790002018904CF63811EA
:104C5800C0F6000115A804F0FAF84CF63010C0F6BA
:104C680000000F90012010904CF2C050C0F60000D8
:104C7800016840681391149004201190002012904C
:104C88004CF64811C0F600010FA804F0E0F8000047
:104C980080B56F468CB0CDE9000100200690022057
:104CA8000849029169460390059008A804900648AF
:104CB800CDE9090111460B9001A8089002A804F05B
:104CC800C6F800BF30CA000867A1000880B56F4663
:104CD8009CB0CDE900010124124804230B9001A9DE
:104CE800CDE9090168460890022007900CA90691B1
:104CF8000D4902910321199420248DF86C108DF828
:104D08004C10002103901A93189416901490129343
:104D1800CDE910410E900C90059008A8049002A8C7
:104D280004F0A0F80BA0000840CA000880B56F4640
:104D380084B0029207F8020C07F8011C00E0FEDEBE
:104D480017F8010C01900199DFE801F00305030D44
:104D5800030004B080BD029A4DF68040C0F6000002
:104D6800342104F093F8029A4DF6B440C0F60000DE
:104D78003D2104F08BF8000080B56F4684B00191A6
:104D880007F8010C17F8010C02900299DFE801F00E
:104D98000404060E0400FEDE04B080BD019A4DF640
:104DA8003B60C0F600002A2104F070F8019A4DF625
:104DB8006560C0F60000322104F068F82DE9F04F74
:104DC8008DB043680293837815469A07804640F170
:104DD8000D8100240E78002E00F00A81252E0BD0BC
:104DE8004B1C03930134029B4146304698470028E8
:104DF800C0F2F6800399EDE74E788B1C252E0393BD
:104E0800F0D00027B946BB46BBF11F0F38D8A6F132
:104E18002003102B0AD8DFE803F02A090930090912
:104E2800092109090928092D09091F00A6F13003DC
:104E3800092B33D92A2E37D11BF0400F55F8043BE4
:104E480040F08280002BA7BF4BF0200B9946C3F19E
:104E580000094BF0280B01E04BF0010B039B13F802
:104E6800016B0393002ECFD130E04BF0020B4BF0D7
:104E7800040BF3E74BF0080BF0E74BF0100BEDE7F2
:104E8800BBF17F0F19D8A6F13003092BD2D81BF03C
:104E9800400F03D00A2101FB0737DFE70A2101FB96
:104EA80009394BF0200BD9E72E2E06D11BF0400F05
:104EB80040F09E804BF0400BD0E76C2E31D02BD8C1
:104EC800682E36D06A2E3CD04C2E3AD0002F46F0B1
:104ED8002003B8BF2BF04002A3F16501BCBF1FFA45
:104EE80082FB0027022901D9612B2FD1073525F034
:104EF8000705DFF8ACA2083507271BF0080F66D0B6
:104F08000AEB070B56465E4563D1A4EB0A0A06EB8B
:104F18000A02A9EB07096FE1742E9FD07A2E9DD063
:104F2800D4E71BF0800F18BF4BF4007B4BF0800BCD
:104F380094E71BF4807F18BF4BF4007B4BF4807B15
:104F48008CE74BF4207B89E71F4687E7A6F16301CE
:104F5800122900F2F080DFE811F013004F00EE0094
:104F6800EE00EE00EE004F00EE00EE00EE00EE0068
:104F7800EE00FE00E900EE00EE001B00EE00AF00C0
:104F880055F8043B8DF8183001270DF1180AB4E7DD
:104F980055F804AB834BBAF1000F08BF9A461BF0D3
:104FA800400F14BF39464FF0FF31504606F066FEF9
:104FB8000746A2E7029B41462020984700280FDBBE
:104FC800013EB742F6D34C44A41BB14698E74E467F
:104FD800F7E716F8010B029B41469847002892DA3A
:104FE80098F8023043F0040388F802304FF0FF3499
:104FF80020460DB0BDE8F08F1BF0800F34D01BF4B5
:10500800007F2CD0073525F00705AA4669685AF8AD
:10501800080B2BF010050029ADB237DA404261EBDE
:10502800410145F480650DF1180B0A235A4606F034
:1050380031FEA0EB0B0301936B0662D5019B25F0B3
:1050480001019F4289B240F3A180002E00F09980AF
:1050580015F0100240F09C80BB460D4623E0AA469E
:105068005AF8040BC117D4E7AA461BF4807F5AF8F4
:10507800041B01D10846F5E71BF4007F15BF48B2B1
:1050880008B241F3C01141F3C031C2E750EA01034D
:10509800C9D11BF0400FC6D0002FC4D12BF011028C
:1050A80095B2BB46019740F2064115EA01021CBFC2
:1050B8000BF1010B00222CE02BF010021FFA82FBEF
:1050C8000A231BF0800C49D01BF400711DBF073563
:1050D80025F00705AA46AA461ABF5AF8080B6968B8
:1050E8005AF8040B50EA010545D12BF016051BF0C0
:1050F800400FADB242D0002F40D12BF0170295B22D
:10510800019715F0100248D0019B002E42D103F1FF
:10511800010B29075AD4EB0706D5D9456FDD01994C
:10512800A9EB0B035F18CB465B4649E04BF0100B2D
:1051380010237826C5E7782B04D1C6F1780343F00D
:105148001003BEE7029B4146252098470028FFF63A
:1051580047AF023447E608230026B2E7AA461BF405
:1051680080715AF8040BBDD01BF400711ABFC0B28D
:10517800614680B2B6E72BF0060295B20DF1180B26
:1051880054E725F01105ADB2BB468CE70D46B8E7EC
:105198003B460D4603F1020BBBE7DDF804B082E79E
:1051A80039E1000832E10008CDE904324146029BAA
:1051B800202098470028FFF613AF049B059A013377
:1051C8009945F1DCA4EB0B01CC189B460AB3029B72
:1051D8004146302098470028FFF602AF8EB90134C7
:1051E8002744019B391B994224DC1D465DBB019A6B
:1051F800A9EB0B09224455461446914435E0019F1A
:1052080092E7023441463046029B98470028E7DA85
:10521800E6E640F206410D42E2D015F0020F14BF57
:105228002B20202015F4806F04F10104414618BF9B
:105238002D20E9E7029B414630209847002804F1D9
:105248000104CEDACCE606AB013D4146585D029B2F
:1052580098470028CADAC3E6029B414620209847AF
:10526800002804F10104FFF6BBAEA9EB0403002BF0
:10527800F2DCBFE5704708B501F091FA002008BDDF
:10528800002383F31188BFF36F8F0423184602DFCE
:10529800704738B513468568046912F4801F07D033
:1052A80012F4402F04D012F0010F01D082F44023F1
:1052B80023F4801213F0010F0AD023684FF0010C79
:1052C8000CFA01FC43EA0C0323602B68984738BDAD
:1052D80023684FF0010C0CFA01FC23EA0C0323604D
:1052E800F3E738B50C46056983685B68984718B9D1
:1052F80023682A685340236038BD10B582B00C4635
:1053080001A9FFF7EEFF30B90123A340019A134228
:1053180014BF0120002002B010BD08B50346006884
:105328001B790121994083685B69984708BD08B5D6
:1053380000F0EFFF08BDEFF31180102383F312880C
:10534800BFF36F8F704781F31188BFF36F8F70477A
:1053580008B5FDF759F808BD08B5FDF73FF908BDD0
:105368002DE9004882B0DDE904BCCDE900BCFDF7B9
:105378005FFD02B0BDE8008808B501F0F8F908BD86
:1053880008B5FBF795F808BD08B5FFF782FF08BD1B
:1053980008B501790068FFF7B0FF08BD08B5FFF749
:1053A800BCFF08BD10B5131D50F8234074B9C3687D
:1053B800012494402343C360043240F82210CB00F8
:1053C8001A1D89B281520633C15210BDE20004325F
:1053D800835A4FEAC10C0CF1040E20F80E300CF180
:1053E800060C20F80C40DB00063389B2C15281520A
:1053F800EBE708B500EBC1035A885208B2FA82F20B
:10540800C2F11F02FFF7CEFF08BD70B50346043A8C
:10541800C81D20F007000A4422F00702121AD50816
:10542800186085600023C360B5FA85F1C1F1200ECC
:10543800C1F124018900CE1DF10805E003F1040C37
:10544800002440F82C4001337345F7DB4C00A4B22C
:1054580044804FF0000CA0F800C044F001044480E0
:105468006B1A4FEA430E26F00704A51C20F805E046
:10547800015322F00704951C20F805C00244035389
:10548800538843F001035380FFF7B3FF70BD00203A
:1054980070470FB400B583B004A951F8040B01910B
:1054A800FAF7F0FF03B05DF804EB04B070477047FB
:1054B80008B5012802D0FCF715FB08BDEFF30583FA
:1054C800F9E708B501460068FFF7F2FF08BD0020BC
:1054D800704700230B70704708B500231370CB1E6C
:1054E800092B1AD8DFE803F005090D111919191944
:1054F80019141146FBF772F910E00021FBF704F9C3
:105508000CE00021FBF76AF808E0FBF7ADF805E0CE
:105518001146FFF7DEFF002000E0002008BD08B5B7
:1055280040B2FBF775FA08BD08B5013140B2FBF788
:105538007DFA08BD08B500210120FFF7B9FF08BDB5
:1055480061B662B680F31188BFF36F8F704772B689
:10555800002383F31188BFF36F8FBFF34F8F30BFE2
:1055680062B6BFF36F8F704743685A1E134206D165
:105578001F2B06D903681A4205D000207047002067
:105588007047002070470120704700B585B00B6850
:1055980001934B688A68202B12D9B3F1004F11D8B8
:1055A800013BB3FA83F3C3F11F035B0003F03E032F
:1055B8001343039301A9FBF733FB05B05DF804FB24
:1055C8000823F5E73E23F3E72DE9F84380460F4625
:1055D80099461646002509E02146F0B2FFF7D5FFA7
:1055E800064610F1160F14D001360135BD4210DA07
:1055F80005EB450408EB84046268002AF5D0B9F18C
:10560800000FE9D02046FFF7AFFF0028E4D16FF084
:1056180015063046BDE8F883F0B585B0054603A801
:10562800FAF792FF0646002424E0B3F5801F20D144
:10563800576809589368202B64D9B3F1004F63D891
:10564800013BB3FA83F3C3F11F035B0003F03E038E
:1056580043F0885343F4302300970191029369463D
:105668002878FBF7DDFA0028C0F2A8802B780133F0
:105678002B700134B44280F0A4802001039901EB1F
:105688000412D3681B0D1B05B3F5000F5ED01DD89F
:10569800B3F5001F3AD0B3F5800FC6D15768095843
:1056A8009368202B4ED9B3F1004F4DD8013BB3FA84
:1056B80083F3C3F11F035B0003F03E0343F0E06391
:1056C80043F40033009701910293C8E7B3F1807F58
:1056D80056D0B3F1007FCCD1576809589368202B76
:1056E80068D9B3F1004F67D8013BB3FA83F3C3F12C
:1056F8001F035B0003F03E0343F4802300970191EE
:105708000293ACE70823A3E73E23A1E757680958AB
:105718009368202B12D9B3F1004F11D8013BB3FA8B
:1057280083F3C3F11F035B0003F03E0343F0885388
:1057380043F4002300970191029390E70823F5E7CB
:105748003E23F3E70823B9E73E23B7E7576809582C
:105758009368202B10D9B3F1004F0FD8013BB3FA4F
:1057680083F3C3F11F035B0003F03E0343F082732E
:1057780000970191029372E70823F7E73E23F5E7C4
:10578800576809589368202B10D9B3F1004F0FD8E8
:10579800013BB3FA83F3C3F11F035B0003F03E033D
:1057A80043F0887300970191029358E70823F7E7BD
:1057B8003E23F5E708239FE73E239DE76FF015009A
:1057C80000E0002005B0F0BD08B5FBF73DFA08BDC4
:1057D80008B5FBF743FA08BD08B5FBF7B3FA002094
:1057E80008BD08B5062201210020FBF70FFB0022A7
:1057F80011460620FFF798FE072201210846FBF70D
:1058080005FB002211460720FFF78EFE0822012122
:105818000220FBF7FBFA002211460820FFF784FE5E
:10582800092201210320FBF7F1FA00221146092081
:10583800FFF77AFE0A2201210420FBF7E7FA00228B
:1058480011460A20FFF770FE172205210846FBF7CC
:10585800DDFA002211461720FFF766FE28220621EE
:105868000A20FBF7D3FA002211462820FFF75CFE36
:10587800FBF7B2FA08BD01208840704708B5024618
:10588800084602F0030304339B000F21994041EAC4
:105898009201FBF7CDFA08BD08B500F00303043305
:1058A8009B000F2202FA03F343EA9000FBF7DCFAAD
:1058B80008BDB0FBF1F002FB00F0B0FBF3F070475D
:1058C800B0FBF1F070470B88C3F30B0303F57D625F
:1058D800C2F30B02782A15D882B003F1804303F58E
:1058E8000E334A68186802431A600B88C3F30B0327
:1058F80003F1804303F50E331B680193019B0020DD
:1059080002B070476FF0850070470B88C3F30B0334
:1059180003F57D62C2F30B02782A0AD803F18043AB
:1059280003F50E3349681A6822EA01021A6000205A
:1059380070476FF0850070470138092807D840F292
:105948007523C34013F0010F04D0002070476FF097
:10595800850070476FF08500704710B50C460888C1
:10596800C0F30B00FFF7E8FF00281EDB6368FF2B7E
:105978001CD09AB202F1804202F50E32C3F3845170
:10598800C3F305439940136823EA01031360616870
:105998008BB203F1804303F50E33CA0EC1F3054100
:1059A8008A4019680A431A60002010BD0020FCE7ED
:1059B80008B50888C0F30B0000F57D63C3F30B033B
:1059C800782B0BD800F1804000F50E3002684B6848
:1059D800934301D0012008BD0220FCE7FFF7ACFF8C
:1059E80008B10120F7E70220F5E770474FF480007F
:1059F800704708B5FFF7FAFF4FF0005340F20F1257
:105A08000821FBF71FFC08BD0B4639B11168196066
:105A180041688A4209D00023136070471368036005
:105A280041688A42F7D14360F5E74360F3E708B578
:105A38000A460368002101E019461B682BB193420E
:105A4800FAD1FFF7E1FF012000E0002008BD70B5A2
:105A580004460D461646036833B1FFF7E8FF70B9F0
:105A68001EB96FF0150006E032B123682B6025607F
:105A7800636843B1002070BD6FF01500FBE7002E8E
:105A8800F3D10020F7E765600020F4E770B50E4613
:105A98001546016821B10C683CB131B90C4604E0E7
:105AA8000C4602E0234621461C4671B18A682A400A
:105AB80002D04B6830469847002CF3D02368002B5F
:105AC800F1D0002CEFD12346EDE770BD08B50246B2
